{
  "_format": "hh-sol-artifact-1",
  "contractName": "VizionCollection",
  "sourceName": "contracts/VizionCollection.sol",
  "abi": [
    {
      "inputs": [],
      "stateMutability": "nonpayable",
      "type": "constructor"
    },
    {
      "anonymous": false,
      "inputs": [
        {
          "indexed": true,
          "internalType": "address",
          "name": "owner",
          "type": "address"
        },
        {
          "indexed": true,
          "internalType": "address",
          "name": "approved",
          "type": "address"
        },
        {
          "indexed": true,
          "internalType": "uint256",
          "name": "tokenId",
          "type": "uint256"
        }
      ],
      "name": "Approval",
      "type": "event"
    },
    {
      "anonymous": false,
      "inputs": [
        {
          "indexed": true,
          "internalType": "address",
          "name": "owner",
          "type": "address"
        },
        {
          "indexed": true,
          "internalType": "address",
          "name": "operator",
          "type": "address"
        },
        {
          "indexed": false,
          "internalType": "bool",
          "name": "approved",
          "type": "bool"
        }
      ],
      "name": "ApprovalForAll",
      "type": "event"
    },
    {
      "anonymous": false,
      "inputs": [
        {
          "indexed": true,
          "internalType": "address",
          "name": "previousOwner",
          "type": "address"
        },
        {
          "indexed": true,
          "internalType": "address",
          "name": "newOwner",
          "type": "address"
        }
      ],
      "name": "OwnershipTransferred",
      "type": "event"
    },
    {
      "anonymous": false,
      "inputs": [
        {
          "indexed": true,
          "internalType": "address",
          "name": "from",
          "type": "address"
        },
        {
          "indexed": true,
          "internalType": "address",
          "name": "to",
          "type": "address"
        },
        {
          "indexed": true,
          "internalType": "uint256",
          "name": "tokenId",
          "type": "uint256"
        }
      ],
      "name": "Transfer",
      "type": "event"
    },
    {
      "inputs": [
        {
          "internalType": "address",
          "name": "to",
          "type": "address"
        },
        {
          "internalType": "uint256",
          "name": "tokenId",
          "type": "uint256"
        }
      ],
      "name": "approve",
      "outputs": [],
      "stateMutability": "nonpayable",
      "type": "function"
    },
    {
      "inputs": [
        {
          "internalType": "address",
          "name": "owner",
          "type": "address"
        }
      ],
      "name": "balanceOf",
      "outputs": [
        {
          "internalType": "uint256",
          "name": "",
          "type": "uint256"
        }
      ],
      "stateMutability": "view",
      "type": "function"
    },
    {
      "inputs": [
        {
          "internalType": "uint256",
          "name": "tokenId",
          "type": "uint256"
        }
      ],
      "name": "getApproved",
      "outputs": [
        {
          "internalType": "address",
          "name": "",
          "type": "address"
        }
      ],
      "stateMutability": "view",
      "type": "function"
    },
    {
      "inputs": [
        {
          "internalType": "address",
          "name": "owner",
          "type": "address"
        },
        {
          "internalType": "address",
          "name": "operator",
          "type": "address"
        }
      ],
      "name": "isApprovedForAll",
      "outputs": [
        {
          "internalType": "bool",
          "name": "",
          "type": "bool"
        }
      ],
      "stateMutability": "view",
      "type": "function"
    },
    {
      "inputs": [
        {
          "internalType": "string",
          "name": "_tokenUri",
          "type": "string"
        }
      ],
      "name": "mint",
      "outputs": [],
      "stateMutability": "nonpayable",
      "type": "function"
    },
    {
      "inputs": [],
      "name": "name",
      "outputs": [
        {
          "internalType": "string",
          "name": "",
          "type": "string"
        }
      ],
      "stateMutability": "view",
      "type": "function"
    },
    {
      "inputs": [],
      "name": "owner",
      "outputs": [
        {
          "internalType": "address",
          "name": "",
          "type": "address"
        }
      ],
      "stateMutability": "view",
      "type": "function"
    },
    {
      "inputs": [
        {
          "internalType": "uint256",
          "name": "tokenId",
          "type": "uint256"
        }
      ],
      "name": "ownerOf",
      "outputs": [
        {
          "internalType": "address",
          "name": "",
          "type": "address"
        }
      ],
      "stateMutability": "view",
      "type": "function"
    },
    {
      "inputs": [],
      "name": "renounceOwnership",
      "outputs": [],
      "stateMutability": "nonpayable",
      "type": "function"
    },
    {
      "inputs": [],
      "name": "s_minter",
      "outputs": [
        {
          "internalType": "address",
          "name": "",
          "type": "address"
        }
      ],
      "stateMutability": "view",
      "type": "function"
    },
    {
      "inputs": [
        {
          "internalType": "address",
          "name": "from",
          "type": "address"
        },
        {
          "internalType": "address",
          "name": "to",
          "type": "address"
        },
        {
          "internalType": "uint256",
          "name": "tokenId",
          "type": "uint256"
        }
      ],
      "name": "safeTransferFrom",
      "outputs": [],
      "stateMutability": "nonpayable",
      "type": "function"
    },
    {
      "inputs": [
        {
          "internalType": "address",
          "name": "from",
          "type": "address"
        },
        {
          "internalType": "address",
          "name": "to",
          "type": "address"
        },
        {
          "internalType": "uint256",
          "name": "tokenId",
          "type": "uint256"
        },
        {
          "internalType": "bytes",
          "name": "data",
          "type": "bytes"
        }
      ],
      "name": "safeTransferFrom",
      "outputs": [],
      "stateMutability": "nonpayable",
      "type": "function"
    },
    {
      "inputs": [
        {
          "internalType": "address",
          "name": "operator",
          "type": "address"
        },
        {
          "internalType": "bool",
          "name": "approved",
          "type": "bool"
        }
      ],
      "name": "setApprovalForAll",
      "outputs": [],
      "stateMutability": "nonpayable",
      "type": "function"
    },
    {
      "inputs": [
        {
          "internalType": "address",
          "name": "_minter",
          "type": "address"
        }
      ],
      "name": "setMinter",
      "outputs": [],
      "stateMutability": "nonpayable",
      "type": "function"
    },
    {
      "inputs": [
        {
          "internalType": "bytes4",
          "name": "interfaceId",
          "type": "bytes4"
        }
      ],
      "name": "supportsInterface",
      "outputs": [
        {
          "internalType": "bool",
          "name": "",
          "type": "bool"
        }
      ],
      "stateMutability": "view",
      "type": "function"
    },
    {
      "inputs": [],
      "name": "symbol",
      "outputs": [
        {
          "internalType": "string",
          "name": "",
          "type": "string"
        }
      ],
      "stateMutability": "view",
      "type": "function"
    },
    {
      "inputs": [
        {
          "internalType": "uint256",
          "name": "_tokenId",
          "type": "uint256"
        }
      ],
      "name": "tokenURI",
      "outputs": [
        {
          "internalType": "string",
          "name": "",
          "type": "string"
        }
      ],
      "stateMutability": "view",
      "type": "function"
    },
    {
      "inputs": [
        {
          "internalType": "address",
          "name": "from",
          "type": "address"
        },
        {
          "internalType": "address",
          "name": "to",
          "type": "address"
        },
        {
          "internalType": "uint256",
          "name": "tokenId",
          "type": "uint256"
        }
      ],
      "name": "transferFrom",
      "outputs": [],
      "stateMutability": "nonpayable",
      "type": "function"
    },
    {
      "inputs": [
        {
          "internalType": "address",
          "name": "newOwner",
          "type": "address"
        }
      ],
      "name": "transferOwnership",
      "outputs": [],
      "stateMutability": "nonpayable",
      "type": "function"
    }
  ],
  "bytecode": "0x60806040523480156200001157600080fd5b506040518060400160405280601081526020017f56697a696f6e436f6c6c656374696f6e000000000000000000000000000000008152506040518060400160405280600681526020017f56495a4e4654000000000000000000000000000000000000000000000000000081525081600090816200008f91906200045b565b508060019081620000a191906200045b565b505050620000c4620000b86200011360201b60201c565b6200011b60201b60201c565b33600760006101000a81548173ffffffffffffffffffffffffffffffffffffffff021916908373ffffffffffffffffffffffffffffffffffffffff160217905550600060088190555062000542565b600033905090565b6000600660009054906101000a900473ffffffffffffffffffffffffffffffffffffffff16905081600660006101000a81548173ffffffffffffffffffffffffffffffffffffffff021916908373ffffffffffffffffffffffffffffffffffffffff1602179055508173ffffffffffffffffffffffffffffffffffffffff168173ffffffffffffffffffffffffffffffffffffffff167f8be0079c531659141344cd1fd0a4f28419497f9722a3daafe3b4186f6b6457e060405160405180910390a35050565b600081519050919050565b7f4e487b7100000000000000000000000000000000000000000000000000000000600052604160045260246000fd5b7f4e487b7100000000000000000000000000000000000000000000000000000000600052602260045260246000fd5b600060028204905060018216806200026357607f821691505b6020821081036200027957620002786200021b565b5b50919050565b60008190508160005260206000209050919050565b60006020601f8301049050919050565b600082821b905092915050565b600060088302620002e37fffffffffffffffffffffffffffffffffffffffffffffffffffffffffffffffff82620002a4565b620002ef8683620002a4565b95508019841693508086168417925050509392505050565b6000819050919050565b6000819050919050565b60006200033c62000336620003308462000307565b62000311565b62000307565b9050919050565b6000819050919050565b62000358836200031b565b62000370620003678262000343565b848454620002b1565b825550505050565b600090565b6200038762000378565b620003948184846200034d565b505050565b5b81811015620003bc57620003b06000826200037d565b6001810190506200039a565b5050565b601f8211156200040b57620003d5816200027f565b620003e08462000294565b81016020851015620003f0578190505b62000408620003ff8562000294565b83018262000399565b50505b505050565b600082821c905092915050565b6000620004306000198460080262000410565b1980831691505092915050565b60006200044b83836200041d565b9150826002028217905092915050565b6200046682620001e1565b67ffffffffffffffff811115620004825762000481620001ec565b5b6200048e82546200024a565b6200049b828285620003c0565b600060209050601f831160018114620004d35760008415620004be578287015190505b620004ca85826200043d565b8655506200053a565b601f198416620004e3866200027f565b60005b828110156200050d57848901518255600182019150602085019450602081019050620004e6565b868310156200052d578489015162000529601f8916826200041d565b8355505b6001600288020188555050505b505050505050565b612c9480620005526000396000f3fe608060405234801561001057600080fd5b50600436106101215760003560e01c80638da5cb5b116100ad578063d3cfee8b11610071578063d3cfee8b14610306578063d85d3d2714610324578063e985e9c514610340578063f2fde38b14610370578063fca3b5aa1461038c57610121565b80638da5cb5b1461026257806395d89b4114610280578063a22cb4651461029e578063b88d4fde146102ba578063c87b56dd146102d657610121565b806323b872dd116100f457806323b872dd146101c057806342842e0e146101dc5780636352211e146101f857806370a0823114610228578063715018a61461025857610121565b806301ffc9a71461012657806306fdde0314610156578063081812fc14610174578063095ea7b3146101a4575b600080fd5b610140600480360381019061013b91906119b3565b6103a8565b60405161014d91906119fb565b60405180910390f35b61015e61048a565b60405161016b9190611aa6565b60405180910390f35b61018e60048036038101906101899190611afe565b61051c565b60405161019b9190611b6c565b60405180910390f35b6101be60048036038101906101b99190611bb3565b610562565b005b6101da60048036038101906101d59190611bf3565b610679565b005b6101f660048036038101906101f19190611bf3565b6106d9565b005b610212600480360381019061020d9190611afe565b6106f9565b60405161021f9190611b6c565b60405180910390f35b610242600480360381019061023d9190611c46565b61077f565b60405161024f9190611c82565b60405180910390f35b610260610836565b005b61026a61084a565b6040516102779190611b6c565b60405180910390f35b610288610874565b6040516102959190611aa6565b60405180910390f35b6102b860048036038101906102b39190611cc9565b610906565b005b6102d460048036038101906102cf9190611e3e565b61091c565b005b6102f060048036038101906102eb9190611afe565b61097e565b6040516102fd9190611aa6565b60405180910390f35b61030e610a01565b60405161031b9190611b6c565b60405180910390f35b61033e60048036038101906103399190611f62565b610a27565b005b61035a60048036038101906103559190611fab565b610b0a565b60405161036791906119fb565b60405180910390f35b61038a60048036038101906103859190611c46565b610b9e565b005b6103a660048036038101906103a19190611c46565b610c21565b005b60007f80ac58cd000000000000000000000000000000000000000000000000000000007bffffffffffffffffffffffffffffffffffffffffffffffffffffffff1916827bffffffffffffffffffffffffffffffffffffffffffffffffffffffff1916148061047357507f5b5e139f000000000000000000000000000000000000000000000000000000007bffffffffffffffffffffffffffffffffffffffffffffffffffffffff1916827bffffffffffffffffffffffffffffffffffffffffffffffffffffffff1916145b80610483575061048282610c6d565b5b9050919050565b6060600080546104999061201a565b80601f01602080910402602001604051908101604052809291908181526020018280546104c59061201a565b80156105125780601f106104e757610100808354040283529160200191610512565b820191906000526020600020905b8154815290600101906020018083116104f557829003601f168201915b5050505050905090565b600061052782610cd7565b6004600083815260200190815260200160002060009054906101000a900473ffffffffffffffffffffffffffffffffffffffff169050919050565b600061056d826106f9565b90508073ffffffffffffffffffffffffffffffffffffffff168373ffffffffffffffffffffffffffffffffffffffff16036105dd576040517f08c379a00000000000000000000000000000000000000000000000000000000081526004016105d4906120bd565b60405180910390fd5b8073ffffffffffffffffffffffffffffffffffffffff166105fc610d22565b73ffffffffffffffffffffffffffffffffffffffff16148061062b575061062a81610625610d22565b610b0a565b5b61066a576040517f08c379a00000000000000000000000000000000000000000000000000000000081526004016106619061214f565b60405180910390fd5b6106748383610d2a565b505050565b61068a610684610d22565b82610de3565b6106c9576040517f08c379a00000000000000000000000000000000000000000000000000000000081526004016106c0906121e1565b60405180910390fd5b6106d4838383610e78565b505050565b6106f48383836040518060200160405280600081525061091c565b505050565b60008061070583611171565b9050600073ffffffffffffffffffffffffffffffffffffffff168173ffffffffffffffffffffffffffffffffffffffff1603610776576040517f08c379a000000000000000000000000000000000000000000000000000000000815260040161076d9061224d565b60405180910390fd5b80915050919050565b60008073ffffffffffffffffffffffffffffffffffffffff168273ffffffffffffffffffffffffffffffffffffffff16036107ef576040517f08c379a00000000000000000000000000000000000000000000000000000000081526004016107e6906122df565b60405180910390fd5b600360008373ffffffffffffffffffffffffffffffffffffffff1673ffffffffffffffffffffffffffffffffffffffff168152602001908152602001600020549050919050565b61083e6111ae565b610848600061122c565b565b6000600660009054906101000a900473ffffffffffffffffffffffffffffffffffffffff16905090565b6060600180546108839061201a565b80601f01602080910402602001604051908101604052809291908181526020018280546108af9061201a565b80156108fc5780601f106108d1576101008083540402835291602001916108fc565b820191906000526020600020905b8154815290600101906020018083116108df57829003601f168201915b5050505050905090565b610918610911610d22565b83836112f2565b5050565b61092d610927610d22565b83610de3565b61096c576040517f08c379a0000000000000000000000000000000000000000000000000000000008152600401610963906121e1565b60405180910390fd5b6109788484848461145e565b50505050565b6060610989826114ba565b6109c8576040517f08c379a00000000000000000000000000000000000000000000000000000000081526004016109bf9061234b565b60405180910390fd5b600960008381526020019081526020016000206040516020016109eb919061240e565b6040516020818303038152906040529050919050565b600760009054906101000a900473ffffffffffffffffffffffffffffffffffffffff1681565b600760009054906101000a900473ffffffffffffffffffffffffffffffffffffffff1673ffffffffffffffffffffffffffffffffffffffff163373ffffffffffffffffffffffffffffffffffffffff1614610ab7576040517f08c379a0000000000000000000000000000000000000000000000000000000008152600401610aae90612497565b60405180910390fd5b600160086000828254610aca91906124e6565b92505081905550806009600060085481526020019081526020016000209081610af391906126b1565b50610b07610aff61084a565b6008546114fb565b50565b6000600560008473ffffffffffffffffffffffffffffffffffffffff1673ffffffffffffffffffffffffffffffffffffffff16815260200190815260200160002060008373ffffffffffffffffffffffffffffffffffffffff1673ffffffffffffffffffffffffffffffffffffffff16815260200190815260200160002060009054906101000a900460ff16905092915050565b610ba66111ae565b600073ffffffffffffffffffffffffffffffffffffffff168173ffffffffffffffffffffffffffffffffffffffff1603610c15576040517f08c379a0000000000000000000000000000000000000000000000000000000008152600401610c0c906127f5565b60405180910390fd5b610c1e8161122c565b50565b610c296111ae565b80600760006101000a81548173ffffffffffffffffffffffffffffffffffffffff021916908373ffffffffffffffffffffffffffffffffffffffff16021790555050565b60007f01ffc9a7000000000000000000000000000000000000000000000000000000007bffffffffffffffffffffffffffffffffffffffffffffffffffffffff1916827bffffffffffffffffffffffffffffffffffffffffffffffffffffffff1916149050919050565b610ce0816114ba565b610d1f576040517f08c379a0000000000000000000000000000000000000000000000000000000008152600401610d169061224d565b60405180910390fd5b50565b600033905090565b816004600083815260200190815260200160002060006101000a81548173ffffffffffffffffffffffffffffffffffffffff021916908373ffffffffffffffffffffffffffffffffffffffff160217905550808273ffffffffffffffffffffffffffffffffffffffff16610d9d836106f9565b73ffffffffffffffffffffffffffffffffffffffff167f8c5be1e5ebec7d5bd14f71427d1e84f3dd0314c0f7b2291e5b200ac8c7c3b92560405160405180910390a45050565b600080610def836106f9565b90508073ffffffffffffffffffffffffffffffffffffffff168473ffffffffffffffffffffffffffffffffffffffff161480610e315750610e308185610b0a565b5b80610e6f57508373ffffffffffffffffffffffffffffffffffffffff16610e578461051c565b73ffffffffffffffffffffffffffffffffffffffff16145b91505092915050565b8273ffffffffffffffffffffffffffffffffffffffff16610e98826106f9565b73ffffffffffffffffffffffffffffffffffffffff1614610eee576040517f08c379a0000000000000000000000000000000000000000000000000000000008152600401610ee590612887565b60405180910390fd5b600073ffffffffffffffffffffffffffffffffffffffff168273ffffffffffffffffffffffffffffffffffffffff1603610f5d576040517f08c379a0000000000000000000000000000000000000000000000000000000008152600401610f5490612919565b60405180910390fd5b610f6a8383836001611519565b8273ffffffffffffffffffffffffffffffffffffffff16610f8a826106f9565b73ffffffffffffffffffffffffffffffffffffffff1614610fe0576040517f08c379a0000000000000000000000000000000000000000000000000000000008152600401610fd790612887565b60405180910390fd5b6004600082815260200190815260200160002060006101000a81549073ffffffffffffffffffffffffffffffffffffffff02191690556001600360008573ffffffffffffffffffffffffffffffffffffffff1673ffffffffffffffffffffffffffffffffffffffff168152602001908152602001600020600082825403925050819055506001600360008473ffffffffffffffffffffffffffffffffffffffff1673ffffffffffffffffffffffffffffffffffffffff16815260200190815260200160002060008282540192505081905550816002600083815260200190815260200160002060006101000a81548173ffffffffffffffffffffffffffffffffffffffff021916908373ffffffffffffffffffffffffffffffffffffffff160217905550808273ffffffffffffffffffffffffffffffffffffffff168473ffffffffffffffffffffffffffffffffffffffff167fddf252ad1be2c89b69c2b068fc378daa952ba7f163c4a11628f55a4df523b3ef60405160405180910390a461116c838383600161151f565b505050565b60006002600083815260200190815260200160002060009054906101000a900473ffffffffffffffffffffffffffffffffffffffff169050919050565b6111b6610d22565b73ffffffffffffffffffffffffffffffffffffffff166111d461084a565b73ffffffffffffffffffffffffffffffffffffffff161461122a576040517f08c379a000000000000000000000000000000000000000000000000000000000815260040161122190612985565b60405180910390fd5b565b6000600660009054906101000a900473ffffffffffffffffffffffffffffffffffffffff16905081600660006101000a81548173ffffffffffffffffffffffffffffffffffffffff021916908373ffffffffffffffffffffffffffffffffffffffff1602179055508173ffffffffffffffffffffffffffffffffffffffff168173ffffffffffffffffffffffffffffffffffffffff167f8be0079c531659141344cd1fd0a4f28419497f9722a3daafe3b4186f6b6457e060405160405180910390a35050565b8173ffffffffffffffffffffffffffffffffffffffff168373ffffffffffffffffffffffffffffffffffffffff1603611360576040517f08c379a0000000000000000000000000000000000000000000000000000000008152600401611357906129f1565b60405180910390fd5b80600560008573ffffffffffffffffffffffffffffffffffffffff1673ffffffffffffffffffffffffffffffffffffffff16815260200190815260200160002060008473ffffffffffffffffffffffffffffffffffffffff1673ffffffffffffffffffffffffffffffffffffffff16815260200190815260200160002060006101000a81548160ff0219169083151502179055508173ffffffffffffffffffffffffffffffffffffffff168373ffffffffffffffffffffffffffffffffffffffff167f17307eab39ab6107e8899845ad3d59bd9653f200f220920489ca2b5937696c318360405161145191906119fb565b60405180910390a3505050565b611469848484610e78565b61147584848484611525565b6114b4576040517f08c379a00000000000000000000000000000000000000000000000000000000081526004016114ab90612a83565b60405180910390fd5b50505050565b60008073ffffffffffffffffffffffffffffffffffffffff166114dc83611171565b73ffffffffffffffffffffffffffffffffffffffff1614159050919050565b6115158282604051806020016040528060008152506116ac565b5050565b50505050565b50505050565b60006115468473ffffffffffffffffffffffffffffffffffffffff16611707565b1561169f578373ffffffffffffffffffffffffffffffffffffffff1663150b7a0261156f610d22565b8786866040518563ffffffff1660e01b81526004016115919493929190612af8565b6020604051808303816000875af19250505080156115cd57506040513d601f19601f820116820180604052508101906115ca9190612b59565b60015b61164f573d80600081146115fd576040519150601f19603f3d011682016040523d82523d6000602084013e611602565b606091505b506000815103611647576040517f08c379a000000000000000000000000000000000000000000000000000000000815260040161163e90612a83565b60405180910390fd5b805181602001fd5b63150b7a0260e01b7bffffffffffffffffffffffffffffffffffffffffffffffffffffffff1916817bffffffffffffffffffffffffffffffffffffffffffffffffffffffff1916149150506116a4565b600190505b949350505050565b6116b6838361172a565b6116c36000848484611525565b611702576040517f08c379a00000000000000000000000000000000000000000000000000000000081526004016116f990612a83565b60405180910390fd5b505050565b6000808273ffffffffffffffffffffffffffffffffffffffff163b119050919050565b600073ffffffffffffffffffffffffffffffffffffffff168273ffffffffffffffffffffffffffffffffffffffff1603611799576040517f08c379a000000000000000000000000000000000000000000000000000000000815260040161179090612bd2565b60405180910390fd5b6117a2816114ba565b156117e2576040517f08c379a00000000000000000000000000000000000000000000000000000000081526004016117d990612c3e565b60405180910390fd5b6117f0600083836001611519565b6117f9816114ba565b15611839576040517f08c379a000000000000000000000000000000000000000000000000000000000815260040161183090612c3e565b60405180910390fd5b6001600360008473ffffffffffffffffffffffffffffffffffffffff1673ffffffffffffffffffffffffffffffffffffffff16815260200190815260200160002060008282540192505081905550816002600083815260200190815260200160002060006101000a81548173ffffffffffffffffffffffffffffffffffffffff021916908373ffffffffffffffffffffffffffffffffffffffff160217905550808273ffffffffffffffffffffffffffffffffffffffff16600073ffffffffffffffffffffffffffffffffffffffff167fddf252ad1be2c89b69c2b068fc378daa952ba7f163c4a11628f55a4df523b3ef60405160405180910390a461194360008383600161151f565b5050565b6000604051905090565b600080fd5b600080fd5b60007fffffffff0000000000000000000000000000000000000000000000000000000082169050919050565b6119908161195b565b811461199b57600080fd5b50565b6000813590506119ad81611987565b92915050565b6000602082840312156119c9576119c8611951565b5b60006119d78482850161199e565b91505092915050565b60008115159050919050565b6119f5816119e0565b82525050565b6000602082019050611a1060008301846119ec565b92915050565b600081519050919050565b600082825260208201905092915050565b60005b83811015611a50578082015181840152602081019050611a35565b60008484015250505050565b6000601f19601f8301169050919050565b6000611a7882611a16565b611a828185611a21565b9350611a92818560208601611a32565b611a9b81611a5c565b840191505092915050565b60006020820190508181036000830152611ac08184611a6d565b905092915050565b6000819050919050565b611adb81611ac8565b8114611ae657600080fd5b50565b600081359050611af881611ad2565b92915050565b600060208284031215611b1457611b13611951565b5b6000611b2284828501611ae9565b91505092915050565b600073ffffffffffffffffffffffffffffffffffffffff82169050919050565b6000611b5682611b2b565b9050919050565b611b6681611b4b565b82525050565b6000602082019050611b816000830184611b5d565b92915050565b611b9081611b4b565b8114611b9b57600080fd5b50565b600081359050611bad81611b87565b92915050565b60008060408385031215611bca57611bc9611951565b5b6000611bd885828601611b9e565b9250506020611be985828601611ae9565b9150509250929050565b600080600060608486031215611c0c57611c0b611951565b5b6000611c1a86828701611b9e565b9350506020611c2b86828701611b9e565b9250506040611c3c86828701611ae9565b9150509250925092565b600060208284031215611c5c57611c5b611951565b5b6000611c6a84828501611b9e565b91505092915050565b611c7c81611ac8565b82525050565b6000602082019050611c976000830184611c73565b92915050565b611ca6816119e0565b8114611cb157600080fd5b50565b600081359050611cc381611c9d565b92915050565b60008060408385031215611ce057611cdf611951565b5b6000611cee85828601611b9e565b9250506020611cff85828601611cb4565b9150509250929050565b600080fd5b600080fd5b7f4e487b7100000000000000000000000000000000000000000000000000000000600052604160045260246000fd5b611d4b82611a5c565b810181811067ffffffffffffffff82111715611d6a57611d69611d13565b5b80604052505050565b6000611d7d611947565b9050611d898282611d42565b919050565b600067ffffffffffffffff821115611da957611da8611d13565b5b611db282611a5c565b9050602081019050919050565b82818337600083830152505050565b6000611de1611ddc84611d8e565b611d73565b905082815260208101848484011115611dfd57611dfc611d0e565b5b611e08848285611dbf565b509392505050565b600082601f830112611e2557611e24611d09565b5b8135611e35848260208601611dce565b91505092915050565b60008060008060808587031215611e5857611e57611951565b5b6000611e6687828801611b9e565b9450506020611e7787828801611b9e565b9350506040611e8887828801611ae9565b925050606085013567ffffffffffffffff811115611ea957611ea8611956565b5b611eb587828801611e10565b91505092959194509250565b600067ffffffffffffffff821115611edc57611edb611d13565b5b611ee582611a5c565b9050602081019050919050565b6000611f05611f0084611ec1565b611d73565b905082815260208101848484011115611f2157611f20611d0e565b5b611f2c848285611dbf565b509392505050565b600082601f830112611f4957611f48611d09565b5b8135611f59848260208601611ef2565b91505092915050565b600060208284031215611f7857611f77611951565b5b600082013567ffffffffffffffff811115611f9657611f95611956565b5b611fa284828501611f34565b91505092915050565b60008060408385031215611fc257611fc1611951565b5b6000611fd085828601611b9e565b9250506020611fe185828601611b9e565b9150509250929050565b7f4e487b7100000000000000000000000000000000000000000000000000000000600052602260045260246000fd5b6000600282049050600182168061203257607f821691505b60208210810361204557612044611feb565b5b50919050565b7f4552433732313a20617070726f76616c20746f2063757272656e74206f776e6560008201527f7200000000000000000000000000000000000000000000000000000000000000602082015250565b60006120a7602183611a21565b91506120b28261204b565b604082019050919050565b600060208201905081810360008301526120d68161209a565b9050919050565b7f4552433732313a20617070726f76652063616c6c6572206973206e6f7420746f60008201527f6b656e206f776e6572206f7220617070726f76656420666f7220616c6c000000602082015250565b6000612139603d83611a21565b9150612144826120dd565b604082019050919050565b600060208201905081810360008301526121688161212c565b9050919050565b7f4552433732313a2063616c6c6572206973206e6f7420746f6b656e206f776e6560008201527f72206f7220617070726f76656400000000000000000000000000000000000000602082015250565b60006121cb602d83611a21565b91506121d68261216f565b604082019050919050565b600060208201905081810360008301526121fa816121be565b9050919050565b7f4552433732313a20696e76616c696420746f6b656e2049440000000000000000600082015250565b6000612237601883611a21565b915061224282612201565b602082019050919050565b600060208201905081810360008301526122668161222a565b9050919050565b7f4552433732313a2061646472657373207a65726f206973206e6f74206120766160008201527f6c6964206f776e65720000000000000000000000000000000000000000000000602082015250565b60006122c9602983611a21565b91506122d48261226d565b604082019050919050565b600060208201905081810360008301526122f8816122bc565b9050919050565b7f546f6b656e20646f6573206e6f74206578697374210000000000000000000000600082015250565b6000612335601583611a21565b9150612340826122ff565b602082019050919050565b6000602082019050818103600083015261236481612328565b9050919050565b600081905092915050565b60008190508160005260206000209050919050565b600081546123988161201a565b6123a2818661236b565b945060018216600081146123bd57600181146123d257612405565b60ff1983168652811515820286019350612405565b6123db85612376565b60005b838110156123fd578154818901526001820191506020810190506123de565b838801955050505b50505092915050565b600061241a828461238b565b915081905092915050565b7f4f6e6c7920746865206d696e74657220616464726573732063616e20646f207460008201527f6869730000000000000000000000000000000000000000000000000000000000602082015250565b6000612481602383611a21565b915061248c82612425565b604082019050919050565b600060208201905081810360008301526124b081612474565b9050919050565b7f4e487b7100000000000000000000000000000000000000000000000000000000600052601160045260246000fd5b60006124f182611ac8565b91506124fc83611ac8565b9250828201905080821115612514576125136124b7565b5b92915050565b60006020601f8301049050919050565b600082821b905092915050565b6000600883026125677fffffffffffffffffffffffffffffffffffffffffffffffffffffffffffffffff8261252a565b612571868361252a565b95508019841693508086168417925050509392505050565b6000819050919050565b60006125ae6125a96125a484611ac8565b612589565b611ac8565b9050919050565b6000819050919050565b6125c883612593565b6125dc6125d4826125b5565b848454612537565b825550505050565b600090565b6125f16125e4565b6125fc8184846125bf565b505050565b5b81811015612620576126156000826125e9565b600181019050612602565b5050565b601f8211156126655761263681612376565b61263f8461251a565b8101602085101561264e578190505b61266261265a8561251a565b830182612601565b50505b505050565b600082821c905092915050565b60006126886000198460080261266a565b1980831691505092915050565b60006126a18383612677565b9150826002028217905092915050565b6126ba82611a16565b67ffffffffffffffff8111156126d3576126d2611d13565b5b6126dd825461201a565b6126e8828285612624565b600060209050601f83116001811461271b5760008415612709578287015190505b6127138582612695565b86555061277b565b601f19841661272986612376565b60005b828110156127515784890151825560018201915060208501945060208101905061272c565b8683101561276e578489015161276a601f891682612677565b8355505b6001600288020188555050505b505050505050565b7f4f776e61626c653a206e6577206f776e657220697320746865207a65726f206160008201527f6464726573730000000000000000000000000000000000000000000000000000602082015250565b60006127df602683611a21565b91506127ea82612783565b604082019050919050565b6000602082019050818103600083015261280e816127d2565b9050919050565b7f4552433732313a207472616e736665722066726f6d20696e636f72726563742060008201527f6f776e6572000000000000000000000000000000000000000000000000000000602082015250565b6000612871602583611a21565b915061287c82612815565b604082019050919050565b600060208201905081810360008301526128a081612864565b9050919050565b7f4552433732313a207472616e7366657220746f20746865207a65726f2061646460008201527f7265737300000000000000000000000000000000000000000000000000000000602082015250565b6000612903602483611a21565b915061290e826128a7565b604082019050919050565b60006020820190508181036000830152612932816128f6565b9050919050565b7f4f776e61626c653a2063616c6c6572206973206e6f7420746865206f776e6572600082015250565b600061296f602083611a21565b915061297a82612939565b602082019050919050565b6000602082019050818103600083015261299e81612962565b9050919050565b7f4552433732313a20617070726f766520746f2063616c6c657200000000000000600082015250565b60006129db601983611a21565b91506129e6826129a5565b602082019050919050565b60006020820190508181036000830152612a0a816129ce565b9050919050565b7f4552433732313a207472616e7366657220746f206e6f6e20455243373231526560008201527f63656976657220696d706c656d656e7465720000000000000000000000000000602082015250565b6000612a6d603283611a21565b9150612a7882612a11565b604082019050919050565b60006020820190508181036000830152612a9c81612a60565b9050919050565b600081519050919050565b600082825260208201905092915050565b6000612aca82612aa3565b612ad48185612aae565b9350612ae4818560208601611a32565b612aed81611a5c565b840191505092915050565b6000608082019050612b0d6000830187611b5d565b612b1a6020830186611b5d565b612b276040830185611c73565b8181036060830152612b398184612abf565b905095945050505050565b600081519050612b5381611987565b92915050565b600060208284031215612b6f57612b6e611951565b5b6000612b7d84828501612b44565b91505092915050565b7f4552433732313a206d696e7420746f20746865207a65726f2061646472657373600082015250565b6000612bbc602083611a21565b9150612bc782612b86565b602082019050919050565b60006020820190508181036000830152612beb81612baf565b9050919050565b7f4552433732313a20746f6b656e20616c7265616479206d696e74656400000000600082015250565b6000612c28601c83611a21565b9150612c3382612bf2565b602082019050919050565b60006020820190508181036000830152612c5781612c1b565b905091905056fea26469706673582212200e0a58db7cf3b565de777dc9705b1baae7a5ced1325d1abf3aa1acfd4dfea72864736f6c63430008120033",
  "linkReferences": {},
  "deployedLinkReferences": {}
}