{
  "_format": "hh-sol-artifact-1",
  "contractName": "VizionCollection",
  "sourceName": "contracts/VizionCollection.sol",
  "abi": [
    {
      "inputs": [],
      "stateMutability": "nonpayable",
      "type": "constructor"
    },
    {
      "anonymous": false,
      "inputs": [
        {
          "indexed": true,
          "internalType": "address",
          "name": "owner",
          "type": "address"
        },
        {
          "indexed": true,
          "internalType": "address",
          "name": "approved",
          "type": "address"
        },
        {
          "indexed": true,
          "internalType": "uint256",
          "name": "tokenId",
          "type": "uint256"
        }
      ],
      "name": "Approval",
      "type": "event"
    },
    {
      "anonymous": false,
      "inputs": [
        {
          "indexed": true,
          "internalType": "address",
          "name": "owner",
          "type": "address"
        },
        {
          "indexed": true,
          "internalType": "address",
          "name": "operator",
          "type": "address"
        },
        {
          "indexed": false,
          "internalType": "bool",
          "name": "approved",
          "type": "bool"
        }
      ],
      "name": "ApprovalForAll",
      "type": "event"
    },
    {
      "anonymous": false,
      "inputs": [
        {
          "indexed": true,
          "internalType": "address",
          "name": "previousOwner",
          "type": "address"
        },
        {
          "indexed": true,
          "internalType": "address",
          "name": "newOwner",
          "type": "address"
        }
      ],
      "name": "OwnershipTransferred",
      "type": "event"
    },
    {
      "anonymous": false,
      "inputs": [
        {
          "indexed": true,
          "internalType": "address",
          "name": "from",
          "type": "address"
        },
        {
          "indexed": true,
          "internalType": "address",
          "name": "to",
          "type": "address"
        },
        {
          "indexed": true,
          "internalType": "uint256",
          "name": "tokenId",
          "type": "uint256"
        }
      ],
      "name": "Transfer",
      "type": "event"
    },
    {
      "inputs": [
        {
          "internalType": "address",
          "name": "to",
          "type": "address"
        },
        {
          "internalType": "uint256",
          "name": "tokenId",
          "type": "uint256"
        }
      ],
      "name": "approve",
      "outputs": [],
      "stateMutability": "nonpayable",
      "type": "function"
    },
    {
      "inputs": [
        {
          "internalType": "address",
          "name": "owner",
          "type": "address"
        }
      ],
      "name": "balanceOf",
      "outputs": [
        {
          "internalType": "uint256",
          "name": "",
          "type": "uint256"
        }
      ],
      "stateMutability": "view",
      "type": "function"
    },
    {
      "inputs": [
        {
          "internalType": "uint256",
          "name": "tokenId",
          "type": "uint256"
        }
      ],
      "name": "getApproved",
      "outputs": [
        {
          "internalType": "address",
          "name": "",
          "type": "address"
        }
      ],
      "stateMutability": "view",
      "type": "function"
    },
    {
      "inputs": [
        {
          "internalType": "address",
          "name": "owner",
          "type": "address"
        },
        {
          "internalType": "address",
          "name": "operator",
          "type": "address"
        }
      ],
      "name": "isApprovedForAll",
      "outputs": [
        {
          "internalType": "bool",
          "name": "",
          "type": "bool"
        }
      ],
      "stateMutability": "view",
      "type": "function"
    },
    {
      "inputs": [
        {
          "internalType": "string",
          "name": "_tokenUri",
          "type": "string"
        }
      ],
      "name": "mint",
      "outputs": [],
      "stateMutability": "nonpayable",
      "type": "function"
    },
    {
      "inputs": [],
      "name": "name",
      "outputs": [
        {
          "internalType": "string",
          "name": "",
          "type": "string"
        }
      ],
      "stateMutability": "view",
      "type": "function"
    },
    {
      "inputs": [],
      "name": "owner",
      "outputs": [
        {
          "internalType": "address",
          "name": "",
          "type": "address"
        }
      ],
      "stateMutability": "view",
      "type": "function"
    },
    {
      "inputs": [
        {
          "internalType": "uint256",
          "name": "tokenId",
          "type": "uint256"
        }
      ],
      "name": "ownerOf",
      "outputs": [
        {
          "internalType": "address",
          "name": "",
          "type": "address"
        }
      ],
      "stateMutability": "view",
      "type": "function"
    },
    {
      "inputs": [],
      "name": "renounceOwnership",
      "outputs": [],
      "stateMutability": "nonpayable",
      "type": "function"
    },
    {
      "inputs": [],
      "name": "s_minter",
      "outputs": [
        {
          "internalType": "address",
          "name": "",
          "type": "address"
        }
      ],
      "stateMutability": "view",
      "type": "function"
    },
    {
      "inputs": [
        {
          "internalType": "address",
          "name": "from",
          "type": "address"
        },
        {
          "internalType": "address",
          "name": "to",
          "type": "address"
        },
        {
          "internalType": "uint256",
          "name": "tokenId",
          "type": "uint256"
        }
      ],
      "name": "safeTransferFrom",
      "outputs": [],
      "stateMutability": "nonpayable",
      "type": "function"
    },
    {
      "inputs": [
        {
          "internalType": "address",
          "name": "from",
          "type": "address"
        },
        {
          "internalType": "address",
          "name": "to",
          "type": "address"
        },
        {
          "internalType": "uint256",
          "name": "tokenId",
          "type": "uint256"
        },
        {
          "internalType": "bytes",
          "name": "data",
          "type": "bytes"
        }
      ],
      "name": "safeTransferFrom",
      "outputs": [],
      "stateMutability": "nonpayable",
      "type": "function"
    },
    {
      "inputs": [
        {
          "internalType": "address",
          "name": "operator",
          "type": "address"
        },
        {
          "internalType": "bool",
          "name": "approved",
          "type": "bool"
        }
      ],
      "name": "setApprovalForAll",
      "outputs": [],
      "stateMutability": "nonpayable",
      "type": "function"
    },
    {
      "inputs": [
        {
          "internalType": "address",
          "name": "_minter",
          "type": "address"
        }
      ],
      "name": "setMinter",
      "outputs": [],
      "stateMutability": "nonpayable",
      "type": "function"
    },
    {
      "inputs": [
        {
          "internalType": "bytes4",
          "name": "interfaceId",
          "type": "bytes4"
        }
      ],
      "name": "supportsInterface",
      "outputs": [
        {
          "internalType": "bool",
          "name": "",
          "type": "bool"
        }
      ],
      "stateMutability": "view",
      "type": "function"
    },
    {
      "inputs": [],
      "name": "symbol",
      "outputs": [
        {
          "internalType": "string",
          "name": "",
          "type": "string"
        }
      ],
      "stateMutability": "view",
      "type": "function"
    },
    {
      "inputs": [
        {
          "internalType": "uint256",
          "name": "_tokenId",
          "type": "uint256"
        }
      ],
      "name": "tokenURI",
      "outputs": [
        {
          "internalType": "string",
          "name": "",
          "type": "string"
        }
      ],
      "stateMutability": "view",
      "type": "function"
    },
    {
      "inputs": [
        {
          "internalType": "address",
          "name": "from",
          "type": "address"
        },
        {
          "internalType": "address",
          "name": "to",
          "type": "address"
        },
        {
          "internalType": "uint256",
          "name": "tokenId",
          "type": "uint256"
        }
      ],
      "name": "transferFrom",
      "outputs": [],
      "stateMutability": "nonpayable",
      "type": "function"
    },
    {
      "inputs": [
        {
          "internalType": "address",
          "name": "newOwner",
          "type": "address"
        }
      ],
      "name": "transferOwnership",
      "outputs": [],
      "stateMutability": "nonpayable",
      "type": "function"
    }
  ],
  "bytecode": "0x60806040523480156200001157600080fd5b506040518060400160405280601081526020017f56697a696f6e436f6c6c656374696f6e000000000000000000000000000000008152506040518060400160405280600681526020017f56495a4e4654000000000000000000000000000000000000000000000000000081525081600090816200008f9190620004b2565b508060019081620000a19190620004b2565b505050620000c4620000b86200016760201b60201c565b6200016f60201b60201c565b620000e0678aaf53775ff9b18160c01b6200023560201b60201c565b620000fc67dbd699f46f24875960c01b6200023560201b60201c565b33600760006101000a81548173ffffffffffffffffffffffffffffffffffffffff021916908373ffffffffffffffffffffffffffffffffffffffff1602179055506200015967829c30495f1e74ea60c01b6200023560201b60201c565b600060088190555062000599565b600033905090565b6000600660009054906101000a900473ffffffffffffffffffffffffffffffffffffffff16905081600660006101000a81548173ffffffffffffffffffffffffffffffffffffffff021916908373ffffffffffffffffffffffffffffffffffffffff1602179055508173ffffffffffffffffffffffffffffffffffffffff168173ffffffffffffffffffffffffffffffffffffffff167f8be0079c531659141344cd1fd0a4f28419497f9722a3daafe3b4186f6b6457e060405160405180910390a35050565b50565b600081519050919050565b7f4e487b7100000000000000000000000000000000000000000000000000000000600052604160045260246000fd5b7f4e487b7100000000000000000000000000000000000000000000000000000000600052602260045260246000fd5b60006002820490506001821680620002ba57607f821691505b602082108103620002d057620002cf62000272565b5b50919050565b60008190508160005260206000209050919050565b60006020601f8301049050919050565b600082821b905092915050565b6000600883026200033a7fffffffffffffffffffffffffffffffffffffffffffffffffffffffffffffffff82620002fb565b620003468683620002fb565b95508019841693508086168417925050509392505050565b6000819050919050565b6000819050919050565b6000620003936200038d62000387846200035e565b62000368565b6200035e565b9050919050565b6000819050919050565b620003af8362000372565b620003c7620003be826200039a565b84845462000308565b825550505050565b600090565b620003de620003cf565b620003eb818484620003a4565b505050565b5b81811015620004135762000407600082620003d4565b600181019050620003f1565b5050565b601f82111562000462576200042c81620002d6565b6200043784620002eb565b8101602085101562000447578190505b6200045f6200045685620002eb565b830182620003f0565b50505b505050565b600082821c905092915050565b6000620004876000198460080262000467565b1980831691505092915050565b6000620004a2838362000474565b9150826002028217905092915050565b620004bd8262000238565b67ffffffffffffffff811115620004d957620004d862000243565b5b620004e58254620002a1565b620004f282828562000417565b600060209050601f8311600181146200052a576000841562000515578287015190505b62000521858262000494565b86555062000591565b601f1984166200053a86620002d6565b60005b8281101562000564578489015182556001820191506020850194506020810190506200053d565b8683101562000584578489015162000580601f89168262000474565b8355505b6001600288020188555050505b505050505050565b612e7780620005a96000396000f3fe608060405234801561001057600080fd5b50600436106101215760003560e01c80638da5cb5b116100ad578063d3cfee8b11610071578063d3cfee8b14610306578063d85d3d2714610324578063e985e9c514610340578063f2fde38b14610370578063fca3b5aa1461038c57610121565b80638da5cb5b1461026257806395d89b4114610280578063a22cb4651461029e578063b88d4fde146102ba578063c87b56dd146102d657610121565b806323b872dd116100f457806323b872dd146101c057806342842e0e146101dc5780636352211e146101f857806370a0823114610228578063715018a61461025857610121565b806301ffc9a71461012657806306fdde0314610156578063081812fc14610174578063095ea7b3146101a4575b600080fd5b610140600480360381019061013b9190611b96565b6103a8565b60405161014d9190611bde565b60405180910390f35b61015e61048a565b60405161016b9190611c89565b60405180910390f35b61018e60048036038101906101899190611ce1565b61051c565b60405161019b9190611d4f565b60405180910390f35b6101be60048036038101906101b99190611d96565b610562565b005b6101da60048036038101906101d59190611dd6565b610679565b005b6101f660048036038101906101f19190611dd6565b6106d9565b005b610212600480360381019061020d9190611ce1565b6106f9565b60405161021f9190611d4f565b60405180910390f35b610242600480360381019061023d9190611e29565b61077f565b60405161024f9190611e65565b60405180910390f35b610260610836565b005b61026a61084a565b6040516102779190611d4f565b60405180910390f35b610288610874565b6040516102959190611c89565b60405180910390f35b6102b860048036038101906102b39190611eac565b610906565b005b6102d460048036038101906102cf9190612021565b61091c565b005b6102f060048036038101906102eb9190611ce1565b61097e565b6040516102fd9190611c89565b60405180910390f35b61030e610a8d565b60405161031b9190611d4f565b60405180910390f35b61033e60048036038101906103399190612145565b610ab3565b005b61035a6004803603810190610355919061218e565b610c9a565b6040516103679190611bde565b60405180910390f35b61038a60048036038101906103859190611e29565b610d2e565b005b6103a660048036038101906103a19190611e29565b610db1565b005b60007f80ac58cd000000000000000000000000000000000000000000000000000000007bffffffffffffffffffffffffffffffffffffffffffffffffffffffff1916827bffffffffffffffffffffffffffffffffffffffffffffffffffffffff1916148061047357507f5b5e139f000000000000000000000000000000000000000000000000000000007bffffffffffffffffffffffffffffffffffffffffffffffffffffffff1916827bffffffffffffffffffffffffffffffffffffffffffffffffffffffff1916145b80610483575061048282610e4d565b5b9050919050565b606060008054610499906121fd565b80601f01602080910402602001604051908101604052809291908181526020018280546104c5906121fd565b80156105125780601f106104e757610100808354040283529160200191610512565b820191906000526020600020905b8154815290600101906020018083116104f557829003601f168201915b5050505050905090565b600061052782610eb7565b6004600083815260200190815260200160002060009054906101000a900473ffffffffffffffffffffffffffffffffffffffff169050919050565b600061056d826106f9565b90508073ffffffffffffffffffffffffffffffffffffffff168373ffffffffffffffffffffffffffffffffffffffff16036105dd576040517f08c379a00000000000000000000000000000000000000000000000000000000081526004016105d4906122a0565b60405180910390fd5b8073ffffffffffffffffffffffffffffffffffffffff166105fc610f02565b73ffffffffffffffffffffffffffffffffffffffff16148061062b575061062a81610625610f02565b610c9a565b5b61066a576040517f08c379a000000000000000000000000000000000000000000000000000000000815260040161066190612332565b60405180910390fd5b6106748383610f0a565b505050565b61068a610684610f02565b82610fc3565b6106c9576040517f08c379a00000000000000000000000000000000000000000000000000000000081526004016106c0906123c4565b60405180910390fd5b6106d4838383611058565b505050565b6106f48383836040518060200160405280600081525061091c565b505050565b60008061070583611351565b9050600073ffffffffffffffffffffffffffffffffffffffff168173ffffffffffffffffffffffffffffffffffffffff1603610776576040517f08c379a000000000000000000000000000000000000000000000000000000000815260040161076d90612430565b60405180910390fd5b80915050919050565b60008073ffffffffffffffffffffffffffffffffffffffff168273ffffffffffffffffffffffffffffffffffffffff16036107ef576040517f08c379a00000000000000000000000000000000000000000000000000000000081526004016107e6906124c2565b60405180910390fd5b600360008373ffffffffffffffffffffffffffffffffffffffff1673ffffffffffffffffffffffffffffffffffffffff168152602001908152602001600020549050919050565b61083e61138e565b610848600061140c565b565b6000600660009054906101000a900473ffffffffffffffffffffffffffffffffffffffff16905090565b606060018054610883906121fd565b80601f01602080910402602001604051908101604052809291908181526020018280546108af906121fd565b80156108fc5780601f106108d1576101008083540402835291602001916108fc565b820191906000526020600020905b8154815290600101906020018083116108df57829003601f168201915b5050505050905090565b610918610911610f02565b83836114d2565b5050565b61092d610927610f02565b83610fc3565b61096c576040517f08c379a0000000000000000000000000000000000000000000000000000000008152600401610963906123c4565b60405180910390fd5b6109788484848461163e565b50505050565b60606109946714f97e7fafa3906a60c01b61169a565b6109a86758d4c4bf6aca157760c01b61169a565b6109bc67700421ca125dc17f60c01b61169a565b6109d0674f519b2b17f4abca60c01b61169a565b6109d98261169d565b610a18576040517f08c379a0000000000000000000000000000000000000000000000000000000008152600401610a0f9061252e565b60405180910390fd5b610a2c67fab1b3a9493d900760c01b61169a565b610a4067cfa98d205ce0145360c01b61169a565b610a54671add0d2ca4bc687f60c01b61169a565b60096000838152602001908152602001600020604051602001610a7791906125f1565b6040516020818303038152906040529050919050565b600760009054906101000a900473ffffffffffffffffffffffffffffffffffffffff1681565b610ac76769451e8b33e6cd9b60c01b61169a565b610adb67790d0abb1f11402460c01b61169a565b610aef6763e37dc3b8928a5e60c01b61169a565b610b0367541542af9dc78ecd60c01b61169a565b610b1767387fa2afd26f3b4060c01b61169a565b600760009054906101000a900473ffffffffffffffffffffffffffffffffffffffff1673ffffffffffffffffffffffffffffffffffffffff163373ffffffffffffffffffffffffffffffffffffffff1614610ba7576040517f08c379a0000000000000000000000000000000000000000000000000000000008152600401610b9e9061267a565b60405180910390fd5b610bbb67adecbc1318e5ea9360c01b61169a565b610bcf678b4ab7d51aa9ae6360c01b61169a565b610be367560b3e73366aea0c60c01b61169a565b610bf767b8e19986c79362e060c01b61169a565b610c0b676a97e57842a3687a60c01b61169a565b600160086000828254610c1e91906126c9565b92505081905550610c396791dcb69e95b8b3d460c01b61169a565b806009600060085481526020019081526020016000209081610c5b9190612894565b50610c70672f3dcbe5a3dd812a60c01b61169a565b610c846763f25efd973f278e60c01b61169a565b610c97610c8f61084a565b6008546116de565b50565b6000600560008473ffffffffffffffffffffffffffffffffffffffff1673ffffffffffffffffffffffffffffffffffffffff16815260200190815260200160002060008373ffffffffffffffffffffffffffffffffffffffff1673ffffffffffffffffffffffffffffffffffffffff16815260200190815260200160002060009054906101000a900460ff16905092915050565b610d3661138e565b600073ffffffffffffffffffffffffffffffffffffffff168173ffffffffffffffffffffffffffffffffffffffff1603610da5576040517f08c379a0000000000000000000000000000000000000000000000000000000008152600401610d9c906129d8565b60405180910390fd5b610dae8161140c565b50565b610dc5676c3f4a88c68250ae60c01b61169a565b610dcd61138e565b610de167282c15bef9c3d8be60c01b61169a565b610df567454ae9db2a062a5360c01b61169a565b610e09671c9b83e9c93b629360c01b61169a565b80600760006101000a81548173ffffffffffffffffffffffffffffffffffffffff021916908373ffffffffffffffffffffffffffffffffffffffff16021790555050565b60007f01ffc9a7000000000000000000000000000000000000000000000000000000007bffffffffffffffffffffffffffffffffffffffffffffffffffffffff1916827bffffffffffffffffffffffffffffffffffffffffffffffffffffffff1916149050919050565b610ec08161169d565b610eff576040517f08c379a0000000000000000000000000000000000000000000000000000000008152600401610ef690612430565b60405180910390fd5b50565b600033905090565b816004600083815260200190815260200160002060006101000a81548173ffffffffffffffffffffffffffffffffffffffff021916908373ffffffffffffffffffffffffffffffffffffffff160217905550808273ffffffffffffffffffffffffffffffffffffffff16610f7d836106f9565b73ffffffffffffffffffffffffffffffffffffffff167f8c5be1e5ebec7d5bd14f71427d1e84f3dd0314c0f7b2291e5b200ac8c7c3b92560405160405180910390a45050565b600080610fcf836106f9565b90508073ffffffffffffffffffffffffffffffffffffffff168473ffffffffffffffffffffffffffffffffffffffff16148061101157506110108185610c9a565b5b8061104f57508373ffffffffffffffffffffffffffffffffffffffff166110378461051c565b73ffffffffffffffffffffffffffffffffffffffff16145b91505092915050565b8273ffffffffffffffffffffffffffffffffffffffff16611078826106f9565b73ffffffffffffffffffffffffffffffffffffffff16146110ce576040517f08c379a00000000000000000000000000000000000000000000000000000000081526004016110c590612a6a565b60405180910390fd5b600073ffffffffffffffffffffffffffffffffffffffff168273ffffffffffffffffffffffffffffffffffffffff160361113d576040517f08c379a000000000000000000000000000000000000000000000000000000000815260040161113490612afc565b60405180910390fd5b61114a83838360016116fc565b8273ffffffffffffffffffffffffffffffffffffffff1661116a826106f9565b73ffffffffffffffffffffffffffffffffffffffff16146111c0576040517f08c379a00000000000000000000000000000000000000000000000000000000081526004016111b790612a6a565b60405180910390fd5b6004600082815260200190815260200160002060006101000a81549073ffffffffffffffffffffffffffffffffffffffff02191690556001600360008573ffffffffffffffffffffffffffffffffffffffff1673ffffffffffffffffffffffffffffffffffffffff168152602001908152602001600020600082825403925050819055506001600360008473ffffffffffffffffffffffffffffffffffffffff1673ffffffffffffffffffffffffffffffffffffffff16815260200190815260200160002060008282540192505081905550816002600083815260200190815260200160002060006101000a81548173ffffffffffffffffffffffffffffffffffffffff021916908373ffffffffffffffffffffffffffffffffffffffff160217905550808273ffffffffffffffffffffffffffffffffffffffff168473ffffffffffffffffffffffffffffffffffffffff167fddf252ad1be2c89b69c2b068fc378daa952ba7f163c4a11628f55a4df523b3ef60405160405180910390a461134c8383836001611702565b505050565b60006002600083815260200190815260200160002060009054906101000a900473ffffffffffffffffffffffffffffffffffffffff169050919050565b611396610f02565b73ffffffffffffffffffffffffffffffffffffffff166113b461084a565b73ffffffffffffffffffffffffffffffffffffffff161461140a576040517f08c379a000000000000000000000000000000000000000000000000000000000815260040161140190612b68565b60405180910390fd5b565b6000600660009054906101000a900473ffffffffffffffffffffffffffffffffffffffff16905081600660006101000a81548173ffffffffffffffffffffffffffffffffffffffff021916908373ffffffffffffffffffffffffffffffffffffffff1602179055508173ffffffffffffffffffffffffffffffffffffffff168173ffffffffffffffffffffffffffffffffffffffff167f8be0079c531659141344cd1fd0a4f28419497f9722a3daafe3b4186f6b6457e060405160405180910390a35050565b8173ffffffffffffffffffffffffffffffffffffffff168373ffffffffffffffffffffffffffffffffffffffff1603611540576040517f08c379a000000000000000000000000000000000000000000000000000000000815260040161153790612bd4565b60405180910390fd5b80600560008573ffffffffffffffffffffffffffffffffffffffff1673ffffffffffffffffffffffffffffffffffffffff16815260200190815260200160002060008473ffffffffffffffffffffffffffffffffffffffff1673ffffffffffffffffffffffffffffffffffffffff16815260200190815260200160002060006101000a81548160ff0219169083151502179055508173ffffffffffffffffffffffffffffffffffffffff168373ffffffffffffffffffffffffffffffffffffffff167f17307eab39ab6107e8899845ad3d59bd9653f200f220920489ca2b5937696c31836040516116319190611bde565b60405180910390a3505050565b611649848484611058565b61165584848484611708565b611694576040517f08c379a000000000000000000000000000000000000000000000000000000000815260040161168b90612c66565b60405180910390fd5b50505050565b50565b60008073ffffffffffffffffffffffffffffffffffffffff166116bf83611351565b73ffffffffffffffffffffffffffffffffffffffff1614159050919050565b6116f882826040518060200160405280600081525061188f565b5050565b50505050565b50505050565b60006117298473ffffffffffffffffffffffffffffffffffffffff166118ea565b15611882578373ffffffffffffffffffffffffffffffffffffffff1663150b7a02611752610f02565b8786866040518563ffffffff1660e01b81526004016117749493929190612cdb565b6020604051808303816000875af19250505080156117b057506040513d601f19601f820116820180604052508101906117ad9190612d3c565b60015b611832573d80600081146117e0576040519150601f19603f3d011682016040523d82523d6000602084013e6117e5565b606091505b50600081510361182a576040517f08c379a000000000000000000000000000000000000000000000000000000000815260040161182190612c66565b60405180910390fd5b805181602001fd5b63150b7a0260e01b7bffffffffffffffffffffffffffffffffffffffffffffffffffffffff1916817bffffffffffffffffffffffffffffffffffffffffffffffffffffffff191614915050611887565b600190505b949350505050565b611899838361190d565b6118a66000848484611708565b6118e5576040517f08c379a00000000000000000000000000000000000000000000000000000000081526004016118dc90612c66565b60405180910390fd5b505050565b6000808273ffffffffffffffffffffffffffffffffffffffff163b119050919050565b600073ffffffffffffffffffffffffffffffffffffffff168273ffffffffffffffffffffffffffffffffffffffff160361197c576040517f08c379a000000000000000000000000000000000000000000000000000000000815260040161197390612db5565b60405180910390fd5b6119858161169d565b156119c5576040517f08c379a00000000000000000000000000000000000000000000000000000000081526004016119bc90612e21565b60405180910390fd5b6119d36000838360016116fc565b6119dc8161169d565b15611a1c576040517f08c379a0000000000000000000000000000000000000000000000000000000008152600401611a1390612e21565b60405180910390fd5b6001600360008473ffffffffffffffffffffffffffffffffffffffff1673ffffffffffffffffffffffffffffffffffffffff16815260200190815260200160002060008282540192505081905550816002600083815260200190815260200160002060006101000a81548173ffffffffffffffffffffffffffffffffffffffff021916908373ffffffffffffffffffffffffffffffffffffffff160217905550808273ffffffffffffffffffffffffffffffffffffffff16600073ffffffffffffffffffffffffffffffffffffffff167fddf252ad1be2c89b69c2b068fc378daa952ba7f163c4a11628f55a4df523b3ef60405160405180910390a4611b26600083836001611702565b5050565b6000604051905090565b600080fd5b600080fd5b60007fffffffff0000000000000000000000000000000000000000000000000000000082169050919050565b611b7381611b3e565b8114611b7e57600080fd5b50565b600081359050611b9081611b6a565b92915050565b600060208284031215611bac57611bab611b34565b5b6000611bba84828501611b81565b91505092915050565b60008115159050919050565b611bd881611bc3565b82525050565b6000602082019050611bf36000830184611bcf565b92915050565b600081519050919050565b600082825260208201905092915050565b60005b83811015611c33578082015181840152602081019050611c18565b60008484015250505050565b6000601f19601f8301169050919050565b6000611c5b82611bf9565b611c658185611c04565b9350611c75818560208601611c15565b611c7e81611c3f565b840191505092915050565b60006020820190508181036000830152611ca38184611c50565b905092915050565b6000819050919050565b611cbe81611cab565b8114611cc957600080fd5b50565b600081359050611cdb81611cb5565b92915050565b600060208284031215611cf757611cf6611b34565b5b6000611d0584828501611ccc565b91505092915050565b600073ffffffffffffffffffffffffffffffffffffffff82169050919050565b6000611d3982611d0e565b9050919050565b611d4981611d2e565b82525050565b6000602082019050611d646000830184611d40565b92915050565b611d7381611d2e565b8114611d7e57600080fd5b50565b600081359050611d9081611d6a565b92915050565b60008060408385031215611dad57611dac611b34565b5b6000611dbb85828601611d81565b9250506020611dcc85828601611ccc565b9150509250929050565b600080600060608486031215611def57611dee611b34565b5b6000611dfd86828701611d81565b9350506020611e0e86828701611d81565b9250506040611e1f86828701611ccc565b9150509250925092565b600060208284031215611e3f57611e3e611b34565b5b6000611e4d84828501611d81565b91505092915050565b611e5f81611cab565b82525050565b6000602082019050611e7a6000830184611e56565b92915050565b611e8981611bc3565b8114611e9457600080fd5b50565b600081359050611ea681611e80565b92915050565b60008060408385031215611ec357611ec2611b34565b5b6000611ed185828601611d81565b9250506020611ee285828601611e97565b9150509250929050565b600080fd5b600080fd5b7f4e487b7100000000000000000000000000000000000000000000000000000000600052604160045260246000fd5b611f2e82611c3f565b810181811067ffffffffffffffff82111715611f4d57611f4c611ef6565b5b80604052505050565b6000611f60611b2a565b9050611f6c8282611f25565b919050565b600067ffffffffffffffff821115611f8c57611f8b611ef6565b5b611f9582611c3f565b9050602081019050919050565b82818337600083830152505050565b6000611fc4611fbf84611f71565b611f56565b905082815260208101848484011115611fe057611fdf611ef1565b5b611feb848285611fa2565b509392505050565b600082601f83011261200857612007611eec565b5b8135612018848260208601611fb1565b91505092915050565b6000806000806080858703121561203b5761203a611b34565b5b600061204987828801611d81565b945050602061205a87828801611d81565b935050604061206b87828801611ccc565b925050606085013567ffffffffffffffff81111561208c5761208b611b39565b5b61209887828801611ff3565b91505092959194509250565b600067ffffffffffffffff8211156120bf576120be611ef6565b5b6120c882611c3f565b9050602081019050919050565b60006120e86120e3846120a4565b611f56565b90508281526020810184848401111561210457612103611ef1565b5b61210f848285611fa2565b509392505050565b600082601f83011261212c5761212b611eec565b5b813561213c8482602086016120d5565b91505092915050565b60006020828403121561215b5761215a611b34565b5b600082013567ffffffffffffffff81111561217957612178611b39565b5b61218584828501612117565b91505092915050565b600080604083850312156121a5576121a4611b34565b5b60006121b385828601611d81565b92505060206121c485828601611d81565b9150509250929050565b7f4e487b7100000000000000000000000000000000000000000000000000000000600052602260045260246000fd5b6000600282049050600182168061221557607f821691505b602082108103612228576122276121ce565b5b50919050565b7f4552433732313a20617070726f76616c20746f2063757272656e74206f776e6560008201527f7200000000000000000000000000000000000000000000000000000000000000602082015250565b600061228a602183611c04565b91506122958261222e565b604082019050919050565b600060208201905081810360008301526122b98161227d565b9050919050565b7f4552433732313a20617070726f76652063616c6c6572206973206e6f7420746f60008201527f6b656e206f776e6572206f7220617070726f76656420666f7220616c6c000000602082015250565b600061231c603d83611c04565b9150612327826122c0565b604082019050919050565b6000602082019050818103600083015261234b8161230f565b9050919050565b7f4552433732313a2063616c6c6572206973206e6f7420746f6b656e206f776e6560008201527f72206f7220617070726f76656400000000000000000000000000000000000000602082015250565b60006123ae602d83611c04565b91506123b982612352565b604082019050919050565b600060208201905081810360008301526123dd816123a1565b9050919050565b7f4552433732313a20696e76616c696420746f6b656e2049440000000000000000600082015250565b600061241a601883611c04565b9150612425826123e4565b602082019050919050565b600060208201905081810360008301526124498161240d565b9050919050565b7f4552433732313a2061646472657373207a65726f206973206e6f74206120766160008201527f6c6964206f776e65720000000000000000000000000000000000000000000000602082015250565b60006124ac602983611c04565b91506124b782612450565b604082019050919050565b600060208201905081810360008301526124db8161249f565b9050919050565b7f546f6b656e20646f6573206e6f74206578697374210000000000000000000000600082015250565b6000612518601583611c04565b9150612523826124e2565b602082019050919050565b600060208201905081810360008301526125478161250b565b9050919050565b600081905092915050565b60008190508160005260206000209050919050565b6000815461257b816121fd565b612585818661254e565b945060018216600081146125a057600181146125b5576125e8565b60ff19831686528115158202860193506125e8565b6125be85612559565b60005b838110156125e0578154818901526001820191506020810190506125c1565b838801955050505b50505092915050565b60006125fd828461256e565b915081905092915050565b7f4f6e6c7920746865206d696e74657220616464726573732063616e20646f207460008201527f6869730000000000000000000000000000000000000000000000000000000000602082015250565b6000612664602383611c04565b915061266f82612608565b604082019050919050565b6000602082019050818103600083015261269381612657565b9050919050565b7f4e487b7100000000000000000000000000000000000000000000000000000000600052601160045260246000fd5b60006126d482611cab565b91506126df83611cab565b92508282019050808211156126f7576126f661269a565b5b92915050565b60006020601f8301049050919050565b600082821b905092915050565b60006008830261274a7fffffffffffffffffffffffffffffffffffffffffffffffffffffffffffffffff8261270d565b612754868361270d565b95508019841693508086168417925050509392505050565b6000819050919050565b600061279161278c61278784611cab565b61276c565b611cab565b9050919050565b6000819050919050565b6127ab83612776565b6127bf6127b782612798565b84845461271a565b825550505050565b600090565b6127d46127c7565b6127df8184846127a2565b505050565b5b81811015612803576127f86000826127cc565b6001810190506127e5565b5050565b601f8211156128485761281981612559565b612822846126fd565b81016020851015612831578190505b61284561283d856126fd565b8301826127e4565b50505b505050565b600082821c905092915050565b600061286b6000198460080261284d565b1980831691505092915050565b6000612884838361285a565b9150826002028217905092915050565b61289d82611bf9565b67ffffffffffffffff8111156128b6576128b5611ef6565b5b6128c082546121fd565b6128cb828285612807565b600060209050601f8311600181146128fe57600084156128ec578287015190505b6128f68582612878565b86555061295e565b601f19841661290c86612559565b60005b828110156129345784890151825560018201915060208501945060208101905061290f565b86831015612951578489015161294d601f89168261285a565b8355505b6001600288020188555050505b505050505050565b7f4f776e61626c653a206e6577206f776e657220697320746865207a65726f206160008201527f6464726573730000000000000000000000000000000000000000000000000000602082015250565b60006129c2602683611c04565b91506129cd82612966565b604082019050919050565b600060208201905081810360008301526129f1816129b5565b9050919050565b7f4552433732313a207472616e736665722066726f6d20696e636f72726563742060008201527f6f776e6572000000000000000000000000000000000000000000000000000000602082015250565b6000612a54602583611c04565b9150612a5f826129f8565b604082019050919050565b60006020820190508181036000830152612a8381612a47565b9050919050565b7f4552433732313a207472616e7366657220746f20746865207a65726f2061646460008201527f7265737300000000000000000000000000000000000000000000000000000000602082015250565b6000612ae6602483611c04565b9150612af182612a8a565b604082019050919050565b60006020820190508181036000830152612b1581612ad9565b9050919050565b7f4f776e61626c653a2063616c6c6572206973206e6f7420746865206f776e6572600082015250565b6000612b52602083611c04565b9150612b5d82612b1c565b602082019050919050565b60006020820190508181036000830152612b8181612b45565b9050919050565b7f4552433732313a20617070726f766520746f2063616c6c657200000000000000600082015250565b6000612bbe601983611c04565b9150612bc982612b88565b602082019050919050565b60006020820190508181036000830152612bed81612bb1565b9050919050565b7f4552433732313a207472616e7366657220746f206e6f6e20455243373231526560008201527f63656976657220696d706c656d656e7465720000000000000000000000000000602082015250565b6000612c50603283611c04565b9150612c5b82612bf4565b604082019050919050565b60006020820190508181036000830152612c7f81612c43565b9050919050565b600081519050919050565b600082825260208201905092915050565b6000612cad82612c86565b612cb78185612c91565b9350612cc7818560208601611c15565b612cd081611c3f565b840191505092915050565b6000608082019050612cf06000830187611d40565b612cfd6020830186611d40565b612d0a6040830185611e56565b8181036060830152612d1c8184612ca2565b905095945050505050565b600081519050612d3681611b6a565b92915050565b600060208284031215612d5257612d51611b34565b5b6000612d6084828501612d27565b91505092915050565b7f4552433732313a206d696e7420746f20746865207a65726f2061646472657373600082015250565b6000612d9f602083611c04565b9150612daa82612d69565b602082019050919050565b60006020820190508181036000830152612dce81612d92565b9050919050565b7f4552433732313a20746f6b656e20616c7265616479206d696e74656400000000600082015250565b6000612e0b601c83611c04565b9150612e1682612dd5565b602082019050919050565b60006020820190508181036000830152612e3a81612dfe565b905091905056fea2646970667358221220598780991428169c723a3b1fe445ad2829a1b753c1e556ab742f3121cc45fabe64736f6c63430008120033",
  "linkReferences": {},
  "deployedLinkReferences": {}
}