{
  "_format": "hh-sol-artifact-1",
  "contractName": "VizionGouvernance",
  "sourceName": "contracts/VizionGouvernance.sol",
  "abi": [
    {
      "inputs": [
        {
          "internalType": "contract VizionCollection",
          "name": "_collection",
          "type": "address"
        },
        {
          "internalType": "string",
          "name": "_tokenUri",
          "type": "string"
        },
        {
          "internalType": "string",
          "name": "_proposalUri",
          "type": "string"
        }
      ],
      "stateMutability": "nonpayable",
      "type": "constructor"
    },
    {
      "anonymous": false,
      "inputs": [
        {
          "indexed": false,
          "internalType": "address",
          "name": "author",
          "type": "address"
        },
        {
          "indexed": false,
          "internalType": "uint256",
          "name": "tokenId",
          "type": "uint256"
        },
        {
          "indexed": false,
          "internalType": "uint256",
          "name": "proposalId",
          "type": "uint256"
        },
        {
          "indexed": false,
          "internalType": "string",
          "name": "uri",
          "type": "string"
        }
      ],
      "name": "ProposalAdded",
      "type": "event"
    },
    {
      "anonymous": false,
      "inputs": [
        {
          "indexed": false,
          "internalType": "address",
          "name": "voter",
          "type": "address"
        },
        {
          "indexed": false,
          "internalType": "uint256",
          "name": "tokenId",
          "type": "uint256"
        },
        {
          "indexed": false,
          "internalType": "uint256",
          "name": "proposalId",
          "type": "uint256"
        }
      ],
      "name": "Voted",
      "type": "event"
    },
    {
      "inputs": [
        {
          "internalType": "string",
          "name": "_tokenUri",
          "type": "string"
        },
        {
          "internalType": "string",
          "name": "_proposalUri",
          "type": "string"
        }
      ],
      "name": "addProposal",
      "outputs": [],
      "stateMutability": "nonpayable",
      "type": "function"
    },
    {
      "inputs": [],
      "name": "getBlockLeft",
      "outputs": [
        {
          "internalType": "uint256",
          "name": "blockLeft",
          "type": "uint256"
        }
      ],
      "stateMutability": "view",
      "type": "function"
    },
    {
      "inputs": [],
      "name": "getWorkflowStatus",
      "outputs": [
        {
          "internalType": "enum VizionGouvernance.WorkflowStatus",
          "name": "status",
          "type": "uint8"
        }
      ],
      "stateMutability": "view",
      "type": "function"
    },
    {
      "inputs": [],
      "name": "s_creationPeriod",
      "outputs": [
        {
          "internalType": "uint256",
          "name": "",
          "type": "uint256"
        }
      ],
      "stateMutability": "view",
      "type": "function"
    },
    {
      "inputs": [],
      "name": "s_currentWinningProposalId",
      "outputs": [
        {
          "internalType": "uint256",
          "name": "",
          "type": "uint256"
        }
      ],
      "stateMutability": "view",
      "type": "function"
    },
    {
      "inputs": [],
      "name": "s_lastRefBlock",
      "outputs": [
        {
          "internalType": "uint256",
          "name": "",
          "type": "uint256"
        }
      ],
      "stateMutability": "view",
      "type": "function"
    },
    {
      "inputs": [],
      "name": "s_proposalIds",
      "outputs": [
        {
          "internalType": "uint256",
          "name": "",
          "type": "uint256"
        }
      ],
      "stateMutability": "view",
      "type": "function"
    },
    {
      "inputs": [
        {
          "internalType": "uint256",
          "name": "",
          "type": "uint256"
        },
        {
          "internalType": "uint256",
          "name": "",
          "type": "uint256"
        }
      ],
      "name": "s_proposals",
      "outputs": [
        {
          "internalType": "string",
          "name": "proposalUri",
          "type": "string"
        },
        {
          "internalType": "string",
          "name": "tokenUri",
          "type": "string"
        },
        {
          "internalType": "uint256",
          "name": "voteCount",
          "type": "uint256"
        }
      ],
      "stateMutability": "view",
      "type": "function"
    },
    {
      "inputs": [],
      "name": "s_tokenIds",
      "outputs": [
        {
          "internalType": "uint256",
          "name": "",
          "type": "uint256"
        }
      ],
      "stateMutability": "view",
      "type": "function"
    },
    {
      "inputs": [],
      "name": "s_votingPeriod",
      "outputs": [
        {
          "internalType": "uint256",
          "name": "",
          "type": "uint256"
        }
      ],
      "stateMutability": "view",
      "type": "function"
    },
    {
      "inputs": [
        {
          "internalType": "uint256",
          "name": "_period",
          "type": "uint256"
        }
      ],
      "name": "setChallengePeriod",
      "outputs": [],
      "stateMutability": "nonpayable",
      "type": "function"
    },
    {
      "inputs": [
        {
          "internalType": "uint256",
          "name": "_period",
          "type": "uint256"
        }
      ],
      "name": "setVotingPeriod",
      "outputs": [],
      "stateMutability": "nonpayable",
      "type": "function"
    },
    {
      "inputs": [
        {
          "internalType": "uint256",
          "name": "_proposal",
          "type": "uint256"
        }
      ],
      "name": "vote",
      "outputs": [],
      "stateMutability": "nonpayable",
      "type": "function"
    }
  ],
  "bytecode": "0x60806040523480156200001157600080fd5b5060405162002985380380620029858339818101604052810190620000379190620004de565b620000536784037be32e995b7860c01b620002cf60201b60201c565b6200006f6790ab5092721bf5d160c01b620002cf60201b60201c565b826000806101000a81548173ffffffffffffffffffffffffffffffffffffffff021916908373ffffffffffffffffffffffffffffffffffffffff160217905550620000cb678408924ce94f173760c01b620002cf60201b60201c565b6001600281905550620000ef6787523b09126ba35760c01b620002cf60201b60201c565b600160038190555062000113675027a972d67afcef60c01b620002cf60201b60201c565b6001600481905550620001376779403b1634a3c81c60c01b620002cf60201b60201c565b611c206006819055506200015c6776c55a7dab98583360c01b620002cf60201b60201c565b611c2060078190555062000181679011d2f5ada614e260c01b620002cf60201b60201c565b43600581905550620001a467f92fb4ccfcccb46060c01b620002cf60201b60201c565b620001c0672810bb22c1231cd260c01b620002cf60201b60201c565b60006001600060018152602001908152602001600020600060018152602001908152602001600020905062000206670f55360568c7317e60c01b620002cf60201b60201c565b81816000019081620002199190620007c3565b506200023667bd09807c1cf7a3ad60c01b620002cf60201b60201c565b82816001019081620002499190620007c3565b506200026667eed48caa060b909f60c01b620002cf60201b60201c565b62000282673e858360cbbca64c60c01b620002cf60201b60201c565b7fa308c173221675f0fce92ff9d86e4bb3c96dc0d41f10155d4e334964aaa0ed883360025460035485604051620002bd94939291906200091e565b60405180910390a15050505062000972565b50565b6000604051905090565b600080fd5b600080fd5b600073ffffffffffffffffffffffffffffffffffffffff82169050919050565b60006200031382620002e6565b9050919050565b6000620003278262000306565b9050919050565b62000339816200031a565b81146200034557600080fd5b50565b60008151905062000359816200032e565b92915050565b600080fd5b600080fd5b6000601f19601f8301169050919050565b7f4e487b7100000000000000000000000000000000000000000000000000000000600052604160045260246000fd5b620003b48262000369565b810181811067ffffffffffffffff82111715620003d657620003d56200037a565b5b80604052505050565b6000620003eb620002d2565b9050620003f98282620003a9565b919050565b600067ffffffffffffffff8211156200041c576200041b6200037a565b5b620004278262000369565b9050602081019050919050565b60005b838110156200045457808201518184015260208101905062000437565b60008484015250505050565b6000620004776200047184620003fe565b620003df565b90508281526020810184848401111562000496576200049562000364565b5b620004a384828562000434565b509392505050565b600082601f830112620004c357620004c26200035f565b5b8151620004d584826020860162000460565b91505092915050565b600080600060608486031215620004fa57620004f9620002dc565b5b60006200050a8682870162000348565b935050602084015167ffffffffffffffff8111156200052e576200052d620002e1565b5b6200053c86828701620004ab565b925050604084015167ffffffffffffffff81111562000560576200055f620002e1565b5b6200056e86828701620004ab565b9150509250925092565b600081519050919050565b7f4e487b7100000000000000000000000000000000000000000000000000000000600052602260045260246000fd5b60006002820490506001821680620005cb57607f821691505b602082108103620005e157620005e062000583565b5b50919050565b60008190508160005260206000209050919050565b60006020601f8301049050919050565b600082821b905092915050565b6000600883026200064b7fffffffffffffffffffffffffffffffffffffffffffffffffffffffffffffffff826200060c565b6200065786836200060c565b95508019841693508086168417925050509392505050565b6000819050919050565b6000819050919050565b6000620006a46200069e62000698846200066f565b62000679565b6200066f565b9050919050565b6000819050919050565b620006c08362000683565b620006d8620006cf82620006ab565b84845462000619565b825550505050565b600090565b620006ef620006e0565b620006fc818484620006b5565b505050565b5b81811015620007245762000718600082620006e5565b60018101905062000702565b5050565b601f82111562000773576200073d81620005e7565b6200074884620005fc565b8101602085101562000758578190505b620007706200076785620005fc565b83018262000701565b50505b505050565b600082821c905092915050565b6000620007986000198460080262000778565b1980831691505092915050565b6000620007b3838362000785565b9150826002028217905092915050565b620007ce8262000578565b67ffffffffffffffff811115620007ea57620007e96200037a565b5b620007f68254620005b2565b6200080382828562000728565b600060209050601f8311600181146200083b576000841562000826578287015190505b620008328582620007a5565b865550620008a2565b601f1984166200084b86620005e7565b60005b8281101562000875578489015182556001820191506020850194506020810190506200084e565b8683101562000895578489015162000891601f89168262000785565b8355505b6001600288020188555050505b505050505050565b620008b58162000306565b82525050565b620008c6816200066f565b82525050565b600082825260208201905092915050565b6000620008ea8262000578565b620008f68185620008cc565b93506200090881856020860162000434565b620009138162000369565b840191505092915050565b6000608082019050620009356000830187620008aa565b620009446020830186620008bb565b620009536040830185620008bb565b8181036060830152620009678184620008dd565b905095945050505050565b61200380620009826000396000f3fe608060405234801561001057600080fd5b50600436106100cf5760003560e01c8063d2970c571161008c578063f31c589111610066578063f31c5891146101ee578063f75d64a61461020c578063f95cc8601461022a578063fd057c5614610248576100cf565b8063d2970c5714610196578063da12103d146101b4578063ea0217cf146101d2576100cf565b80630121b93f146100d457806323d1c95e146100f05780635d475fdd1461010c578063627f0c2814610128578063725ae3dc14610146578063b9c503ca14610164575b600080fd5b6100ee60048036038101906100e991906114db565b610266565b005b61010a6004803603810190610105919061164e565b6106ef565b005b610126600480360381019061012191906114db565b6109bd565b005b6101306109ef565b60405161013d91906116d5565b60405180910390f35b61014e6109f5565b60405161015b91906116d5565b60405180910390f35b61017e600480360381019061017991906116f0565b6109fb565b60405161018d939291906117af565b60405180910390f35b61019e610b42565b6040516101ab91906116d5565b60405180910390f35b6101bc610b48565b6040516101c991906116d5565b60405180910390f35b6101ec60048036038101906101e791906114db565b610b4e565b005b6101f6610b80565b60405161020391906116d5565b60405180910390f35b610214610b86565b604051610221919061186b565b60405180910390f35b610232610d5f565b60405161023f91906116d5565b60405180910390f35b610250610d65565b60405161025d91906116d5565b60405180910390f35b61027a6741e7e3ba28e4c8ee60c01b610f98565b61028e67d3205128efc7221860c01b610f98565b6102a26742a420a6c786dc0e60c01b610f98565b6102b667702cbf847c92d1b260c01b610f98565b6003548111156102fb576040517f08c379a00000000000000000000000000000000000000000000000000000000081526004016102f2906118d2565b60405180910390fd5b61030f6722b6cf3598055dce60c01b610f98565b610323672096894c421805aa60c01b610f98565b6103376745f1c57cad61e10f60c01b610f98565b61034b67a0a0ab4168a549dd60c01b610f98565b6002600381111561035f5761035e6117f4565b5b610367610b86565b6003811115610379576103786117f4565b5b146103b9576040517f08c379a00000000000000000000000000000000000000000000000000000000081526004016103b09061193e565b60405180910390fd5b6103cd67dc63a9230714cbed60c01b610f98565b6103e16718d00a29a2aaff1460c01b610f98565b6103f567150fe0847490cf9060c01b610f98565b600060016000600254815260200190815260200160002060008381526020019081526020016000209050610433670198e0e951c96dc160c01b610f98565b61044767b7284855e87b989a60c01b610f98565b61045b67e5ff8553cdef364960c01b610f98565b8060030160003373ffffffffffffffffffffffffffffffffffffffff1673ffffffffffffffffffffffffffffffffffffffff16815260200190815260200160002060010160009054906101000a900460ff16156104ed576040517f08c379a00000000000000000000000000000000000000000000000000000000081526004016104e4906119aa565b60405180910390fd5b6105016755f9d4de9076aeea60c01b610f98565b61051567c71a65d9836afc8060c01b610f98565b6105296734dc8a8b1166ec6660c01b610f98565b60008160030160003373ffffffffffffffffffffffffffffffffffffffff1673ffffffffffffffffffffffffffffffffffffffff1681526020019081526020016000209050610582678dadc3eda56e79fd60c01b610f98565b61058b33610f9b565b81600001819055506105a7675ddc060a0ebaa90160c01b610f98565b60018160010160006101000a81548160ff0219169083151502179055506105d867f8140552cceb1e7260c01b610f98565b80600001548260020160008282546105f091906119f9565b9250508190555061060b67b0a624cf6f06970660c01b610f98565b61061f67ab1d47b2f724896160c01b610f98565b7fea66f58e474bc09f580000e81f31b334d171db387d0c6098ba47bd897741679b336002548560405161065493929190611a6e565b60405180910390a161067067e64a386563dec6d060c01b610f98565b61068467a9f9a8b36afa534660c01b610f98565b610692600254600454610fe2565b60020154826002015411156106d5576106b567cf047616d245972560c01b610f98565b6106c967f8ed90224cadc4d060c01b610f98565b826004819055506106ea565b6106e967dc0c42ed3d492b9760c01b610f98565b5b505050565b61070367b41ff041e4debd1560c01b610f98565b61071767e466548de78a4e7f60c01b610f98565b61072b6794a850d50fdb397460c01b610f98565b6000610735610b86565b905061074b67761f31c49c03ae9860c01b610f98565b61075f670ade4ea112f2e8a260c01b610f98565b60006003811115610773576107726117f4565b5b816003811115610786576107856117f4565b5b036107d65761079f678075dbea2bb1927260c01b610f98565b6107b3677ffde914532ed9a460c01b610f98565b6107c767643f3f8cc0b8964a60c01b610f98565b6107d1838361104c565b6109b8565b6107ea67a51fd4fdd659ddf960c01b610f98565b6107fe67f3e77950d65c327e60c01b610f98565b60016003811115610812576108116117f4565b5b816003811115610825576108246117f4565b5b036108755761083e67e2ee30b4f5bba78e60c01b610f98565b6108526721e99452e432390860c01b610f98565b61086667b112f127167eb87e60c01b610f98565b6108708383611220565b6109b7565b61088967d468b39f07e46a9b60c01b610f98565b61089d67e3de4b8cd2369cdc60c01b610f98565b600260038111156108b1576108b06117f4565b5b8160038111156108c4576108c36117f4565b5b03610940576108dd67a5f7b5f988038c9460c01b610f98565b6108f167764fdc85eee15c7460c01b610f98565b61090567aa06d83cbd05c8c760c01b610f98565b6040517f08c379a000000000000000000000000000000000000000000000000000000000815260040161093790611b17565b60405180910390fd5b61095467971bc524a02e537360c01b610f98565b6109686778515748fc01d4a060c01b610f98565b61097c673b5932ee8711c61660c01b610f98565b6040517f08c379a00000000000000000000000000000000000000000000000000000000081526004016109ae90611ba9565b60405180910390fd5b5b505050565b6109d1674aed7e33db90f97f60c01b610f98565b6109e567afacacd380749b6a60c01b610f98565b8060068190555050565b60025481565b60075481565b600160205281600052604060002060205280600052604060002060009150915050806000018054610a2b90611bf8565b80601f0160208091040260200160405190810160405280929190818152602001828054610a5790611bf8565b8015610aa45780601f10610a7957610100808354040283529160200191610aa4565b820191906000526020600020905b815481529060010190602001808311610a8757829003601f168201915b505050505090806001018054610ab990611bf8565b80601f0160208091040260200160405190810160405280929190818152602001828054610ae590611bf8565b8015610b325780601f10610b0757610100808354040283529160200191610b32565b820191906000526020600020905b815481529060010190602001808311610b1557829003601f168201915b5050505050908060020154905083565b60055481565b60045481565b610b6267acd6a348eddbee0d60c01b610f98565b610b76673f460fecf811eca960c01b610f98565b8060078190555050565b60065481565b6000610b9c67e8eb0ddbed80634e60c01b610f98565b610bb0672f4b7b5683ba59d560c01b610f98565b610bc467726b2128f437270360c01b610f98565b600754600654600554610bd791906119f9565b610be191906119f9565b431115610c1957610bfc67601533878c66d70760c01b610f98565b610c1067665f16371b1996d960c01b610f98565b60009050610d5c565b610c2d675e73ad13b0b917a360c01b610f98565b610c416754a638c34bf248f860c01b610f98565b43600554108015610c605750600654600554610c5d91906119f9565b43105b15610c9657610c79678a0b60b8eab496df60c01b610f98565b610c8d673dc50c38d5c9849060c01b610f98565b60019050610d5b565b610caa67fdec373f9bd20eba60c01b610f98565b610cbe67fa4ea3aab6bcc7a860c01b610f98565b43600654600554610ccf91906119f9565b108015610cf75750600754600654600554610cea91906119f9565b610cf491906119f9565b43105b15610d2d57610d10678f348e4f501a9bf060c01b610f98565b610d2467fee64882888a196760c01b610f98565b60029050610d5a565b610d4167bc4dbbd00ae687f460c01b610f98565b610d556754181fed10e40c2360c01b610f98565b600390505b5b5b90565b60035481565b6000610d7b674ab78376b740388560c01b610f98565b610d8f672690695afb31b7c160c01b610f98565b610da367ba77de6f6a7db74a60c01b610f98565b6000610dad610b86565b9050610dc367685695f9e77f638a60c01b610f98565b610dd767905dde883a50cc3360c01b610f98565b60016003811115610deb57610dea6117f4565b5b816003811115610dfe57610dfd6117f4565b5b03610e4d57610e1767acc9ddb11c3c18b860c01b610f98565b610e2b670ba160e0740c1ea260c01b610f98565b43600654600554610e3c91906119f9565b610e469190611c29565b9150610f94565b610e6167443249e105bf900360c01b610f98565b610e75670653cc1c0f83b17060c01b610f98565b60026003811115610e8957610e886117f4565b5b816003811115610e9c57610e9b6117f4565b5b03610ef857610eb56726710da24c687ffd60c01b610f98565b610ec967fd49e32cd412dbcf60c01b610f98565b43600754600654600554610edd91906119f9565b610ee791906119f9565b610ef19190611c29565b9150610f93565b610f0c67f0cd9237cdd785d960c01b610f98565b610f20673b26b92863b2b4b160c01b610f98565b60006003811115610f3457610f336117f4565b5b816003811115610f4757610f466117f4565b5b03610f7d57610f6067c1926162468539bd60c01b610f98565b610f7467b4ab9290a0c9eec960c01b610f98565b60009150610f92565b610f9167b2cf4e2ea783c6a060c01b610f98565b5b5b5b5090565b50565b6000610fb167fe97917b977516e360c01b610f98565b610fc567c3ae080fb4f7531660c01b610f98565b610fd967237fd169d87ac32b60c01b610f98565b60019050919050565b6000610ff867d51fe8d64e8eab5660c01b610f98565b61100c6798a9c0c755b6628960c01b610f98565b61102067eb04dfb5b833333860c01b610f98565b600160008481526020019081526020016000206000838152602001908152602001600020905092915050565b611060670b97898d38638d9a60c01b610f98565b6110746707691213ae326c1f60c01b610f98565b611088675bb5b22184f53df160c01b610f98565b611090611370565b6110a4672a0ab29ed9d840ec60c01b610f98565b436005819055506110bf67bbf3f701820ccaad60c01b610f98565b6001600260008282546110d291906119f9565b925050819055506110ed67272bbb1ae201658960c01b610f98565b600160038190555061110967ba806f6ec62629d760c01b610f98565b61111d6720c40f7184dc4add60c01b610f98565b600060016000600254815260200190815260200160002060006003548152602001908152602001600020905061115d67a78b2782c24b81e860c01b610f98565b8181600001908161116e9190611e09565b506111836754a0c268917c076360c01b610f98565b828160010190816111949190611e09565b506111a866d7163206921b8f60c01b610f98565b600081600201819055506111c667816dca57302233f660c01b610f98565b6111da67334d377f9c8c47f660c01b610f98565b7fa308c173221675f0fce92ff9d86e4bb3c96dc0d41f10155d4e334964aaa0ed8833600254600354856040516112139493929190611edb565b60405180910390a1505050565b611234676eeeb3901080c49460c01b610f98565b61124867713bf02a1b83ae9760c01b610f98565b60016003600082825461125b91906119f9565b925050819055506112766761928398d78e7e2a60c01b610f98565b61128a67135ee844cc71954060c01b610f98565b60006001600060025481526020019081526020016000206000600354815260200190815260200160002090506112ca67283b502e24fba42460c01b610f98565b818160000190816112db9190611e09565b506112f0678ba837c765bc328f60c01b610f98565b828160010190816113019190611e09565b506113166707704712409d570460c01b610f98565b61132a67ce089427912edfee60c01b610f98565b7fa308c173221675f0fce92ff9d86e4bb3c96dc0d41f10155d4e334964aaa0ed8833600254600354856040516113639493929190611edb565b60405180910390a1505050565b6113846717efac88be739acc60c01b610f98565b61139867edb28683c40f356960c01b610f98565b6113ac67a9eaa2de640530db60c01b610f98565b60006001600060025481526020019081526020016000206000600454815260200190815260200160002090506113ec67b3d84dcfd974c13e60c01b610f98565b6114006755ff162909218bf660c01b610f98565b60008054906101000a900473ffffffffffffffffffffffffffffffffffffffff1673ffffffffffffffffffffffffffffffffffffffff1663d85d3d27826001016040518263ffffffff1660e01b815260040161145c9190611fab565b600060405180830381600087803b15801561147657600080fd5b505af115801561148a573d6000803e3d6000fd5b5050505050565b6000604051905090565b600080fd5b600080fd5b6000819050919050565b6114b8816114a5565b81146114c357600080fd5b50565b6000813590506114d5816114af565b92915050565b6000602082840312156114f1576114f061149b565b5b60006114ff848285016114c6565b91505092915050565b600080fd5b600080fd5b6000601f19601f8301169050919050565b7f4e487b7100000000000000000000000000000000000000000000000000000000600052604160045260246000fd5b61155b82611512565b810181811067ffffffffffffffff8211171561157a57611579611523565b5b80604052505050565b600061158d611491565b90506115998282611552565b919050565b600067ffffffffffffffff8211156115b9576115b8611523565b5b6115c282611512565b9050602081019050919050565b82818337600083830152505050565b60006115f16115ec8461159e565b611583565b90508281526020810184848401111561160d5761160c61150d565b5b6116188482856115cf565b509392505050565b600082601f83011261163557611634611508565b5b81356116458482602086016115de565b91505092915050565b600080604083850312156116655761166461149b565b5b600083013567ffffffffffffffff811115611683576116826114a0565b5b61168f85828601611620565b925050602083013567ffffffffffffffff8111156116b0576116af6114a0565b5b6116bc85828601611620565b9150509250929050565b6116cf816114a5565b82525050565b60006020820190506116ea60008301846116c6565b92915050565b600080604083850312156117075761170661149b565b5b6000611715858286016114c6565b9250506020611726858286016114c6565b9150509250929050565b600081519050919050565b600082825260208201905092915050565b60005b8381101561176a57808201518184015260208101905061174f565b60008484015250505050565b600061178182611730565b61178b818561173b565b935061179b81856020860161174c565b6117a481611512565b840191505092915050565b600060608201905081810360008301526117c98186611776565b905081810360208301526117dd8185611776565b90506117ec60408301846116c6565b949350505050565b7f4e487b7100000000000000000000000000000000000000000000000000000000600052602160045260246000fd5b60048110611834576118336117f4565b5b50565b600081905061184582611823565b919050565b600061185582611837565b9050919050565b6118658161184a565b82525050565b6000602082019050611880600083018461185c565b92915050565b7f4261642070726f706f73616c2069640000000000000000000000000000000000600082015250565b60006118bc600f8361173b565b91506118c782611886565b602082019050919050565b600060208201905081810360008301526118eb816118af565b9050919050565b7f49742773206e6f742074686520766f74696e672074696d650000000000000000600082015250565b600061192860188361173b565b9150611933826118f2565b602082019050919050565b600060208201905081810360008301526119578161191b565b9050919050565b7f596f7520616c726561647920766f746564206f6e636500000000000000000000600082015250565b600061199460168361173b565b915061199f8261195e565b602082019050919050565b600060208201905081810360008301526119c381611987565b9050919050565b7f4e487b7100000000000000000000000000000000000000000000000000000000600052601160045260246000fd5b6000611a04826114a5565b9150611a0f836114a5565b9250828201905080821115611a2757611a266119ca565b5b92915050565b600073ffffffffffffffffffffffffffffffffffffffff82169050919050565b6000611a5882611a2d565b9050919050565b611a6881611a4d565b82525050565b6000606082019050611a836000830186611a5f565b611a9060208301856116c6565b611a9d60408301846116c6565b949350505050565b7f596f752063616e27742061646420612070726f706f73616c2c2069742773207460008201527f696d6520746f20766f7465210000000000000000000000000000000000000000602082015250565b6000611b01602c8361173b565b9150611b0c82611aa5565b604082019050919050565b60006020820190508181036000830152611b3081611af4565b9050919050565b7f536f6d7468696e672077656e742077726f6e6720696e20746865206c6966652060008201527f6379636c65000000000000000000000000000000000000000000000000000000602082015250565b6000611b9360258361173b565b9150611b9e82611b37565b604082019050919050565b60006020820190508181036000830152611bc281611b86565b9050919050565b7f4e487b7100000000000000000000000000000000000000000000000000000000600052602260045260246000fd5b60006002820490506001821680611c1057607f821691505b602082108103611c2357611c22611bc9565b5b50919050565b6000611c34826114a5565b9150611c3f836114a5565b9250828203905081811115611c5757611c566119ca565b5b92915050565b60008190508160005260206000209050919050565b60006020601f8301049050919050565b600082821b905092915050565b600060088302611cbf7fffffffffffffffffffffffffffffffffffffffffffffffffffffffffffffffff82611c82565b611cc98683611c82565b95508019841693508086168417925050509392505050565b6000819050919050565b6000611d06611d01611cfc846114a5565b611ce1565b6114a5565b9050919050565b6000819050919050565b611d2083611ceb565b611d34611d2c82611d0d565b848454611c8f565b825550505050565b600090565b611d49611d3c565b611d54818484611d17565b505050565b5b81811015611d7857611d6d600082611d41565b600181019050611d5a565b5050565b601f821115611dbd57611d8e81611c5d565b611d9784611c72565b81016020851015611da6578190505b611dba611db285611c72565b830182611d59565b50505b505050565b600082821c905092915050565b6000611de060001984600802611dc2565b1980831691505092915050565b6000611df98383611dcf565b9150826002028217905092915050565b611e1282611730565b67ffffffffffffffff811115611e2b57611e2a611523565b5b611e358254611bf8565b611e40828285611d7c565b600060209050601f831160018114611e735760008415611e61578287015190505b611e6b8582611ded565b865550611ed3565b601f198416611e8186611c5d565b60005b82811015611ea957848901518255600182019150602085019450602081019050611e84565b86831015611ec65784890151611ec2601f891682611dcf565b8355505b6001600288020188555050505b505050505050565b6000608082019050611ef06000830187611a5f565b611efd60208301866116c6565b611f0a60408301856116c6565b8181036060830152611f1c8184611776565b905095945050505050565b60008154611f3481611bf8565b611f3e818661173b565b94506001821660008114611f595760018114611f6f57611fa2565b60ff198316865281151560200286019350611fa2565b611f7885611c5d565b60005b83811015611f9a57815481890152600182019150602081019050611f7b565b808801955050505b50505092915050565b60006020820190508181036000830152611fc58184611f27565b90509291505056fea264697066735822122095f9da2cdf79be523ea239a574713d9f5110563a3f6e3e866a9d404429e99cb064736f6c63430008120033",
  "linkReferences": {},
  "deployedLinkReferences": {}
}