{
  "_format": "hh-sol-artifact-1",
  "contractName": "VizionGouvernance",
  "sourceName": "contracts/VizionGouvernance.sol",
  "abi": [
    {
      "inputs": [
        {
          "internalType": "contract VizionCollection",
          "name": "_collection",
          "type": "address"
        },
        {
          "internalType": "string",
          "name": "_tokenUri",
          "type": "string"
        },
        {
          "internalType": "string",
          "name": "_proposalUri",
          "type": "string"
        }
      ],
      "stateMutability": "nonpayable",
      "type": "constructor"
    },
    {
      "anonymous": false,
      "inputs": [
        {
          "indexed": true,
          "internalType": "address",
          "name": "previousOwner",
          "type": "address"
        },
        {
          "indexed": true,
          "internalType": "address",
          "name": "newOwner",
          "type": "address"
        }
      ],
      "name": "OwnershipTransferred",
      "type": "event"
    },
    {
      "anonymous": false,
      "inputs": [
        {
          "indexed": false,
          "internalType": "address",
          "name": "author",
          "type": "address"
        },
        {
          "indexed": false,
          "internalType": "uint256",
          "name": "tokenId",
          "type": "uint256"
        },
        {
          "indexed": false,
          "internalType": "uint256",
          "name": "proposalId",
          "type": "uint256"
        },
        {
          "indexed": false,
          "internalType": "string",
          "name": "uri",
          "type": "string"
        }
      ],
      "name": "ProposalAdded",
      "type": "event"
    },
    {
      "anonymous": false,
      "inputs": [
        {
          "indexed": false,
          "internalType": "address",
          "name": "voter",
          "type": "address"
        },
        {
          "indexed": false,
          "internalType": "uint256",
          "name": "tokenId",
          "type": "uint256"
        },
        {
          "indexed": false,
          "internalType": "uint256",
          "name": "proposalId",
          "type": "uint256"
        }
      ],
      "name": "Voted",
      "type": "event"
    },
    {
      "inputs": [
        {
          "internalType": "string",
          "name": "_tokenUri",
          "type": "string"
        },
        {
          "internalType": "string",
          "name": "_proposalUri",
          "type": "string"
        }
      ],
      "name": "addProposal",
      "outputs": [],
      "stateMutability": "nonpayable",
      "type": "function"
    },
    {
      "inputs": [],
      "name": "getBlockLeft",
      "outputs": [
        {
          "internalType": "uint256",
          "name": "blockLeft",
          "type": "uint256"
        }
      ],
      "stateMutability": "view",
      "type": "function"
    },
    {
      "inputs": [],
      "name": "getWorkflowStatus",
      "outputs": [
        {
          "internalType": "enum VizionGouvernance.WorkflowStatus",
          "name": "status",
          "type": "uint8"
        }
      ],
      "stateMutability": "view",
      "type": "function"
    },
    {
      "inputs": [],
      "name": "owner",
      "outputs": [
        {
          "internalType": "address",
          "name": "",
          "type": "address"
        }
      ],
      "stateMutability": "view",
      "type": "function"
    },
    {
      "inputs": [],
      "name": "renounceOwnership",
      "outputs": [],
      "stateMutability": "nonpayable",
      "type": "function"
    },
    {
      "inputs": [],
      "name": "s_creationPeriod",
      "outputs": [
        {
          "internalType": "uint256",
          "name": "",
          "type": "uint256"
        }
      ],
      "stateMutability": "view",
      "type": "function"
    },
    {
      "inputs": [],
      "name": "s_currentWinningProposalId",
      "outputs": [
        {
          "internalType": "uint256",
          "name": "",
          "type": "uint256"
        }
      ],
      "stateMutability": "view",
      "type": "function"
    },
    {
      "inputs": [],
      "name": "s_lastRefBlock",
      "outputs": [
        {
          "internalType": "uint256",
          "name": "",
          "type": "uint256"
        }
      ],
      "stateMutability": "view",
      "type": "function"
    },
    {
      "inputs": [],
      "name": "s_proposalIds",
      "outputs": [
        {
          "internalType": "uint256",
          "name": "",
          "type": "uint256"
        }
      ],
      "stateMutability": "view",
      "type": "function"
    },
    {
      "inputs": [
        {
          "internalType": "uint256",
          "name": "",
          "type": "uint256"
        },
        {
          "internalType": "uint256",
          "name": "",
          "type": "uint256"
        }
      ],
      "name": "s_proposals",
      "outputs": [
        {
          "internalType": "string",
          "name": "proposalUri",
          "type": "string"
        },
        {
          "internalType": "string",
          "name": "tokenUri",
          "type": "string"
        },
        {
          "internalType": "uint256",
          "name": "voteCount",
          "type": "uint256"
        }
      ],
      "stateMutability": "view",
      "type": "function"
    },
    {
      "inputs": [],
      "name": "s_tokenIds",
      "outputs": [
        {
          "internalType": "uint256",
          "name": "",
          "type": "uint256"
        }
      ],
      "stateMutability": "view",
      "type": "function"
    },
    {
      "inputs": [],
      "name": "s_votingPeriod",
      "outputs": [
        {
          "internalType": "uint256",
          "name": "",
          "type": "uint256"
        }
      ],
      "stateMutability": "view",
      "type": "function"
    },
    {
      "inputs": [
        {
          "internalType": "uint256",
          "name": "_period",
          "type": "uint256"
        }
      ],
      "name": "setCreationPeriod",
      "outputs": [],
      "stateMutability": "nonpayable",
      "type": "function"
    },
    {
      "inputs": [
        {
          "internalType": "uint256",
          "name": "_period",
          "type": "uint256"
        }
      ],
      "name": "setVotingPeriod",
      "outputs": [],
      "stateMutability": "nonpayable",
      "type": "function"
    },
    {
      "inputs": [
        {
          "internalType": "address",
          "name": "newOwner",
          "type": "address"
        }
      ],
      "name": "transferOwnership",
      "outputs": [],
      "stateMutability": "nonpayable",
      "type": "function"
    },
    {
      "inputs": [
        {
          "internalType": "uint256",
          "name": "_proposal",
          "type": "uint256"
        }
      ],
      "name": "vote",
      "outputs": [],
      "stateMutability": "nonpayable",
      "type": "function"
    }
  ],
  "bytecode": "0x60806040523480156200001157600080fd5b50604051620023e1380380620023e1833981810160405281019062000037919062000440565b620000576200004b6200016860201b60201c565b6200017060201b60201c565b82600160006101000a81548173ffffffffffffffffffffffffffffffffffffffff021916908373ffffffffffffffffffffffffffffffffffffffff160217905550600160038190555060016004819055506001600581905550611c20600781905550611c20600881905550436006819055506000600260006001815260200190815260200160002060006001815260200190815260200160002090508181600001908162000106919062000725565b50828160010190816200011a919062000725565b507fa308c173221675f0fce92ff9d86e4bb3c96dc0d41f10155d4e334964aaa0ed88336003546004548560405162000156949392919062000880565b60405180910390a150505050620008d4565b600033905090565b60008060009054906101000a900473ffffffffffffffffffffffffffffffffffffffff169050816000806101000a81548173ffffffffffffffffffffffffffffffffffffffff021916908373ffffffffffffffffffffffffffffffffffffffff1602179055508173ffffffffffffffffffffffffffffffffffffffff168173ffffffffffffffffffffffffffffffffffffffff167f8be0079c531659141344cd1fd0a4f28419497f9722a3daafe3b4186f6b6457e060405160405180910390a35050565b6000604051905090565b600080fd5b600080fd5b600073ffffffffffffffffffffffffffffffffffffffff82169050919050565b6000620002758262000248565b9050919050565b6000620002898262000268565b9050919050565b6200029b816200027c565b8114620002a757600080fd5b50565b600081519050620002bb8162000290565b92915050565b600080fd5b600080fd5b6000601f19601f8301169050919050565b7f4e487b7100000000000000000000000000000000000000000000000000000000600052604160045260246000fd5b6200031682620002cb565b810181811067ffffffffffffffff82111715620003385762000337620002dc565b5b80604052505050565b60006200034d62000234565b90506200035b82826200030b565b919050565b600067ffffffffffffffff8211156200037e576200037d620002dc565b5b6200038982620002cb565b9050602081019050919050565b60005b83811015620003b657808201518184015260208101905062000399565b60008484015250505050565b6000620003d9620003d38462000360565b62000341565b905082815260208101848484011115620003f857620003f7620002c6565b5b6200040584828562000396565b509392505050565b600082601f830112620004255762000424620002c1565b5b815162000437848260208601620003c2565b91505092915050565b6000806000606084860312156200045c576200045b6200023e565b5b60006200046c86828701620002aa565b935050602084015167ffffffffffffffff81111562000490576200048f62000243565b5b6200049e868287016200040d565b925050604084015167ffffffffffffffff811115620004c257620004c162000243565b5b620004d0868287016200040d565b9150509250925092565b600081519050919050565b7f4e487b7100000000000000000000000000000000000000000000000000000000600052602260045260246000fd5b600060028204905060018216806200052d57607f821691505b602082108103620005435762000542620004e5565b5b50919050565b60008190508160005260206000209050919050565b60006020601f8301049050919050565b600082821b905092915050565b600060088302620005ad7fffffffffffffffffffffffffffffffffffffffffffffffffffffffffffffffff826200056e565b620005b986836200056e565b95508019841693508086168417925050509392505050565b6000819050919050565b6000819050919050565b60006200060662000600620005fa84620005d1565b620005db565b620005d1565b9050919050565b6000819050919050565b6200062283620005e5565b6200063a62000631826200060d565b8484546200057b565b825550505050565b600090565b6200065162000642565b6200065e81848462000617565b505050565b5b8181101562000686576200067a60008262000647565b60018101905062000664565b5050565b601f821115620006d5576200069f8162000549565b620006aa846200055e565b81016020851015620006ba578190505b620006d2620006c9856200055e565b83018262000663565b50505b505050565b600082821c905092915050565b6000620006fa60001984600802620006da565b1980831691505092915050565b6000620007158383620006e7565b9150826002028217905092915050565b6200073082620004da565b67ffffffffffffffff8111156200074c576200074b620002dc565b5b62000758825462000514565b620007658282856200068a565b600060209050601f8311600181146200079d576000841562000788578287015190505b62000794858262000707565b86555062000804565b601f198416620007ad8662000549565b60005b82811015620007d757848901518255600182019150602085019450602081019050620007b0565b86831015620007f75784890151620007f3601f891682620006e7565b8355505b6001600288020188555050505b505050505050565b620008178162000268565b82525050565b6200082881620005d1565b82525050565b600082825260208201905092915050565b60006200084c82620004da565b6200085881856200082e565b93506200086a81856020860162000396565b6200087581620002cb565b840191505092915050565b60006080820190506200089760008301876200080c565b620008a660208301866200081d565b620008b560408301856200081d565b8181036060830152620008c981846200083f565b905095945050505050565b611afd80620008e46000396000f3fe608060405234801561001057600080fd5b50600436106101005760003560e01c8063d2970c5711610097578063f31c589111610066578063f31c589114610263578063f75d64a614610281578063f95cc8601461029f578063fd057c56146102bd57610100565b8063d2970c57146101ef578063da12103d1461020d578063ea0217cf1461022b578063f2fde38b1461024757610100565b8063725ae3dc116100d3578063725ae3dc146101655780638da5cb5b14610183578063b9c503ca146101a1578063c95acd0f146101d357610100565b80630121b93f1461010557806323d1c95e14610121578063627f0c281461013d578063715018a61461015b575b600080fd5b61011f600480360381019061011a9190610e63565b6102db565b005b61013b60048036038101906101369190610fd6565b610543565b005b61014561066d565b604051610152919061105d565b60405180910390f35b610163610673565b005b61016d610687565b60405161017a919061105d565b60405180910390f35b61018b61068d565b60405161019891906110b9565b60405180910390f35b6101bb60048036038101906101b691906110d4565b6106b6565b6040516101ca93929190611193565b60405180910390f35b6101ed60048036038101906101e89190610e63565b6107fd565b005b6101f761080f565b604051610204919061105d565b60405180910390f35b610215610815565b604051610222919061105d565b60405180910390f35b61024560048036038101906102409190610e63565b61081b565b005b610261600480360381019061025c9190611204565b61082d565b005b61026b6108b0565b604051610278919061105d565b60405180910390f35b6102896108b6565b60405161029691906112a8565b60405180910390f35b6102a7610963565b6040516102b4919061105d565b60405180910390f35b6102c5610969565b6040516102d2919061105d565b60405180910390f35b600454811115610320576040517f08c379a00000000000000000000000000000000000000000000000000000000081526004016103179061130f565b60405180910390fd5b6002600381111561033457610333611231565b5b61033c6108b6565b600381111561034e5761034d611231565b5b1461038e576040517f08c379a00000000000000000000000000000000000000000000000000000000081526004016103859061137b565b60405180910390fd5b6000600260006003548152602001908152602001600020600083815260200190815260200160002090508060030160003373ffffffffffffffffffffffffffffffffffffffff1673ffffffffffffffffffffffffffffffffffffffff16815260200190815260200160002060010160009054906101000a900460ff161561044a576040517f08c379a0000000000000000000000000000000000000000000000000000000008152600401610441906113e7565b60405180910390fd5b60008160030160003373ffffffffffffffffffffffffffffffffffffffff1673ffffffffffffffffffffffffffffffffffffffff168152602001908152602001600020905061049833610a56565b816000018190555060018160010160006101000a81548160ff02191690831515021790555080600001548260020160008282546104d59190611436565b925050819055507fea66f58e474bc09f580000e81f31b334d171db387d0c6098ba47bd897741679b33600354856040516105119392919061146a565b60405180910390a1610527600354600554610a61565b600201548260020154111561053e57826005819055505b505050565b600061054d6108b6565b90506000600381111561056357610562611231565b5b81600381111561057657610575611231565b5b0361058a576105858383610a8f565b610668565b6001600381111561059e5761059d611231565b5b8160038111156105b1576105b0611231565b5b036105c5576105c08383610b60565b610667565b600260038111156105d9576105d8611231565b5b8160038111156105ec576105eb611231565b5b0361062c576040517f08c379a000000000000000000000000000000000000000000000000000000000815260040161062390611513565b60405180910390fd5b6040517f08c379a000000000000000000000000000000000000000000000000000000000815260040161065e906115a5565b60405180910390fd5b5b505050565b60035481565b61067b610c10565b6106856000610c8e565b565b60085481565b60008060009054906101000a900473ffffffffffffffffffffffffffffffffffffffff16905090565b6002602052816000526040600020602052806000526040600020600091509150508060000180546106e6906115f4565b80601f0160208091040260200160405190810160405280929190818152602001828054610712906115f4565b801561075f5780601f106107345761010080835404028352916020019161075f565b820191906000526020600020905b81548152906001019060200180831161074257829003601f168201915b505050505090806001018054610774906115f4565b80601f01602080910402602001604051908101604052809291908181526020018280546107a0906115f4565b80156107ed5780601f106107c2576101008083540402835291602001916107ed565b820191906000526020600020905b8154815290600101906020018083116107d057829003601f168201915b5050505050908060020154905083565b610805610c10565b8060078190555050565b60065481565b60055481565b610823610c10565b8060088190555050565b610835610c10565b600073ffffffffffffffffffffffffffffffffffffffff168173ffffffffffffffffffffffffffffffffffffffff16036108a4576040517f08c379a000000000000000000000000000000000000000000000000000000000815260040161089b90611697565b60405180910390fd5b6108ad81610c8e565b50565b60075481565b60006008546007546006546108cb9190611436565b6108d59190611436565b4311156108e55760009050610960565b4360065410801561090457506007546006546109019190611436565b43105b15610912576001905061095f565b436007546006546109239190611436565b10801561094b575060085460075460065461093e9190611436565b6109489190611436565b43105b15610959576002905061095e565b600390505b5b5b90565b60045481565b6000806109746108b6565b90506001600381111561098a57610989611231565b5b81600381111561099d5761099c611231565b5b036109c457436007546006546109b39190611436565b6109bd91906116b7565b9150610a52565b600260038111156109d8576109d7611231565b5b8160038111156109eb576109ea611231565b5b03610a1f5743600854600754600654610a049190611436565b610a0e9190611436565b610a1891906116b7565b9150610a51565b60006003811115610a3357610a32611231565b5b816003811115610a4657610a45611231565b5b03610a5057600091505b5b5b5090565b600060019050919050565b6000600260008481526020019081526020016000206000838152602001908152602001600020905092915050565b610a97610d52565b43600681905550600160036000828254610ab19190611436565b925050819055506001600481905550600060026000600354815260200190815260200160002060006004548152602001908152602001600020905081816000019081610afd9190611897565b5082816001019081610b0f9190611897565b50600081600201819055507fa308c173221675f0fce92ff9d86e4bb3c96dc0d41f10155d4e334964aaa0ed883360035460045485604051610b539493929190611969565b60405180910390a1505050565b600160046000828254610b739190611436565b92505081905550600060026000600354815260200190815260200160002060006004548152602001908152602001600020905081816000019081610bb79190611897565b5082816001019081610bc99190611897565b507fa308c173221675f0fce92ff9d86e4bb3c96dc0d41f10155d4e334964aaa0ed883360035460045485604051610c039493929190611969565b60405180910390a1505050565b610c18610e11565b73ffffffffffffffffffffffffffffffffffffffff16610c3661068d565b73ffffffffffffffffffffffffffffffffffffffff1614610c8c576040517f08c379a0000000000000000000000000000000000000000000000000000000008152600401610c8390611a01565b60405180910390fd5b565b60008060009054906101000a900473ffffffffffffffffffffffffffffffffffffffff169050816000806101000a81548173ffffffffffffffffffffffffffffffffffffffff021916908373ffffffffffffffffffffffffffffffffffffffff1602179055508173ffffffffffffffffffffffffffffffffffffffff168173ffffffffffffffffffffffffffffffffffffffff167f8be0079c531659141344cd1fd0a4f28419497f9722a3daafe3b4186f6b6457e060405160405180910390a35050565b6000600260006003548152602001908152602001600020600060055481526020019081526020016000209050600160009054906101000a900473ffffffffffffffffffffffffffffffffffffffff1673ffffffffffffffffffffffffffffffffffffffff1663d85d3d27826001016040518263ffffffff1660e01b8152600401610ddc9190611aa5565b600060405180830381600087803b158015610df657600080fd5b505af1158015610e0a573d6000803e3d6000fd5b5050505050565b600033905090565b6000604051905090565b600080fd5b600080fd5b6000819050919050565b610e4081610e2d565b8114610e4b57600080fd5b50565b600081359050610e5d81610e37565b92915050565b600060208284031215610e7957610e78610e23565b5b6000610e8784828501610e4e565b91505092915050565b600080fd5b600080fd5b6000601f19601f8301169050919050565b7f4e487b7100000000000000000000000000000000000000000000000000000000600052604160045260246000fd5b610ee382610e9a565b810181811067ffffffffffffffff82111715610f0257610f01610eab565b5b80604052505050565b6000610f15610e19565b9050610f218282610eda565b919050565b600067ffffffffffffffff821115610f4157610f40610eab565b5b610f4a82610e9a565b9050602081019050919050565b82818337600083830152505050565b6000610f79610f7484610f26565b610f0b565b905082815260208101848484011115610f9557610f94610e95565b5b610fa0848285610f57565b509392505050565b600082601f830112610fbd57610fbc610e90565b5b8135610fcd848260208601610f66565b91505092915050565b60008060408385031215610fed57610fec610e23565b5b600083013567ffffffffffffffff81111561100b5761100a610e28565b5b61101785828601610fa8565b925050602083013567ffffffffffffffff81111561103857611037610e28565b5b61104485828601610fa8565b9150509250929050565b61105781610e2d565b82525050565b6000602082019050611072600083018461104e565b92915050565b600073ffffffffffffffffffffffffffffffffffffffff82169050919050565b60006110a382611078565b9050919050565b6110b381611098565b82525050565b60006020820190506110ce60008301846110aa565b92915050565b600080604083850312156110eb576110ea610e23565b5b60006110f985828601610e4e565b925050602061110a85828601610e4e565b9150509250929050565b600081519050919050565b600082825260208201905092915050565b60005b8381101561114e578082015181840152602081019050611133565b60008484015250505050565b600061116582611114565b61116f818561111f565b935061117f818560208601611130565b61118881610e9a565b840191505092915050565b600060608201905081810360008301526111ad818661115a565b905081810360208301526111c1818561115a565b90506111d0604083018461104e565b949350505050565b6111e181611098565b81146111ec57600080fd5b50565b6000813590506111fe816111d8565b92915050565b60006020828403121561121a57611219610e23565b5b6000611228848285016111ef565b91505092915050565b7f4e487b7100000000000000000000000000000000000000000000000000000000600052602160045260246000fd5b6004811061127157611270611231565b5b50565b600081905061128282611260565b919050565b600061129282611274565b9050919050565b6112a281611287565b82525050565b60006020820190506112bd6000830184611299565b92915050565b7f4261642070726f706f73616c2069640000000000000000000000000000000000600082015250565b60006112f9600f8361111f565b9150611304826112c3565b602082019050919050565b60006020820190508181036000830152611328816112ec565b9050919050565b7f49742773206e6f742074686520766f74696e672074696d650000000000000000600082015250565b600061136560188361111f565b91506113708261132f565b602082019050919050565b6000602082019050818103600083015261139481611358565b9050919050565b7f596f7520616c726561647920766f746564206f6e636500000000000000000000600082015250565b60006113d160168361111f565b91506113dc8261139b565b602082019050919050565b60006020820190508181036000830152611400816113c4565b9050919050565b7f4e487b7100000000000000000000000000000000000000000000000000000000600052601160045260246000fd5b600061144182610e2d565b915061144c83610e2d565b925082820190508082111561146457611463611407565b5b92915050565b600060608201905061147f60008301866110aa565b61148c602083018561104e565b611499604083018461104e565b949350505050565b7f596f752063616e27742061646420612070726f706f73616c2c2069742773207460008201527f696d6520746f20766f7465210000000000000000000000000000000000000000602082015250565b60006114fd602c8361111f565b9150611508826114a1565b604082019050919050565b6000602082019050818103600083015261152c816114f0565b9050919050565b7f536f6d7468696e672077656e742077726f6e6720696e20746865206c6966652060008201527f6379636c65000000000000000000000000000000000000000000000000000000602082015250565b600061158f60258361111f565b915061159a82611533565b604082019050919050565b600060208201905081810360008301526115be81611582565b9050919050565b7f4e487b7100000000000000000000000000000000000000000000000000000000600052602260045260246000fd5b6000600282049050600182168061160c57607f821691505b60208210810361161f5761161e6115c5565b5b50919050565b7f4f776e61626c653a206e6577206f776e657220697320746865207a65726f206160008201527f6464726573730000000000000000000000000000000000000000000000000000602082015250565b600061168160268361111f565b915061168c82611625565b604082019050919050565b600060208201905081810360008301526116b081611674565b9050919050565b60006116c282610e2d565b91506116cd83610e2d565b92508282039050818111156116e5576116e4611407565b5b92915050565b60008190508160005260206000209050919050565b60006020601f8301049050919050565b600082821b905092915050565b60006008830261174d7fffffffffffffffffffffffffffffffffffffffffffffffffffffffffffffffff82611710565b6117578683611710565b95508019841693508086168417925050509392505050565b6000819050919050565b600061179461178f61178a84610e2d565b61176f565b610e2d565b9050919050565b6000819050919050565b6117ae83611779565b6117c26117ba8261179b565b84845461171d565b825550505050565b600090565b6117d76117ca565b6117e28184846117a5565b505050565b5b81811015611806576117fb6000826117cf565b6001810190506117e8565b5050565b601f82111561184b5761181c816116eb565b61182584611700565b81016020851015611834578190505b61184861184085611700565b8301826117e7565b50505b505050565b600082821c905092915050565b600061186e60001984600802611850565b1980831691505092915050565b6000611887838361185d565b9150826002028217905092915050565b6118a082611114565b67ffffffffffffffff8111156118b9576118b8610eab565b5b6118c382546115f4565b6118ce82828561180a565b600060209050601f83116001811461190157600084156118ef578287015190505b6118f9858261187b565b865550611961565b601f19841661190f866116eb565b60005b8281101561193757848901518255600182019150602085019450602081019050611912565b868310156119545784890151611950601f89168261185d565b8355505b6001600288020188555050505b505050505050565b600060808201905061197e60008301876110aa565b61198b602083018661104e565b611998604083018561104e565b81810360608301526119aa818461115a565b905095945050505050565b7f4f776e61626c653a2063616c6c6572206973206e6f7420746865206f776e6572600082015250565b60006119eb60208361111f565b91506119f6826119b5565b602082019050919050565b60006020820190508181036000830152611a1a816119de565b9050919050565b60008154611a2e816115f4565b611a38818661111f565b94506001821660008114611a535760018114611a6957611a9c565b60ff198316865281151560200286019350611a9c565b611a72856116eb565b60005b83811015611a9457815481890152600182019150602081019050611a75565b808801955050505b50505092915050565b60006020820190508181036000830152611abf8184611a21565b90509291505056fea2646970667358221220bc94c8d933c347bf416f587d6473e57adb566b1aef297fdb4001de0d35bfdd8064736f6c63430008120033",
  "linkReferences": {},
  "deployedLinkReferences": {}
}