{"contracts/VizionGouvernance.sol":{"VizionGouvernance":{"abi":[{"inputs":[{"internalType":"contract VizionCollection","name":"_collection","type":"address"},{"internalType":"string","name":"_tokenUri","type":"string"},{"internalType":"string","name":"_proposalUri","type":"string"}],"stateMutability":"nonpayable","type":"constructor"},{"anonymous":false,"inputs":[{"indexed":false,"internalType":"address","name":"author","type":"address"},{"indexed":false,"internalType":"uint256","name":"tokenId","type":"uint256"},{"indexed":false,"internalType":"uint256","name":"proposalId","type":"uint256"},{"indexed":false,"internalType":"string","name":"uri","type":"string"}],"name":"ProposalAdded","type":"event"},{"anonymous":false,"inputs":[{"indexed":false,"internalType":"address","name":"voter","type":"address"},{"indexed":false,"internalType":"uint256","name":"tokenId","type":"uint256"},{"indexed":false,"internalType":"uint256","name":"proposalId","type":"uint256"}],"name":"Voted","type":"event"},{"inputs":[{"internalType":"string","name":"_tokenUri","type":"string"},{"internalType":"string","name":"_proposalUri","type":"string"}],"name":"addProposal","outputs":[],"stateMutability":"nonpayable","type":"function"},{"inputs":[],"name":"getBlockLeft","outputs":[{"internalType":"uint256","name":"blockLeft","type":"uint256"}],"stateMutability":"view","type":"function"},{"inputs":[],"name":"getWorkflowStatus","outputs":[{"internalType":"enum VizionGouvernance.WorkflowStatus","name":"status","type":"uint8"}],"stateMutability":"view","type":"function"},{"inputs":[],"name":"s_creationPeriod","outputs":[{"internalType":"uint256","name":"","type":"uint256"}],"stateMutability":"view","type":"function"},{"inputs":[],"name":"s_currentWinningProposalId","outputs":[{"internalType":"uint256","name":"","type":"uint256"}],"stateMutability":"view","type":"function"},{"inputs":[],"name":"s_lastRefBlock","outputs":[{"internalType":"uint256","name":"","type":"uint256"}],"stateMutability":"view","type":"function"},{"inputs":[],"name":"s_proposalIds","outputs":[{"internalType":"uint256","name":"","type":"uint256"}],"stateMutability":"view","type":"function"},{"inputs":[{"internalType":"uint256","name":"","type":"uint256"},{"internalType":"uint256","name":"","type":"uint256"}],"name":"s_proposals","outputs":[{"internalType":"string","name":"proposalUri","type":"string"},{"internalType":"string","name":"tokenUri","type":"string"},{"internalType":"uint256","name":"voteCount","type":"uint256"}],"stateMutability":"view","type":"function"},{"inputs":[],"name":"s_tokenIds","outputs":[{"internalType":"uint256","name":"","type":"uint256"}],"stateMutability":"view","type":"function"},{"inputs":[],"name":"s_votingPeriod","outputs":[{"internalType":"uint256","name":"","type":"uint256"}],"stateMutability":"view","type":"function"},{"inputs":[{"internalType":"uint256","name":"_period","type":"uint256"}],"name":"setChallengePeriod","outputs":[],"stateMutability":"nonpayable","type":"function"},{"inputs":[{"internalType":"uint256","name":"_period","type":"uint256"}],"name":"setVotingPeriod","outputs":[],"stateMutability":"nonpayable","type":"function"},{"inputs":[{"internalType":"uint256","name":"_proposal","type":"uint256"}],"name":"vote","outputs":[],"stateMutability":"nonpayable","type":"function"}],"evm":{"bytecode":{"linkReferences":{},"object":"60806040523480156200001157600080fd5b5060405162002985380380620029858339818101604052810190620000379190620004de565b620000536784037be32e995b7860c01b620002cf60201b60201c565b6200006f6790ab5092721bf5d160c01b620002cf60201b60201c565b826000806101000a81548173ffffffffffffffffffffffffffffffffffffffff021916908373ffffffffffffffffffffffffffffffffffffffff160217905550620000cb678408924ce94f173760c01b620002cf60201b60201c565b6001600281905550620000ef6787523b09126ba35760c01b620002cf60201b60201c565b600160038190555062000113675027a972d67afcef60c01b620002cf60201b60201c565b6001600481905550620001376779403b1634a3c81c60c01b620002cf60201b60201c565b611c206006819055506200015c6776c55a7dab98583360c01b620002cf60201b60201c565b611c2060078190555062000181679011d2f5ada614e260c01b620002cf60201b60201c565b43600581905550620001a467f92fb4ccfcccb46060c01b620002cf60201b60201c565b620001c0672810bb22c1231cd260c01b620002cf60201b60201c565b60006001600060018152602001908152602001600020600060018152602001908152602001600020905062000206670f55360568c7317e60c01b620002cf60201b60201c565b81816000019081620002199190620007c3565b506200023667bd09807c1cf7a3ad60c01b620002cf60201b60201c565b82816001019081620002499190620007c3565b506200026667eed48caa060b909f60c01b620002cf60201b60201c565b62000282673e858360cbbca64c60c01b620002cf60201b60201c565b7fa308c173221675f0fce92ff9d86e4bb3c96dc0d41f10155d4e334964aaa0ed883360025460035485604051620002bd94939291906200091e565b60405180910390a15050505062000972565b50565b6000604051905090565b600080fd5b600080fd5b600073ffffffffffffffffffffffffffffffffffffffff82169050919050565b60006200031382620002e6565b9050919050565b6000620003278262000306565b9050919050565b62000339816200031a565b81146200034557600080fd5b50565b60008151905062000359816200032e565b92915050565b600080fd5b600080fd5b6000601f19601f8301169050919050565b7f4e487b7100000000000000000000000000000000000000000000000000000000600052604160045260246000fd5b620003b48262000369565b810181811067ffffffffffffffff82111715620003d657620003d56200037a565b5b80604052505050565b6000620003eb620002d2565b9050620003f98282620003a9565b919050565b600067ffffffffffffffff8211156200041c576200041b6200037a565b5b620004278262000369565b9050602081019050919050565b60005b838110156200045457808201518184015260208101905062000437565b60008484015250505050565b6000620004776200047184620003fe565b620003df565b90508281526020810184848401111562000496576200049562000364565b5b620004a384828562000434565b509392505050565b600082601f830112620004c357620004c26200035f565b5b8151620004d584826020860162000460565b91505092915050565b600080600060608486031215620004fa57620004f9620002dc565b5b60006200050a8682870162000348565b935050602084015167ffffffffffffffff8111156200052e576200052d620002e1565b5b6200053c86828701620004ab565b925050604084015167ffffffffffffffff81111562000560576200055f620002e1565b5b6200056e86828701620004ab565b9150509250925092565b600081519050919050565b7f4e487b7100000000000000000000000000000000000000000000000000000000600052602260045260246000fd5b60006002820490506001821680620005cb57607f821691505b602082108103620005e157620005e062000583565b5b50919050565b60008190508160005260206000209050919050565b60006020601f8301049050919050565b600082821b905092915050565b6000600883026200064b7fffffffffffffffffffffffffffffffffffffffffffffffffffffffffffffffff826200060c565b6200065786836200060c565b95508019841693508086168417925050509392505050565b6000819050919050565b6000819050919050565b6000620006a46200069e62000698846200066f565b62000679565b6200066f565b9050919050565b6000819050919050565b620006c08362000683565b620006d8620006cf82620006ab565b84845462000619565b825550505050565b600090565b620006ef620006e0565b620006fc818484620006b5565b505050565b5b81811015620007245762000718600082620006e5565b60018101905062000702565b5050565b601f82111562000773576200073d81620005e7565b6200074884620005fc565b8101602085101562000758578190505b620007706200076785620005fc565b83018262000701565b50505b505050565b600082821c905092915050565b6000620007986000198460080262000778565b1980831691505092915050565b6000620007b3838362000785565b9150826002028217905092915050565b620007ce8262000578565b67ffffffffffffffff811115620007ea57620007e96200037a565b5b620007f68254620005b2565b6200080382828562000728565b600060209050601f8311600181146200083b576000841562000826578287015190505b620008328582620007a5565b865550620008a2565b601f1984166200084b86620005e7565b60005b8281101562000875578489015182556001820191506020850194506020810190506200084e565b8683101562000895578489015162000891601f89168262000785565b8355505b6001600288020188555050505b505050505050565b620008b58162000306565b82525050565b620008c6816200066f565b82525050565b600082825260208201905092915050565b6000620008ea8262000578565b620008f68185620008cc565b93506200090881856020860162000434565b620009138162000369565b840191505092915050565b6000608082019050620009356000830187620008aa565b620009446020830186620008bb565b620009536040830185620008bb565b8181036060830152620009678184620008dd565b905095945050505050565b61200380620009826000396000f3fe608060405234801561001057600080fd5b50600436106100cf5760003560e01c8063d2970c571161008c578063f31c589111610066578063f31c5891146101ee578063f75d64a61461020c578063f95cc8601461022a578063fd057c5614610248576100cf565b8063d2970c5714610196578063da12103d146101b4578063ea0217cf146101d2576100cf565b80630121b93f146100d457806323d1c95e146100f05780635d475fdd1461010c578063627f0c2814610128578063725ae3dc14610146578063b9c503ca14610164575b600080fd5b6100ee60048036038101906100e991906114db565b610266565b005b61010a6004803603810190610105919061164e565b6106ef565b005b610126600480360381019061012191906114db565b6109bd565b005b6101306109ef565b60405161013d91906116d5565b60405180910390f35b61014e6109f5565b60405161015b91906116d5565b60405180910390f35b61017e600480360381019061017991906116f0565b6109fb565b60405161018d939291906117af565b60405180910390f35b61019e610b42565b6040516101ab91906116d5565b60405180910390f35b6101bc610b48565b6040516101c991906116d5565b60405180910390f35b6101ec60048036038101906101e791906114db565b610b4e565b005b6101f6610b80565b60405161020391906116d5565b60405180910390f35b610214610b86565b604051610221919061186b565b60405180910390f35b610232610d5f565b60405161023f91906116d5565b60405180910390f35b610250610d65565b60405161025d91906116d5565b60405180910390f35b61027a6741e7e3ba28e4c8ee60c01b610f98565b61028e67d3205128efc7221860c01b610f98565b6102a26742a420a6c786dc0e60c01b610f98565b6102b667702cbf847c92d1b260c01b610f98565b6003548111156102fb576040517f08c379a00000000000000000000000000000000000000000000000000000000081526004016102f2906118d2565b60405180910390fd5b61030f6722b6cf3598055dce60c01b610f98565b610323672096894c421805aa60c01b610f98565b6103376745f1c57cad61e10f60c01b610f98565b61034b67a0a0ab4168a549dd60c01b610f98565b6002600381111561035f5761035e6117f4565b5b610367610b86565b6003811115610379576103786117f4565b5b146103b9576040517f08c379a00000000000000000000000000000000000000000000000000000000081526004016103b09061193e565b60405180910390fd5b6103cd67dc63a9230714cbed60c01b610f98565b6103e16718d00a29a2aaff1460c01b610f98565b6103f567150fe0847490cf9060c01b610f98565b600060016000600254815260200190815260200160002060008381526020019081526020016000209050610433670198e0e951c96dc160c01b610f98565b61044767b7284855e87b989a60c01b610f98565b61045b67e5ff8553cdef364960c01b610f98565b8060030160003373ffffffffffffffffffffffffffffffffffffffff1673ffffffffffffffffffffffffffffffffffffffff16815260200190815260200160002060010160009054906101000a900460ff16156104ed576040517f08c379a00000000000000000000000000000000000000000000000000000000081526004016104e4906119aa565b60405180910390fd5b6105016755f9d4de9076aeea60c01b610f98565b61051567c71a65d9836afc8060c01b610f98565b6105296734dc8a8b1166ec6660c01b610f98565b60008160030160003373ffffffffffffffffffffffffffffffffffffffff1673ffffffffffffffffffffffffffffffffffffffff1681526020019081526020016000209050610582678dadc3eda56e79fd60c01b610f98565b61058b33610f9b565b81600001819055506105a7675ddc060a0ebaa90160c01b610f98565b60018160010160006101000a81548160ff0219169083151502179055506105d867f8140552cceb1e7260c01b610f98565b80600001548260020160008282546105f091906119f9565b9250508190555061060b67b0a624cf6f06970660c01b610f98565b61061f67ab1d47b2f724896160c01b610f98565b7fea66f58e474bc09f580000e81f31b334d171db387d0c6098ba47bd897741679b336002548560405161065493929190611a6e565b60405180910390a161067067e64a386563dec6d060c01b610f98565b61068467a9f9a8b36afa534660c01b610f98565b610692600254600454610fe2565b60020154826002015411156106d5576106b567cf047616d245972560c01b610f98565b6106c967f8ed90224cadc4d060c01b610f98565b826004819055506106ea565b6106e967dc0c42ed3d492b9760c01b610f98565b5b505050565b61070367b41ff041e4debd1560c01b610f98565b61071767e466548de78a4e7f60c01b610f98565b61072b6794a850d50fdb397460c01b610f98565b6000610735610b86565b905061074b67761f31c49c03ae9860c01b610f98565b61075f670ade4ea112f2e8a260c01b610f98565b60006003811115610773576107726117f4565b5b816003811115610786576107856117f4565b5b036107d65761079f678075dbea2bb1927260c01b610f98565b6107b3677ffde914532ed9a460c01b610f98565b6107c767643f3f8cc0b8964a60c01b610f98565b6107d1838361104c565b6109b8565b6107ea67a51fd4fdd659ddf960c01b610f98565b6107fe67f3e77950d65c327e60c01b610f98565b60016003811115610812576108116117f4565b5b816003811115610825576108246117f4565b5b036108755761083e67e2ee30b4f5bba78e60c01b610f98565b6108526721e99452e432390860c01b610f98565b61086667b112f127167eb87e60c01b610f98565b6108708383611220565b6109b7565b61088967d468b39f07e46a9b60c01b610f98565b61089d67e3de4b8cd2369cdc60c01b610f98565b600260038111156108b1576108b06117f4565b5b8160038111156108c4576108c36117f4565b5b03610940576108dd67a5f7b5f988038c9460c01b610f98565b6108f167764fdc85eee15c7460c01b610f98565b61090567aa06d83cbd05c8c760c01b610f98565b6040517f08c379a000000000000000000000000000000000000000000000000000000000815260040161093790611b17565b60405180910390fd5b61095467971bc524a02e537360c01b610f98565b6109686778515748fc01d4a060c01b610f98565b61097c673b5932ee8711c61660c01b610f98565b6040517f08c379a00000000000000000000000000000000000000000000000000000000081526004016109ae90611ba9565b60405180910390fd5b5b505050565b6109d1674aed7e33db90f97f60c01b610f98565b6109e567afacacd380749b6a60c01b610f98565b8060068190555050565b60025481565b60075481565b600160205281600052604060002060205280600052604060002060009150915050806000018054610a2b90611bf8565b80601f0160208091040260200160405190810160405280929190818152602001828054610a5790611bf8565b8015610aa45780601f10610a7957610100808354040283529160200191610aa4565b820191906000526020600020905b815481529060010190602001808311610a8757829003601f168201915b505050505090806001018054610ab990611bf8565b80601f0160208091040260200160405190810160405280929190818152602001828054610ae590611bf8565b8015610b325780601f10610b0757610100808354040283529160200191610b32565b820191906000526020600020905b815481529060010190602001808311610b1557829003601f168201915b5050505050908060020154905083565b60055481565b60045481565b610b6267acd6a348eddbee0d60c01b610f98565b610b76673f460fecf811eca960c01b610f98565b8060078190555050565b60065481565b6000610b9c67e8eb0ddbed80634e60c01b610f98565b610bb0672f4b7b5683ba59d560c01b610f98565b610bc467726b2128f437270360c01b610f98565b600754600654600554610bd791906119f9565b610be191906119f9565b431115610c1957610bfc67601533878c66d70760c01b610f98565b610c1067665f16371b1996d960c01b610f98565b60009050610d5c565b610c2d675e73ad13b0b917a360c01b610f98565b610c416754a638c34bf248f860c01b610f98565b43600554108015610c605750600654600554610c5d91906119f9565b43105b15610c9657610c79678a0b60b8eab496df60c01b610f98565b610c8d673dc50c38d5c9849060c01b610f98565b60019050610d5b565b610caa67fdec373f9bd20eba60c01b610f98565b610cbe67fa4ea3aab6bcc7a860c01b610f98565b43600654600554610ccf91906119f9565b108015610cf75750600754600654600554610cea91906119f9565b610cf491906119f9565b43105b15610d2d57610d10678f348e4f501a9bf060c01b610f98565b610d2467fee64882888a196760c01b610f98565b60029050610d5a565b610d4167bc4dbbd00ae687f460c01b610f98565b610d556754181fed10e40c2360c01b610f98565b600390505b5b5b90565b60035481565b6000610d7b674ab78376b740388560c01b610f98565b610d8f672690695afb31b7c160c01b610f98565b610da367ba77de6f6a7db74a60c01b610f98565b6000610dad610b86565b9050610dc367685695f9e77f638a60c01b610f98565b610dd767905dde883a50cc3360c01b610f98565b60016003811115610deb57610dea6117f4565b5b816003811115610dfe57610dfd6117f4565b5b03610e4d57610e1767acc9ddb11c3c18b860c01b610f98565b610e2b670ba160e0740c1ea260c01b610f98565b43600654600554610e3c91906119f9565b610e469190611c29565b9150610f94565b610e6167443249e105bf900360c01b610f98565b610e75670653cc1c0f83b17060c01b610f98565b60026003811115610e8957610e886117f4565b5b816003811115610e9c57610e9b6117f4565b5b03610ef857610eb56726710da24c687ffd60c01b610f98565b610ec967fd49e32cd412dbcf60c01b610f98565b43600754600654600554610edd91906119f9565b610ee791906119f9565b610ef19190611c29565b9150610f93565b610f0c67f0cd9237cdd785d960c01b610f98565b610f20673b26b92863b2b4b160c01b610f98565b60006003811115610f3457610f336117f4565b5b816003811115610f4757610f466117f4565b5b03610f7d57610f6067c1926162468539bd60c01b610f98565b610f7467b4ab9290a0c9eec960c01b610f98565b60009150610f92565b610f9167b2cf4e2ea783c6a060c01b610f98565b5b5b5b5090565b50565b6000610fb167fe97917b977516e360c01b610f98565b610fc567c3ae080fb4f7531660c01b610f98565b610fd967237fd169d87ac32b60c01b610f98565b60019050919050565b6000610ff867d51fe8d64e8eab5660c01b610f98565b61100c6798a9c0c755b6628960c01b610f98565b61102067eb04dfb5b833333860c01b610f98565b600160008481526020019081526020016000206000838152602001908152602001600020905092915050565b611060670b97898d38638d9a60c01b610f98565b6110746707691213ae326c1f60c01b610f98565b611088675bb5b22184f53df160c01b610f98565b611090611370565b6110a4672a0ab29ed9d840ec60c01b610f98565b436005819055506110bf67bbf3f701820ccaad60c01b610f98565b6001600260008282546110d291906119f9565b925050819055506110ed67272bbb1ae201658960c01b610f98565b600160038190555061110967ba806f6ec62629d760c01b610f98565b61111d6720c40f7184dc4add60c01b610f98565b600060016000600254815260200190815260200160002060006003548152602001908152602001600020905061115d67a78b2782c24b81e860c01b610f98565b8181600001908161116e9190611e09565b506111836754a0c268917c076360c01b610f98565b828160010190816111949190611e09565b506111a866d7163206921b8f60c01b610f98565b600081600201819055506111c667816dca57302233f660c01b610f98565b6111da67334d377f9c8c47f660c01b610f98565b7fa308c173221675f0fce92ff9d86e4bb3c96dc0d41f10155d4e334964aaa0ed8833600254600354856040516112139493929190611edb565b60405180910390a1505050565b611234676eeeb3901080c49460c01b610f98565b61124867713bf02a1b83ae9760c01b610f98565b60016003600082825461125b91906119f9565b925050819055506112766761928398d78e7e2a60c01b610f98565b61128a67135ee844cc71954060c01b610f98565b60006001600060025481526020019081526020016000206000600354815260200190815260200160002090506112ca67283b502e24fba42460c01b610f98565b818160000190816112db9190611e09565b506112f0678ba837c765bc328f60c01b610f98565b828160010190816113019190611e09565b506113166707704712409d570460c01b610f98565b61132a67ce089427912edfee60c01b610f98565b7fa308c173221675f0fce92ff9d86e4bb3c96dc0d41f10155d4e334964aaa0ed8833600254600354856040516113639493929190611edb565b60405180910390a1505050565b6113846717efac88be739acc60c01b610f98565b61139867edb28683c40f356960c01b610f98565b6113ac67a9eaa2de640530db60c01b610f98565b60006001600060025481526020019081526020016000206000600454815260200190815260200160002090506113ec67b3d84dcfd974c13e60c01b610f98565b6114006755ff162909218bf660c01b610f98565b60008054906101000a900473ffffffffffffffffffffffffffffffffffffffff1673ffffffffffffffffffffffffffffffffffffffff1663d85d3d27826001016040518263ffffffff1660e01b815260040161145c9190611fab565b600060405180830381600087803b15801561147657600080fd5b505af115801561148a573d6000803e3d6000fd5b5050505050565b6000604051905090565b600080fd5b600080fd5b6000819050919050565b6114b8816114a5565b81146114c357600080fd5b50565b6000813590506114d5816114af565b92915050565b6000602082840312156114f1576114f061149b565b5b60006114ff848285016114c6565b91505092915050565b600080fd5b600080fd5b6000601f19601f8301169050919050565b7f4e487b7100000000000000000000000000000000000000000000000000000000600052604160045260246000fd5b61155b82611512565b810181811067ffffffffffffffff8211171561157a57611579611523565b5b80604052505050565b600061158d611491565b90506115998282611552565b919050565b600067ffffffffffffffff8211156115b9576115b8611523565b5b6115c282611512565b9050602081019050919050565b82818337600083830152505050565b60006115f16115ec8461159e565b611583565b90508281526020810184848401111561160d5761160c61150d565b5b6116188482856115cf565b509392505050565b600082601f83011261163557611634611508565b5b81356116458482602086016115de565b91505092915050565b600080604083850312156116655761166461149b565b5b600083013567ffffffffffffffff811115611683576116826114a0565b5b61168f85828601611620565b925050602083013567ffffffffffffffff8111156116b0576116af6114a0565b5b6116bc85828601611620565b9150509250929050565b6116cf816114a5565b82525050565b60006020820190506116ea60008301846116c6565b92915050565b600080604083850312156117075761170661149b565b5b6000611715858286016114c6565b9250506020611726858286016114c6565b9150509250929050565b600081519050919050565b600082825260208201905092915050565b60005b8381101561176a57808201518184015260208101905061174f565b60008484015250505050565b600061178182611730565b61178b818561173b565b935061179b81856020860161174c565b6117a481611512565b840191505092915050565b600060608201905081810360008301526117c98186611776565b905081810360208301526117dd8185611776565b90506117ec60408301846116c6565b949350505050565b7f4e487b7100000000000000000000000000000000000000000000000000000000600052602160045260246000fd5b60048110611834576118336117f4565b5b50565b600081905061184582611823565b919050565b600061185582611837565b9050919050565b6118658161184a565b82525050565b6000602082019050611880600083018461185c565b92915050565b7f4261642070726f706f73616c2069640000000000000000000000000000000000600082015250565b60006118bc600f8361173b565b91506118c782611886565b602082019050919050565b600060208201905081810360008301526118eb816118af565b9050919050565b7f49742773206e6f742074686520766f74696e672074696d650000000000000000600082015250565b600061192860188361173b565b9150611933826118f2565b602082019050919050565b600060208201905081810360008301526119578161191b565b9050919050565b7f596f7520616c726561647920766f746564206f6e636500000000000000000000600082015250565b600061199460168361173b565b915061199f8261195e565b602082019050919050565b600060208201905081810360008301526119c381611987565b9050919050565b7f4e487b7100000000000000000000000000000000000000000000000000000000600052601160045260246000fd5b6000611a04826114a5565b9150611a0f836114a5565b9250828201905080821115611a2757611a266119ca565b5b92915050565b600073ffffffffffffffffffffffffffffffffffffffff82169050919050565b6000611a5882611a2d565b9050919050565b611a6881611a4d565b82525050565b6000606082019050611a836000830186611a5f565b611a9060208301856116c6565b611a9d60408301846116c6565b949350505050565b7f596f752063616e27742061646420612070726f706f73616c2c2069742773207460008201527f696d6520746f20766f7465210000000000000000000000000000000000000000602082015250565b6000611b01602c8361173b565b9150611b0c82611aa5565b604082019050919050565b60006020820190508181036000830152611b3081611af4565b9050919050565b7f536f6d7468696e672077656e742077726f6e6720696e20746865206c6966652060008201527f6379636c65000000000000000000000000000000000000000000000000000000602082015250565b6000611b9360258361173b565b9150611b9e82611b37565b604082019050919050565b60006020820190508181036000830152611bc281611b86565b9050919050565b7f4e487b7100000000000000000000000000000000000000000000000000000000600052602260045260246000fd5b60006002820490506001821680611c1057607f821691505b602082108103611c2357611c22611bc9565b5b50919050565b6000611c34826114a5565b9150611c3f836114a5565b9250828203905081811115611c5757611c566119ca565b5b92915050565b60008190508160005260206000209050919050565b60006020601f8301049050919050565b600082821b905092915050565b600060088302611cbf7fffffffffffffffffffffffffffffffffffffffffffffffffffffffffffffffff82611c82565b611cc98683611c82565b95508019841693508086168417925050509392505050565b6000819050919050565b6000611d06611d01611cfc846114a5565b611ce1565b6114a5565b9050919050565b6000819050919050565b611d2083611ceb565b611d34611d2c82611d0d565b848454611c8f565b825550505050565b600090565b611d49611d3c565b611d54818484611d17565b505050565b5b81811015611d7857611d6d600082611d41565b600181019050611d5a565b5050565b601f821115611dbd57611d8e81611c5d565b611d9784611c72565b81016020851015611da6578190505b611dba611db285611c72565b830182611d59565b50505b505050565b600082821c905092915050565b6000611de060001984600802611dc2565b1980831691505092915050565b6000611df98383611dcf565b9150826002028217905092915050565b611e1282611730565b67ffffffffffffffff811115611e2b57611e2a611523565b5b611e358254611bf8565b611e40828285611d7c565b600060209050601f831160018114611e735760008415611e61578287015190505b611e6b8582611ded565b865550611ed3565b601f198416611e8186611c5d565b60005b82811015611ea957848901518255600182019150602085019450602081019050611e84565b86831015611ec65784890151611ec2601f891682611dcf565b8355505b6001600288020188555050505b505050505050565b6000608082019050611ef06000830187611a5f565b611efd60208301866116c6565b611f0a60408301856116c6565b8181036060830152611f1c8184611776565b905095945050505050565b60008154611f3481611bf8565b611f3e818661173b565b94506001821660008114611f595760018114611f6f57611fa2565b60ff198316865281151560200286019350611fa2565b611f7885611c5d565b60005b83811015611f9a57815481890152600182019150602081019050611f7b565b808801955050505b50505092915050565b60006020820190508181036000830152611fc58184611f27565b90509291505056fea264697066735822122095f9da2cdf79be523ea239a574713d9f5110563a3f6e3e866a9d404429e99cb064736f6c63430008120033","opcodes":"PUSH1 0x80 PUSH1 0x40 MSTORE CALLVALUE DUP1 ISZERO PUSH3 0x11 JUMPI PUSH1 0x0 DUP1 REVERT JUMPDEST POP PUSH1 0x40 MLOAD PUSH3 0x2985 CODESIZE SUB DUP1 PUSH3 0x2985 DUP4 CODECOPY DUP2 DUP2 ADD PUSH1 0x40 MSTORE DUP2 ADD SWAP1 PUSH3 0x37 SWAP2 SWAP1 PUSH3 0x4DE JUMP JUMPDEST PUSH3 0x53 PUSH8 0x84037BE32E995B78 PUSH1 0xC0 SHL PUSH3 0x2CF PUSH1 0x20 SHL PUSH1 0x20 SHR JUMP JUMPDEST PUSH3 0x6F PUSH8 0x90AB5092721BF5D1 PUSH1 0xC0 SHL PUSH3 0x2CF PUSH1 0x20 SHL PUSH1 0x20 SHR JUMP JUMPDEST DUP3 PUSH1 0x0 DUP1 PUSH2 0x100 EXP DUP2 SLOAD DUP2 PUSH20 0xFFFFFFFFFFFFFFFFFFFFFFFFFFFFFFFFFFFFFFFF MUL NOT AND SWAP1 DUP4 PUSH20 0xFFFFFFFFFFFFFFFFFFFFFFFFFFFFFFFFFFFFFFFF AND MUL OR SWAP1 SSTORE POP PUSH3 0xCB PUSH8 0x8408924CE94F1737 PUSH1 0xC0 SHL PUSH3 0x2CF PUSH1 0x20 SHL PUSH1 0x20 SHR JUMP JUMPDEST PUSH1 0x1 PUSH1 0x2 DUP2 SWAP1 SSTORE POP PUSH3 0xEF PUSH8 0x87523B09126BA357 PUSH1 0xC0 SHL PUSH3 0x2CF PUSH1 0x20 SHL PUSH1 0x20 SHR JUMP JUMPDEST PUSH1 0x1 PUSH1 0x3 DUP2 SWAP1 SSTORE POP PUSH3 0x113 PUSH8 0x5027A972D67AFCEF PUSH1 0xC0 SHL PUSH3 0x2CF PUSH1 0x20 SHL PUSH1 0x20 SHR JUMP JUMPDEST PUSH1 0x1 PUSH1 0x4 DUP2 SWAP1 SSTORE POP PUSH3 0x137 PUSH8 0x79403B1634A3C81C PUSH1 0xC0 SHL PUSH3 0x2CF PUSH1 0x20 SHL PUSH1 0x20 SHR JUMP JUMPDEST PUSH2 0x1C20 PUSH1 0x6 DUP2 SWAP1 SSTORE POP PUSH3 0x15C PUSH8 0x76C55A7DAB985833 PUSH1 0xC0 SHL PUSH3 0x2CF PUSH1 0x20 SHL PUSH1 0x20 SHR JUMP JUMPDEST PUSH2 0x1C20 PUSH1 0x7 DUP2 SWAP1 SSTORE POP PUSH3 0x181 PUSH8 0x9011D2F5ADA614E2 PUSH1 0xC0 SHL PUSH3 0x2CF PUSH1 0x20 SHL PUSH1 0x20 SHR JUMP JUMPDEST NUMBER PUSH1 0x5 DUP2 SWAP1 SSTORE POP PUSH3 0x1A4 PUSH8 0xF92FB4CCFCCCB460 PUSH1 0xC0 SHL PUSH3 0x2CF PUSH1 0x20 SHL PUSH1 0x20 SHR JUMP JUMPDEST PUSH3 0x1C0 PUSH8 0x2810BB22C1231CD2 PUSH1 0xC0 SHL PUSH3 0x2CF PUSH1 0x20 SHL PUSH1 0x20 SHR JUMP JUMPDEST PUSH1 0x0 PUSH1 0x1 PUSH1 0x0 PUSH1 0x1 DUP2 MSTORE PUSH1 0x20 ADD SWAP1 DUP2 MSTORE PUSH1 0x20 ADD PUSH1 0x0 KECCAK256 PUSH1 0x0 PUSH1 0x1 DUP2 MSTORE PUSH1 0x20 ADD SWAP1 DUP2 MSTORE PUSH1 0x20 ADD PUSH1 0x0 KECCAK256 SWAP1 POP PUSH3 0x206 PUSH8 0xF55360568C7317E PUSH1 0xC0 SHL PUSH3 0x2CF PUSH1 0x20 SHL PUSH1 0x20 SHR JUMP JUMPDEST DUP2 DUP2 PUSH1 0x0 ADD SWAP1 DUP2 PUSH3 0x219 SWAP2 SWAP1 PUSH3 0x7C3 JUMP JUMPDEST POP PUSH3 0x236 PUSH8 0xBD09807C1CF7A3AD PUSH1 0xC0 SHL PUSH3 0x2CF PUSH1 0x20 SHL PUSH1 0x20 SHR JUMP JUMPDEST DUP3 DUP2 PUSH1 0x1 ADD SWAP1 DUP2 PUSH3 0x249 SWAP2 SWAP1 PUSH3 0x7C3 JUMP JUMPDEST POP PUSH3 0x266 PUSH8 0xEED48CAA060B909F PUSH1 0xC0 SHL PUSH3 0x2CF PUSH1 0x20 SHL PUSH1 0x20 SHR JUMP JUMPDEST PUSH3 0x282 PUSH8 0x3E858360CBBCA64C PUSH1 0xC0 SHL PUSH3 0x2CF PUSH1 0x20 SHL PUSH1 0x20 SHR JUMP JUMPDEST PUSH32 0xA308C173221675F0FCE92FF9D86E4BB3C96DC0D41F10155D4E334964AAA0ED88 CALLER PUSH1 0x2 SLOAD PUSH1 0x3 SLOAD DUP6 PUSH1 0x40 MLOAD PUSH3 0x2BD SWAP5 SWAP4 SWAP3 SWAP2 SWAP1 PUSH3 0x91E JUMP JUMPDEST PUSH1 0x40 MLOAD DUP1 SWAP2 SUB SWAP1 LOG1 POP POP POP POP PUSH3 0x972 JUMP JUMPDEST POP JUMP JUMPDEST PUSH1 0x0 PUSH1 0x40 MLOAD SWAP1 POP SWAP1 JUMP JUMPDEST PUSH1 0x0 DUP1 REVERT JUMPDEST PUSH1 0x0 DUP1 REVERT JUMPDEST PUSH1 0x0 PUSH20 0xFFFFFFFFFFFFFFFFFFFFFFFFFFFFFFFFFFFFFFFF DUP3 AND SWAP1 POP SWAP2 SWAP1 POP JUMP JUMPDEST PUSH1 0x0 PUSH3 0x313 DUP3 PUSH3 0x2E6 JUMP JUMPDEST SWAP1 POP SWAP2 SWAP1 POP JUMP JUMPDEST PUSH1 0x0 PUSH3 0x327 DUP3 PUSH3 0x306 JUMP JUMPDEST SWAP1 POP SWAP2 SWAP1 POP JUMP JUMPDEST PUSH3 0x339 DUP2 PUSH3 0x31A JUMP JUMPDEST DUP2 EQ PUSH3 0x345 JUMPI PUSH1 0x0 DUP1 REVERT JUMPDEST POP JUMP JUMPDEST PUSH1 0x0 DUP2 MLOAD SWAP1 POP PUSH3 0x359 DUP2 PUSH3 0x32E JUMP JUMPDEST SWAP3 SWAP2 POP POP JUMP JUMPDEST PUSH1 0x0 DUP1 REVERT JUMPDEST PUSH1 0x0 DUP1 REVERT JUMPDEST PUSH1 0x0 PUSH1 0x1F NOT PUSH1 0x1F DUP4 ADD AND SWAP1 POP SWAP2 SWAP1 POP JUMP JUMPDEST PUSH32 0x4E487B7100000000000000000000000000000000000000000000000000000000 PUSH1 0x0 MSTORE PUSH1 0x41 PUSH1 0x4 MSTORE PUSH1 0x24 PUSH1 0x0 REVERT JUMPDEST PUSH3 0x3B4 DUP3 PUSH3 0x369 JUMP JUMPDEST DUP2 ADD DUP2 DUP2 LT PUSH8 0xFFFFFFFFFFFFFFFF DUP3 GT OR ISZERO PUSH3 0x3D6 JUMPI PUSH3 0x3D5 PUSH3 0x37A JUMP JUMPDEST JUMPDEST DUP1 PUSH1 0x40 MSTORE POP POP POP JUMP JUMPDEST PUSH1 0x0 PUSH3 0x3EB PUSH3 0x2D2 JUMP JUMPDEST SWAP1 POP PUSH3 0x3F9 DUP3 DUP3 PUSH3 0x3A9 JUMP JUMPDEST SWAP2 SWAP1 POP JUMP JUMPDEST PUSH1 0x0 PUSH8 0xFFFFFFFFFFFFFFFF DUP3 GT ISZERO PUSH3 0x41C JUMPI PUSH3 0x41B PUSH3 0x37A JUMP JUMPDEST JUMPDEST PUSH3 0x427 DUP3 PUSH3 0x369 JUMP JUMPDEST SWAP1 POP PUSH1 0x20 DUP2 ADD SWAP1 POP SWAP2 SWAP1 POP JUMP JUMPDEST PUSH1 0x0 JUMPDEST DUP4 DUP2 LT ISZERO PUSH3 0x454 JUMPI DUP1 DUP3 ADD MLOAD DUP2 DUP5 ADD MSTORE PUSH1 0x20 DUP2 ADD SWAP1 POP PUSH3 0x437 JUMP JUMPDEST PUSH1 0x0 DUP5 DUP5 ADD MSTORE POP POP POP POP JUMP JUMPDEST PUSH1 0x0 PUSH3 0x477 PUSH3 0x471 DUP5 PUSH3 0x3FE JUMP JUMPDEST PUSH3 0x3DF JUMP JUMPDEST SWAP1 POP DUP3 DUP2 MSTORE PUSH1 0x20 DUP2 ADD DUP5 DUP5 DUP5 ADD GT ISZERO PUSH3 0x496 JUMPI PUSH3 0x495 PUSH3 0x364 JUMP JUMPDEST JUMPDEST PUSH3 0x4A3 DUP5 DUP3 DUP6 PUSH3 0x434 JUMP JUMPDEST POP SWAP4 SWAP3 POP POP POP JUMP JUMPDEST PUSH1 0x0 DUP3 PUSH1 0x1F DUP4 ADD SLT PUSH3 0x4C3 JUMPI PUSH3 0x4C2 PUSH3 0x35F JUMP JUMPDEST JUMPDEST DUP2 MLOAD PUSH3 0x4D5 DUP5 DUP3 PUSH1 0x20 DUP7 ADD PUSH3 0x460 JUMP JUMPDEST SWAP2 POP POP SWAP3 SWAP2 POP POP JUMP JUMPDEST PUSH1 0x0 DUP1 PUSH1 0x0 PUSH1 0x60 DUP5 DUP7 SUB SLT ISZERO PUSH3 0x4FA JUMPI PUSH3 0x4F9 PUSH3 0x2DC JUMP JUMPDEST JUMPDEST PUSH1 0x0 PUSH3 0x50A DUP7 DUP3 DUP8 ADD PUSH3 0x348 JUMP JUMPDEST SWAP4 POP POP PUSH1 0x20 DUP5 ADD MLOAD PUSH8 0xFFFFFFFFFFFFFFFF DUP2 GT ISZERO PUSH3 0x52E JUMPI PUSH3 0x52D PUSH3 0x2E1 JUMP JUMPDEST JUMPDEST PUSH3 0x53C DUP7 DUP3 DUP8 ADD PUSH3 0x4AB JUMP JUMPDEST SWAP3 POP POP PUSH1 0x40 DUP5 ADD MLOAD PUSH8 0xFFFFFFFFFFFFFFFF DUP2 GT ISZERO PUSH3 0x560 JUMPI PUSH3 0x55F PUSH3 0x2E1 JUMP JUMPDEST JUMPDEST PUSH3 0x56E DUP7 DUP3 DUP8 ADD PUSH3 0x4AB JUMP JUMPDEST SWAP2 POP POP SWAP3 POP SWAP3 POP SWAP3 JUMP JUMPDEST PUSH1 0x0 DUP2 MLOAD SWAP1 POP SWAP2 SWAP1 POP JUMP JUMPDEST PUSH32 0x4E487B7100000000000000000000000000000000000000000000000000000000 PUSH1 0x0 MSTORE PUSH1 0x22 PUSH1 0x4 MSTORE PUSH1 0x24 PUSH1 0x0 REVERT JUMPDEST PUSH1 0x0 PUSH1 0x2 DUP3 DIV SWAP1 POP PUSH1 0x1 DUP3 AND DUP1 PUSH3 0x5CB JUMPI PUSH1 0x7F DUP3 AND SWAP2 POP JUMPDEST PUSH1 0x20 DUP3 LT DUP2 SUB PUSH3 0x5E1 JUMPI PUSH3 0x5E0 PUSH3 0x583 JUMP JUMPDEST JUMPDEST POP SWAP2 SWAP1 POP JUMP JUMPDEST PUSH1 0x0 DUP2 SWAP1 POP DUP2 PUSH1 0x0 MSTORE PUSH1 0x20 PUSH1 0x0 KECCAK256 SWAP1 POP SWAP2 SWAP1 POP JUMP JUMPDEST PUSH1 0x0 PUSH1 0x20 PUSH1 0x1F DUP4 ADD DIV SWAP1 POP SWAP2 SWAP1 POP JUMP JUMPDEST PUSH1 0x0 DUP3 DUP3 SHL SWAP1 POP SWAP3 SWAP2 POP POP JUMP JUMPDEST PUSH1 0x0 PUSH1 0x8 DUP4 MUL PUSH3 0x64B PUSH32 0xFFFFFFFFFFFFFFFFFFFFFFFFFFFFFFFFFFFFFFFFFFFFFFFFFFFFFFFFFFFFFFFF DUP3 PUSH3 0x60C JUMP JUMPDEST PUSH3 0x657 DUP7 DUP4 PUSH3 0x60C JUMP JUMPDEST SWAP6 POP DUP1 NOT DUP5 AND SWAP4 POP DUP1 DUP7 AND DUP5 OR SWAP3 POP POP POP SWAP4 SWAP3 POP POP POP JUMP JUMPDEST PUSH1 0x0 DUP2 SWAP1 POP SWAP2 SWAP1 POP JUMP JUMPDEST PUSH1 0x0 DUP2 SWAP1 POP SWAP2 SWAP1 POP JUMP JUMPDEST PUSH1 0x0 PUSH3 0x6A4 PUSH3 0x69E PUSH3 0x698 DUP5 PUSH3 0x66F JUMP JUMPDEST PUSH3 0x679 JUMP JUMPDEST PUSH3 0x66F JUMP JUMPDEST SWAP1 POP SWAP2 SWAP1 POP JUMP JUMPDEST PUSH1 0x0 DUP2 SWAP1 POP SWAP2 SWAP1 POP JUMP JUMPDEST PUSH3 0x6C0 DUP4 PUSH3 0x683 JUMP JUMPDEST PUSH3 0x6D8 PUSH3 0x6CF DUP3 PUSH3 0x6AB JUMP JUMPDEST DUP5 DUP5 SLOAD PUSH3 0x619 JUMP JUMPDEST DUP3 SSTORE POP POP POP POP JUMP JUMPDEST PUSH1 0x0 SWAP1 JUMP JUMPDEST PUSH3 0x6EF PUSH3 0x6E0 JUMP JUMPDEST PUSH3 0x6FC DUP2 DUP5 DUP5 PUSH3 0x6B5 JUMP JUMPDEST POP POP POP JUMP JUMPDEST JUMPDEST DUP2 DUP2 LT ISZERO PUSH3 0x724 JUMPI PUSH3 0x718 PUSH1 0x0 DUP3 PUSH3 0x6E5 JUMP JUMPDEST PUSH1 0x1 DUP2 ADD SWAP1 POP PUSH3 0x702 JUMP JUMPDEST POP POP JUMP JUMPDEST PUSH1 0x1F DUP3 GT ISZERO PUSH3 0x773 JUMPI PUSH3 0x73D DUP2 PUSH3 0x5E7 JUMP JUMPDEST PUSH3 0x748 DUP5 PUSH3 0x5FC JUMP JUMPDEST DUP2 ADD PUSH1 0x20 DUP6 LT ISZERO PUSH3 0x758 JUMPI DUP2 SWAP1 POP JUMPDEST PUSH3 0x770 PUSH3 0x767 DUP6 PUSH3 0x5FC JUMP JUMPDEST DUP4 ADD DUP3 PUSH3 0x701 JUMP JUMPDEST POP POP JUMPDEST POP POP POP JUMP JUMPDEST PUSH1 0x0 DUP3 DUP3 SHR SWAP1 POP SWAP3 SWAP2 POP POP JUMP JUMPDEST PUSH1 0x0 PUSH3 0x798 PUSH1 0x0 NOT DUP5 PUSH1 0x8 MUL PUSH3 0x778 JUMP JUMPDEST NOT DUP1 DUP4 AND SWAP2 POP POP SWAP3 SWAP2 POP POP JUMP JUMPDEST PUSH1 0x0 PUSH3 0x7B3 DUP4 DUP4 PUSH3 0x785 JUMP JUMPDEST SWAP2 POP DUP3 PUSH1 0x2 MUL DUP3 OR SWAP1 POP SWAP3 SWAP2 POP POP JUMP JUMPDEST PUSH3 0x7CE DUP3 PUSH3 0x578 JUMP JUMPDEST PUSH8 0xFFFFFFFFFFFFFFFF DUP2 GT ISZERO PUSH3 0x7EA JUMPI PUSH3 0x7E9 PUSH3 0x37A JUMP JUMPDEST JUMPDEST PUSH3 0x7F6 DUP3 SLOAD PUSH3 0x5B2 JUMP JUMPDEST PUSH3 0x803 DUP3 DUP3 DUP6 PUSH3 0x728 JUMP JUMPDEST PUSH1 0x0 PUSH1 0x20 SWAP1 POP PUSH1 0x1F DUP4 GT PUSH1 0x1 DUP2 EQ PUSH3 0x83B JUMPI PUSH1 0x0 DUP5 ISZERO PUSH3 0x826 JUMPI DUP3 DUP8 ADD MLOAD SWAP1 POP JUMPDEST PUSH3 0x832 DUP6 DUP3 PUSH3 0x7A5 JUMP JUMPDEST DUP7 SSTORE POP PUSH3 0x8A2 JUMP JUMPDEST PUSH1 0x1F NOT DUP5 AND PUSH3 0x84B DUP7 PUSH3 0x5E7 JUMP JUMPDEST PUSH1 0x0 JUMPDEST DUP3 DUP2 LT ISZERO PUSH3 0x875 JUMPI DUP5 DUP10 ADD MLOAD DUP3 SSTORE PUSH1 0x1 DUP3 ADD SWAP2 POP PUSH1 0x20 DUP6 ADD SWAP5 POP PUSH1 0x20 DUP2 ADD SWAP1 POP PUSH3 0x84E JUMP JUMPDEST DUP7 DUP4 LT ISZERO PUSH3 0x895 JUMPI DUP5 DUP10 ADD MLOAD PUSH3 0x891 PUSH1 0x1F DUP10 AND DUP3 PUSH3 0x785 JUMP JUMPDEST DUP4 SSTORE POP JUMPDEST PUSH1 0x1 PUSH1 0x2 DUP9 MUL ADD DUP9 SSTORE POP POP POP JUMPDEST POP POP POP POP POP POP JUMP JUMPDEST PUSH3 0x8B5 DUP2 PUSH3 0x306 JUMP JUMPDEST DUP3 MSTORE POP POP JUMP JUMPDEST PUSH3 0x8C6 DUP2 PUSH3 0x66F JUMP JUMPDEST DUP3 MSTORE POP POP JUMP JUMPDEST PUSH1 0x0 DUP3 DUP3 MSTORE PUSH1 0x20 DUP3 ADD SWAP1 POP SWAP3 SWAP2 POP POP JUMP JUMPDEST PUSH1 0x0 PUSH3 0x8EA DUP3 PUSH3 0x578 JUMP JUMPDEST PUSH3 0x8F6 DUP2 DUP6 PUSH3 0x8CC JUMP JUMPDEST SWAP4 POP PUSH3 0x908 DUP2 DUP6 PUSH1 0x20 DUP7 ADD PUSH3 0x434 JUMP JUMPDEST PUSH3 0x913 DUP2 PUSH3 0x369 JUMP JUMPDEST DUP5 ADD SWAP2 POP POP SWAP3 SWAP2 POP POP JUMP JUMPDEST PUSH1 0x0 PUSH1 0x80 DUP3 ADD SWAP1 POP PUSH3 0x935 PUSH1 0x0 DUP4 ADD DUP8 PUSH3 0x8AA JUMP JUMPDEST PUSH3 0x944 PUSH1 0x20 DUP4 ADD DUP7 PUSH3 0x8BB JUMP JUMPDEST PUSH3 0x953 PUSH1 0x40 DUP4 ADD DUP6 PUSH3 0x8BB JUMP JUMPDEST DUP2 DUP2 SUB PUSH1 0x60 DUP4 ADD MSTORE PUSH3 0x967 DUP2 DUP5 PUSH3 0x8DD JUMP JUMPDEST SWAP1 POP SWAP6 SWAP5 POP POP POP POP POP JUMP JUMPDEST PUSH2 0x2003 DUP1 PUSH3 0x982 PUSH1 0x0 CODECOPY PUSH1 0x0 RETURN INVALID PUSH1 0x80 PUSH1 0x40 MSTORE CALLVALUE DUP1 ISZERO PUSH2 0x10 JUMPI PUSH1 0x0 DUP1 REVERT JUMPDEST POP PUSH1 0x4 CALLDATASIZE LT PUSH2 0xCF JUMPI PUSH1 0x0 CALLDATALOAD PUSH1 0xE0 SHR DUP1 PUSH4 0xD2970C57 GT PUSH2 0x8C JUMPI DUP1 PUSH4 0xF31C5891 GT PUSH2 0x66 JUMPI DUP1 PUSH4 0xF31C5891 EQ PUSH2 0x1EE JUMPI DUP1 PUSH4 0xF75D64A6 EQ PUSH2 0x20C JUMPI DUP1 PUSH4 0xF95CC860 EQ PUSH2 0x22A JUMPI DUP1 PUSH4 0xFD057C56 EQ PUSH2 0x248 JUMPI PUSH2 0xCF JUMP JUMPDEST DUP1 PUSH4 0xD2970C57 EQ PUSH2 0x196 JUMPI DUP1 PUSH4 0xDA12103D EQ PUSH2 0x1B4 JUMPI DUP1 PUSH4 0xEA0217CF EQ PUSH2 0x1D2 JUMPI PUSH2 0xCF JUMP JUMPDEST DUP1 PUSH4 0x121B93F EQ PUSH2 0xD4 JUMPI DUP1 PUSH4 0x23D1C95E EQ PUSH2 0xF0 JUMPI DUP1 PUSH4 0x5D475FDD EQ PUSH2 0x10C JUMPI DUP1 PUSH4 0x627F0C28 EQ PUSH2 0x128 JUMPI DUP1 PUSH4 0x725AE3DC EQ PUSH2 0x146 JUMPI DUP1 PUSH4 0xB9C503CA EQ PUSH2 0x164 JUMPI JUMPDEST PUSH1 0x0 DUP1 REVERT JUMPDEST PUSH2 0xEE PUSH1 0x4 DUP1 CALLDATASIZE SUB DUP2 ADD SWAP1 PUSH2 0xE9 SWAP2 SWAP1 PUSH2 0x14DB JUMP JUMPDEST PUSH2 0x266 JUMP JUMPDEST STOP JUMPDEST PUSH2 0x10A PUSH1 0x4 DUP1 CALLDATASIZE SUB DUP2 ADD SWAP1 PUSH2 0x105 SWAP2 SWAP1 PUSH2 0x164E JUMP JUMPDEST PUSH2 0x6EF JUMP JUMPDEST STOP JUMPDEST PUSH2 0x126 PUSH1 0x4 DUP1 CALLDATASIZE SUB DUP2 ADD SWAP1 PUSH2 0x121 SWAP2 SWAP1 PUSH2 0x14DB JUMP JUMPDEST PUSH2 0x9BD JUMP JUMPDEST STOP JUMPDEST PUSH2 0x130 PUSH2 0x9EF JUMP JUMPDEST PUSH1 0x40 MLOAD PUSH2 0x13D SWAP2 SWAP1 PUSH2 0x16D5 JUMP JUMPDEST PUSH1 0x40 MLOAD DUP1 SWAP2 SUB SWAP1 RETURN JUMPDEST PUSH2 0x14E PUSH2 0x9F5 JUMP JUMPDEST PUSH1 0x40 MLOAD PUSH2 0x15B SWAP2 SWAP1 PUSH2 0x16D5 JUMP JUMPDEST PUSH1 0x40 MLOAD DUP1 SWAP2 SUB SWAP1 RETURN JUMPDEST PUSH2 0x17E PUSH1 0x4 DUP1 CALLDATASIZE SUB DUP2 ADD SWAP1 PUSH2 0x179 SWAP2 SWAP1 PUSH2 0x16F0 JUMP JUMPDEST PUSH2 0x9FB JUMP JUMPDEST PUSH1 0x40 MLOAD PUSH2 0x18D SWAP4 SWAP3 SWAP2 SWAP1 PUSH2 0x17AF JUMP JUMPDEST PUSH1 0x40 MLOAD DUP1 SWAP2 SUB SWAP1 RETURN JUMPDEST PUSH2 0x19E PUSH2 0xB42 JUMP JUMPDEST PUSH1 0x40 MLOAD PUSH2 0x1AB SWAP2 SWAP1 PUSH2 0x16D5 JUMP JUMPDEST PUSH1 0x40 MLOAD DUP1 SWAP2 SUB SWAP1 RETURN JUMPDEST PUSH2 0x1BC PUSH2 0xB48 JUMP JUMPDEST PUSH1 0x40 MLOAD PUSH2 0x1C9 SWAP2 SWAP1 PUSH2 0x16D5 JUMP JUMPDEST PUSH1 0x40 MLOAD DUP1 SWAP2 SUB SWAP1 RETURN JUMPDEST PUSH2 0x1EC PUSH1 0x4 DUP1 CALLDATASIZE SUB DUP2 ADD SWAP1 PUSH2 0x1E7 SWAP2 SWAP1 PUSH2 0x14DB JUMP JUMPDEST PUSH2 0xB4E JUMP JUMPDEST STOP JUMPDEST PUSH2 0x1F6 PUSH2 0xB80 JUMP JUMPDEST PUSH1 0x40 MLOAD PUSH2 0x203 SWAP2 SWAP1 PUSH2 0x16D5 JUMP JUMPDEST PUSH1 0x40 MLOAD DUP1 SWAP2 SUB SWAP1 RETURN JUMPDEST PUSH2 0x214 PUSH2 0xB86 JUMP JUMPDEST PUSH1 0x40 MLOAD PUSH2 0x221 SWAP2 SWAP1 PUSH2 0x186B JUMP JUMPDEST PUSH1 0x40 MLOAD DUP1 SWAP2 SUB SWAP1 RETURN JUMPDEST PUSH2 0x232 PUSH2 0xD5F JUMP JUMPDEST PUSH1 0x40 MLOAD PUSH2 0x23F SWAP2 SWAP1 PUSH2 0x16D5 JUMP JUMPDEST PUSH1 0x40 MLOAD DUP1 SWAP2 SUB SWAP1 RETURN JUMPDEST PUSH2 0x250 PUSH2 0xD65 JUMP JUMPDEST PUSH1 0x40 MLOAD PUSH2 0x25D SWAP2 SWAP1 PUSH2 0x16D5 JUMP JUMPDEST PUSH1 0x40 MLOAD DUP1 SWAP2 SUB SWAP1 RETURN JUMPDEST PUSH2 0x27A PUSH8 0x41E7E3BA28E4C8EE PUSH1 0xC0 SHL PUSH2 0xF98 JUMP JUMPDEST PUSH2 0x28E PUSH8 0xD3205128EFC72218 PUSH1 0xC0 SHL PUSH2 0xF98 JUMP JUMPDEST PUSH2 0x2A2 PUSH8 0x42A420A6C786DC0E PUSH1 0xC0 SHL PUSH2 0xF98 JUMP JUMPDEST PUSH2 0x2B6 PUSH8 0x702CBF847C92D1B2 PUSH1 0xC0 SHL PUSH2 0xF98 JUMP JUMPDEST PUSH1 0x3 SLOAD DUP2 GT ISZERO PUSH2 0x2FB JUMPI PUSH1 0x40 MLOAD PUSH32 0x8C379A000000000000000000000000000000000000000000000000000000000 DUP2 MSTORE PUSH1 0x4 ADD PUSH2 0x2F2 SWAP1 PUSH2 0x18D2 JUMP JUMPDEST PUSH1 0x40 MLOAD DUP1 SWAP2 SUB SWAP1 REVERT JUMPDEST PUSH2 0x30F PUSH8 0x22B6CF3598055DCE PUSH1 0xC0 SHL PUSH2 0xF98 JUMP JUMPDEST PUSH2 0x323 PUSH8 0x2096894C421805AA PUSH1 0xC0 SHL PUSH2 0xF98 JUMP JUMPDEST PUSH2 0x337 PUSH8 0x45F1C57CAD61E10F PUSH1 0xC0 SHL PUSH2 0xF98 JUMP JUMPDEST PUSH2 0x34B PUSH8 0xA0A0AB4168A549DD PUSH1 0xC0 SHL PUSH2 0xF98 JUMP JUMPDEST PUSH1 0x2 PUSH1 0x3 DUP2 GT ISZERO PUSH2 0x35F JUMPI PUSH2 0x35E PUSH2 0x17F4 JUMP JUMPDEST JUMPDEST PUSH2 0x367 PUSH2 0xB86 JUMP JUMPDEST PUSH1 0x3 DUP2 GT ISZERO PUSH2 0x379 JUMPI PUSH2 0x378 PUSH2 0x17F4 JUMP JUMPDEST JUMPDEST EQ PUSH2 0x3B9 JUMPI PUSH1 0x40 MLOAD PUSH32 0x8C379A000000000000000000000000000000000000000000000000000000000 DUP2 MSTORE PUSH1 0x4 ADD PUSH2 0x3B0 SWAP1 PUSH2 0x193E JUMP JUMPDEST PUSH1 0x40 MLOAD DUP1 SWAP2 SUB SWAP1 REVERT JUMPDEST PUSH2 0x3CD PUSH8 0xDC63A9230714CBED PUSH1 0xC0 SHL PUSH2 0xF98 JUMP JUMPDEST PUSH2 0x3E1 PUSH8 0x18D00A29A2AAFF14 PUSH1 0xC0 SHL PUSH2 0xF98 JUMP JUMPDEST PUSH2 0x3F5 PUSH8 0x150FE0847490CF90 PUSH1 0xC0 SHL PUSH2 0xF98 JUMP JUMPDEST PUSH1 0x0 PUSH1 0x1 PUSH1 0x0 PUSH1 0x2 SLOAD DUP2 MSTORE PUSH1 0x20 ADD SWAP1 DUP2 MSTORE PUSH1 0x20 ADD PUSH1 0x0 KECCAK256 PUSH1 0x0 DUP4 DUP2 MSTORE PUSH1 0x20 ADD SWAP1 DUP2 MSTORE PUSH1 0x20 ADD PUSH1 0x0 KECCAK256 SWAP1 POP PUSH2 0x433 PUSH8 0x198E0E951C96DC1 PUSH1 0xC0 SHL PUSH2 0xF98 JUMP JUMPDEST PUSH2 0x447 PUSH8 0xB7284855E87B989A PUSH1 0xC0 SHL PUSH2 0xF98 JUMP JUMPDEST PUSH2 0x45B PUSH8 0xE5FF8553CDEF3649 PUSH1 0xC0 SHL PUSH2 0xF98 JUMP JUMPDEST DUP1 PUSH1 0x3 ADD PUSH1 0x0 CALLER PUSH20 0xFFFFFFFFFFFFFFFFFFFFFFFFFFFFFFFFFFFFFFFF AND PUSH20 0xFFFFFFFFFFFFFFFFFFFFFFFFFFFFFFFFFFFFFFFF AND DUP2 MSTORE PUSH1 0x20 ADD SWAP1 DUP2 MSTORE PUSH1 0x20 ADD PUSH1 0x0 KECCAK256 PUSH1 0x1 ADD PUSH1 0x0 SWAP1 SLOAD SWAP1 PUSH2 0x100 EXP SWAP1 DIV PUSH1 0xFF AND ISZERO PUSH2 0x4ED JUMPI PUSH1 0x40 MLOAD PUSH32 0x8C379A000000000000000000000000000000000000000000000000000000000 DUP2 MSTORE PUSH1 0x4 ADD PUSH2 0x4E4 SWAP1 PUSH2 0x19AA JUMP JUMPDEST PUSH1 0x40 MLOAD DUP1 SWAP2 SUB SWAP1 REVERT JUMPDEST PUSH2 0x501 PUSH8 0x55F9D4DE9076AEEA PUSH1 0xC0 SHL PUSH2 0xF98 JUMP JUMPDEST PUSH2 0x515 PUSH8 0xC71A65D9836AFC80 PUSH1 0xC0 SHL PUSH2 0xF98 JUMP JUMPDEST PUSH2 0x529 PUSH8 0x34DC8A8B1166EC66 PUSH1 0xC0 SHL PUSH2 0xF98 JUMP JUMPDEST PUSH1 0x0 DUP2 PUSH1 0x3 ADD PUSH1 0x0 CALLER PUSH20 0xFFFFFFFFFFFFFFFFFFFFFFFFFFFFFFFFFFFFFFFF AND PUSH20 0xFFFFFFFFFFFFFFFFFFFFFFFFFFFFFFFFFFFFFFFF AND DUP2 MSTORE PUSH1 0x20 ADD SWAP1 DUP2 MSTORE PUSH1 0x20 ADD PUSH1 0x0 KECCAK256 SWAP1 POP PUSH2 0x582 PUSH8 0x8DADC3EDA56E79FD PUSH1 0xC0 SHL PUSH2 0xF98 JUMP JUMPDEST PUSH2 0x58B CALLER PUSH2 0xF9B JUMP JUMPDEST DUP2 PUSH1 0x0 ADD DUP2 SWAP1 SSTORE POP PUSH2 0x5A7 PUSH8 0x5DDC060A0EBAA901 PUSH1 0xC0 SHL PUSH2 0xF98 JUMP JUMPDEST PUSH1 0x1 DUP2 PUSH1 0x1 ADD PUSH1 0x0 PUSH2 0x100 EXP DUP2 SLOAD DUP2 PUSH1 0xFF MUL NOT AND SWAP1 DUP4 ISZERO ISZERO MUL OR SWAP1 SSTORE POP PUSH2 0x5D8 PUSH8 0xF8140552CCEB1E72 PUSH1 0xC0 SHL PUSH2 0xF98 JUMP JUMPDEST DUP1 PUSH1 0x0 ADD SLOAD DUP3 PUSH1 0x2 ADD PUSH1 0x0 DUP3 DUP3 SLOAD PUSH2 0x5F0 SWAP2 SWAP1 PUSH2 0x19F9 JUMP JUMPDEST SWAP3 POP POP DUP2 SWAP1 SSTORE POP PUSH2 0x60B PUSH8 0xB0A624CF6F069706 PUSH1 0xC0 SHL PUSH2 0xF98 JUMP JUMPDEST PUSH2 0x61F PUSH8 0xAB1D47B2F7248961 PUSH1 0xC0 SHL PUSH2 0xF98 JUMP JUMPDEST PUSH32 0xEA66F58E474BC09F580000E81F31B334D171DB387D0C6098BA47BD897741679B CALLER PUSH1 0x2 SLOAD DUP6 PUSH1 0x40 MLOAD PUSH2 0x654 SWAP4 SWAP3 SWAP2 SWAP1 PUSH2 0x1A6E JUMP JUMPDEST PUSH1 0x40 MLOAD DUP1 SWAP2 SUB SWAP1 LOG1 PUSH2 0x670 PUSH8 0xE64A386563DEC6D0 PUSH1 0xC0 SHL PUSH2 0xF98 JUMP JUMPDEST PUSH2 0x684 PUSH8 0xA9F9A8B36AFA5346 PUSH1 0xC0 SHL PUSH2 0xF98 JUMP JUMPDEST PUSH2 0x692 PUSH1 0x2 SLOAD PUSH1 0x4 SLOAD PUSH2 0xFE2 JUMP JUMPDEST PUSH1 0x2 ADD SLOAD DUP3 PUSH1 0x2 ADD SLOAD GT ISZERO PUSH2 0x6D5 JUMPI PUSH2 0x6B5 PUSH8 0xCF047616D2459725 PUSH1 0xC0 SHL PUSH2 0xF98 JUMP JUMPDEST PUSH2 0x6C9 PUSH8 0xF8ED90224CADC4D0 PUSH1 0xC0 SHL PUSH2 0xF98 JUMP JUMPDEST DUP3 PUSH1 0x4 DUP2 SWAP1 SSTORE POP PUSH2 0x6EA JUMP JUMPDEST PUSH2 0x6E9 PUSH8 0xDC0C42ED3D492B97 PUSH1 0xC0 SHL PUSH2 0xF98 JUMP JUMPDEST JUMPDEST POP POP POP JUMP JUMPDEST PUSH2 0x703 PUSH8 0xB41FF041E4DEBD15 PUSH1 0xC0 SHL PUSH2 0xF98 JUMP JUMPDEST PUSH2 0x717 PUSH8 0xE466548DE78A4E7F PUSH1 0xC0 SHL PUSH2 0xF98 JUMP JUMPDEST PUSH2 0x72B PUSH8 0x94A850D50FDB3974 PUSH1 0xC0 SHL PUSH2 0xF98 JUMP JUMPDEST PUSH1 0x0 PUSH2 0x735 PUSH2 0xB86 JUMP JUMPDEST SWAP1 POP PUSH2 0x74B PUSH8 0x761F31C49C03AE98 PUSH1 0xC0 SHL PUSH2 0xF98 JUMP JUMPDEST PUSH2 0x75F PUSH8 0xADE4EA112F2E8A2 PUSH1 0xC0 SHL PUSH2 0xF98 JUMP JUMPDEST PUSH1 0x0 PUSH1 0x3 DUP2 GT ISZERO PUSH2 0x773 JUMPI PUSH2 0x772 PUSH2 0x17F4 JUMP JUMPDEST JUMPDEST DUP2 PUSH1 0x3 DUP2 GT ISZERO PUSH2 0x786 JUMPI PUSH2 0x785 PUSH2 0x17F4 JUMP JUMPDEST JUMPDEST SUB PUSH2 0x7D6 JUMPI PUSH2 0x79F PUSH8 0x8075DBEA2BB19272 PUSH1 0xC0 SHL PUSH2 0xF98 JUMP JUMPDEST PUSH2 0x7B3 PUSH8 0x7FFDE914532ED9A4 PUSH1 0xC0 SHL PUSH2 0xF98 JUMP JUMPDEST PUSH2 0x7C7 PUSH8 0x643F3F8CC0B8964A PUSH1 0xC0 SHL PUSH2 0xF98 JUMP JUMPDEST PUSH2 0x7D1 DUP4 DUP4 PUSH2 0x104C JUMP JUMPDEST PUSH2 0x9B8 JUMP JUMPDEST PUSH2 0x7EA PUSH8 0xA51FD4FDD659DDF9 PUSH1 0xC0 SHL PUSH2 0xF98 JUMP JUMPDEST PUSH2 0x7FE PUSH8 0xF3E77950D65C327E PUSH1 0xC0 SHL PUSH2 0xF98 JUMP JUMPDEST PUSH1 0x1 PUSH1 0x3 DUP2 GT ISZERO PUSH2 0x812 JUMPI PUSH2 0x811 PUSH2 0x17F4 JUMP JUMPDEST JUMPDEST DUP2 PUSH1 0x3 DUP2 GT ISZERO PUSH2 0x825 JUMPI PUSH2 0x824 PUSH2 0x17F4 JUMP JUMPDEST JUMPDEST SUB PUSH2 0x875 JUMPI PUSH2 0x83E PUSH8 0xE2EE30B4F5BBA78E PUSH1 0xC0 SHL PUSH2 0xF98 JUMP JUMPDEST PUSH2 0x852 PUSH8 0x21E99452E4323908 PUSH1 0xC0 SHL PUSH2 0xF98 JUMP JUMPDEST PUSH2 0x866 PUSH8 0xB112F127167EB87E PUSH1 0xC0 SHL PUSH2 0xF98 JUMP JUMPDEST PUSH2 0x870 DUP4 DUP4 PUSH2 0x1220 JUMP JUMPDEST PUSH2 0x9B7 JUMP JUMPDEST PUSH2 0x889 PUSH8 0xD468B39F07E46A9B PUSH1 0xC0 SHL PUSH2 0xF98 JUMP JUMPDEST PUSH2 0x89D PUSH8 0xE3DE4B8CD2369CDC PUSH1 0xC0 SHL PUSH2 0xF98 JUMP JUMPDEST PUSH1 0x2 PUSH1 0x3 DUP2 GT ISZERO PUSH2 0x8B1 JUMPI PUSH2 0x8B0 PUSH2 0x17F4 JUMP JUMPDEST JUMPDEST DUP2 PUSH1 0x3 DUP2 GT ISZERO PUSH2 0x8C4 JUMPI PUSH2 0x8C3 PUSH2 0x17F4 JUMP JUMPDEST JUMPDEST SUB PUSH2 0x940 JUMPI PUSH2 0x8DD PUSH8 0xA5F7B5F988038C94 PUSH1 0xC0 SHL PUSH2 0xF98 JUMP JUMPDEST PUSH2 0x8F1 PUSH8 0x764FDC85EEE15C74 PUSH1 0xC0 SHL PUSH2 0xF98 JUMP JUMPDEST PUSH2 0x905 PUSH8 0xAA06D83CBD05C8C7 PUSH1 0xC0 SHL PUSH2 0xF98 JUMP JUMPDEST PUSH1 0x40 MLOAD PUSH32 0x8C379A000000000000000000000000000000000000000000000000000000000 DUP2 MSTORE PUSH1 0x4 ADD PUSH2 0x937 SWAP1 PUSH2 0x1B17 JUMP JUMPDEST PUSH1 0x40 MLOAD DUP1 SWAP2 SUB SWAP1 REVERT JUMPDEST PUSH2 0x954 PUSH8 0x971BC524A02E5373 PUSH1 0xC0 SHL PUSH2 0xF98 JUMP JUMPDEST PUSH2 0x968 PUSH8 0x78515748FC01D4A0 PUSH1 0xC0 SHL PUSH2 0xF98 JUMP JUMPDEST PUSH2 0x97C PUSH8 0x3B5932EE8711C616 PUSH1 0xC0 SHL PUSH2 0xF98 JUMP JUMPDEST PUSH1 0x40 MLOAD PUSH32 0x8C379A000000000000000000000000000000000000000000000000000000000 DUP2 MSTORE PUSH1 0x4 ADD PUSH2 0x9AE SWAP1 PUSH2 0x1BA9 JUMP JUMPDEST PUSH1 0x40 MLOAD DUP1 SWAP2 SUB SWAP1 REVERT JUMPDEST JUMPDEST POP POP POP JUMP JUMPDEST PUSH2 0x9D1 PUSH8 0x4AED7E33DB90F97F PUSH1 0xC0 SHL PUSH2 0xF98 JUMP JUMPDEST PUSH2 0x9E5 PUSH8 0xAFACACD380749B6A PUSH1 0xC0 SHL PUSH2 0xF98 JUMP JUMPDEST DUP1 PUSH1 0x6 DUP2 SWAP1 SSTORE POP POP JUMP JUMPDEST PUSH1 0x2 SLOAD DUP2 JUMP JUMPDEST PUSH1 0x7 SLOAD DUP2 JUMP JUMPDEST PUSH1 0x1 PUSH1 0x20 MSTORE DUP2 PUSH1 0x0 MSTORE PUSH1 0x40 PUSH1 0x0 KECCAK256 PUSH1 0x20 MSTORE DUP1 PUSH1 0x0 MSTORE PUSH1 0x40 PUSH1 0x0 KECCAK256 PUSH1 0x0 SWAP2 POP SWAP2 POP POP DUP1 PUSH1 0x0 ADD DUP1 SLOAD PUSH2 0xA2B SWAP1 PUSH2 0x1BF8 JUMP JUMPDEST DUP1 PUSH1 0x1F ADD PUSH1 0x20 DUP1 SWAP2 DIV MUL PUSH1 0x20 ADD PUSH1 0x40 MLOAD SWAP1 DUP2 ADD PUSH1 0x40 MSTORE DUP1 SWAP3 SWAP2 SWAP1 DUP2 DUP2 MSTORE PUSH1 0x20 ADD DUP3 DUP1 SLOAD PUSH2 0xA57 SWAP1 PUSH2 0x1BF8 JUMP JUMPDEST DUP1 ISZERO PUSH2 0xAA4 JUMPI DUP1 PUSH1 0x1F LT PUSH2 0xA79 JUMPI PUSH2 0x100 DUP1 DUP4 SLOAD DIV MUL DUP4 MSTORE SWAP2 PUSH1 0x20 ADD SWAP2 PUSH2 0xAA4 JUMP JUMPDEST DUP3 ADD SWAP2 SWAP1 PUSH1 0x0 MSTORE PUSH1 0x20 PUSH1 0x0 KECCAK256 SWAP1 JUMPDEST DUP2 SLOAD DUP2 MSTORE SWAP1 PUSH1 0x1 ADD SWAP1 PUSH1 0x20 ADD DUP1 DUP4 GT PUSH2 0xA87 JUMPI DUP3 SWAP1 SUB PUSH1 0x1F AND DUP3 ADD SWAP2 JUMPDEST POP POP POP POP POP SWAP1 DUP1 PUSH1 0x1 ADD DUP1 SLOAD PUSH2 0xAB9 SWAP1 PUSH2 0x1BF8 JUMP JUMPDEST DUP1 PUSH1 0x1F ADD PUSH1 0x20 DUP1 SWAP2 DIV MUL PUSH1 0x20 ADD PUSH1 0x40 MLOAD SWAP1 DUP2 ADD PUSH1 0x40 MSTORE DUP1 SWAP3 SWAP2 SWAP1 DUP2 DUP2 MSTORE PUSH1 0x20 ADD DUP3 DUP1 SLOAD PUSH2 0xAE5 SWAP1 PUSH2 0x1BF8 JUMP JUMPDEST DUP1 ISZERO PUSH2 0xB32 JUMPI DUP1 PUSH1 0x1F LT PUSH2 0xB07 JUMPI PUSH2 0x100 DUP1 DUP4 SLOAD DIV MUL DUP4 MSTORE SWAP2 PUSH1 0x20 ADD SWAP2 PUSH2 0xB32 JUMP JUMPDEST DUP3 ADD SWAP2 SWAP1 PUSH1 0x0 MSTORE PUSH1 0x20 PUSH1 0x0 KECCAK256 SWAP1 JUMPDEST DUP2 SLOAD DUP2 MSTORE SWAP1 PUSH1 0x1 ADD SWAP1 PUSH1 0x20 ADD DUP1 DUP4 GT PUSH2 0xB15 JUMPI DUP3 SWAP1 SUB PUSH1 0x1F AND DUP3 ADD SWAP2 JUMPDEST POP POP POP POP POP SWAP1 DUP1 PUSH1 0x2 ADD SLOAD SWAP1 POP DUP4 JUMP JUMPDEST PUSH1 0x5 SLOAD DUP2 JUMP JUMPDEST PUSH1 0x4 SLOAD DUP2 JUMP JUMPDEST PUSH2 0xB62 PUSH8 0xACD6A348EDDBEE0D PUSH1 0xC0 SHL PUSH2 0xF98 JUMP JUMPDEST PUSH2 0xB76 PUSH8 0x3F460FECF811ECA9 PUSH1 0xC0 SHL PUSH2 0xF98 JUMP JUMPDEST DUP1 PUSH1 0x7 DUP2 SWAP1 SSTORE POP POP JUMP JUMPDEST PUSH1 0x6 SLOAD DUP2 JUMP JUMPDEST PUSH1 0x0 PUSH2 0xB9C PUSH8 0xE8EB0DDBED80634E PUSH1 0xC0 SHL PUSH2 0xF98 JUMP JUMPDEST PUSH2 0xBB0 PUSH8 0x2F4B7B5683BA59D5 PUSH1 0xC0 SHL PUSH2 0xF98 JUMP JUMPDEST PUSH2 0xBC4 PUSH8 0x726B2128F4372703 PUSH1 0xC0 SHL PUSH2 0xF98 JUMP JUMPDEST PUSH1 0x7 SLOAD PUSH1 0x6 SLOAD PUSH1 0x5 SLOAD PUSH2 0xBD7 SWAP2 SWAP1 PUSH2 0x19F9 JUMP JUMPDEST PUSH2 0xBE1 SWAP2 SWAP1 PUSH2 0x19F9 JUMP JUMPDEST NUMBER GT ISZERO PUSH2 0xC19 JUMPI PUSH2 0xBFC PUSH8 0x601533878C66D707 PUSH1 0xC0 SHL PUSH2 0xF98 JUMP JUMPDEST PUSH2 0xC10 PUSH8 0x665F16371B1996D9 PUSH1 0xC0 SHL PUSH2 0xF98 JUMP JUMPDEST PUSH1 0x0 SWAP1 POP PUSH2 0xD5C JUMP JUMPDEST PUSH2 0xC2D PUSH8 0x5E73AD13B0B917A3 PUSH1 0xC0 SHL PUSH2 0xF98 JUMP JUMPDEST PUSH2 0xC41 PUSH8 0x54A638C34BF248F8 PUSH1 0xC0 SHL PUSH2 0xF98 JUMP JUMPDEST NUMBER PUSH1 0x5 SLOAD LT DUP1 ISZERO PUSH2 0xC60 JUMPI POP PUSH1 0x6 SLOAD PUSH1 0x5 SLOAD PUSH2 0xC5D SWAP2 SWAP1 PUSH2 0x19F9 JUMP JUMPDEST NUMBER LT JUMPDEST ISZERO PUSH2 0xC96 JUMPI PUSH2 0xC79 PUSH8 0x8A0B60B8EAB496DF PUSH1 0xC0 SHL PUSH2 0xF98 JUMP JUMPDEST PUSH2 0xC8D PUSH8 0x3DC50C38D5C98490 PUSH1 0xC0 SHL PUSH2 0xF98 JUMP JUMPDEST PUSH1 0x1 SWAP1 POP PUSH2 0xD5B JUMP JUMPDEST PUSH2 0xCAA PUSH8 0xFDEC373F9BD20EBA PUSH1 0xC0 SHL PUSH2 0xF98 JUMP JUMPDEST PUSH2 0xCBE PUSH8 0xFA4EA3AAB6BCC7A8 PUSH1 0xC0 SHL PUSH2 0xF98 JUMP JUMPDEST NUMBER PUSH1 0x6 SLOAD PUSH1 0x5 SLOAD PUSH2 0xCCF SWAP2 SWAP1 PUSH2 0x19F9 JUMP JUMPDEST LT DUP1 ISZERO PUSH2 0xCF7 JUMPI POP PUSH1 0x7 SLOAD PUSH1 0x6 SLOAD PUSH1 0x5 SLOAD PUSH2 0xCEA SWAP2 SWAP1 PUSH2 0x19F9 JUMP JUMPDEST PUSH2 0xCF4 SWAP2 SWAP1 PUSH2 0x19F9 JUMP JUMPDEST NUMBER LT JUMPDEST ISZERO PUSH2 0xD2D JUMPI PUSH2 0xD10 PUSH8 0x8F348E4F501A9BF0 PUSH1 0xC0 SHL PUSH2 0xF98 JUMP JUMPDEST PUSH2 0xD24 PUSH8 0xFEE64882888A1967 PUSH1 0xC0 SHL PUSH2 0xF98 JUMP JUMPDEST PUSH1 0x2 SWAP1 POP PUSH2 0xD5A JUMP JUMPDEST PUSH2 0xD41 PUSH8 0xBC4DBBD00AE687F4 PUSH1 0xC0 SHL PUSH2 0xF98 JUMP JUMPDEST PUSH2 0xD55 PUSH8 0x54181FED10E40C23 PUSH1 0xC0 SHL PUSH2 0xF98 JUMP JUMPDEST PUSH1 0x3 SWAP1 POP JUMPDEST JUMPDEST JUMPDEST SWAP1 JUMP JUMPDEST PUSH1 0x3 SLOAD DUP2 JUMP JUMPDEST PUSH1 0x0 PUSH2 0xD7B PUSH8 0x4AB78376B7403885 PUSH1 0xC0 SHL PUSH2 0xF98 JUMP JUMPDEST PUSH2 0xD8F PUSH8 0x2690695AFB31B7C1 PUSH1 0xC0 SHL PUSH2 0xF98 JUMP JUMPDEST PUSH2 0xDA3 PUSH8 0xBA77DE6F6A7DB74A PUSH1 0xC0 SHL PUSH2 0xF98 JUMP JUMPDEST PUSH1 0x0 PUSH2 0xDAD PUSH2 0xB86 JUMP JUMPDEST SWAP1 POP PUSH2 0xDC3 PUSH8 0x685695F9E77F638A PUSH1 0xC0 SHL PUSH2 0xF98 JUMP JUMPDEST PUSH2 0xDD7 PUSH8 0x905DDE883A50CC33 PUSH1 0xC0 SHL PUSH2 0xF98 JUMP JUMPDEST PUSH1 0x1 PUSH1 0x3 DUP2 GT ISZERO PUSH2 0xDEB JUMPI PUSH2 0xDEA PUSH2 0x17F4 JUMP JUMPDEST JUMPDEST DUP2 PUSH1 0x3 DUP2 GT ISZERO PUSH2 0xDFE JUMPI PUSH2 0xDFD PUSH2 0x17F4 JUMP JUMPDEST JUMPDEST SUB PUSH2 0xE4D JUMPI PUSH2 0xE17 PUSH8 0xACC9DDB11C3C18B8 PUSH1 0xC0 SHL PUSH2 0xF98 JUMP JUMPDEST PUSH2 0xE2B PUSH8 0xBA160E0740C1EA2 PUSH1 0xC0 SHL PUSH2 0xF98 JUMP JUMPDEST NUMBER PUSH1 0x6 SLOAD PUSH1 0x5 SLOAD PUSH2 0xE3C SWAP2 SWAP1 PUSH2 0x19F9 JUMP JUMPDEST PUSH2 0xE46 SWAP2 SWAP1 PUSH2 0x1C29 JUMP JUMPDEST SWAP2 POP PUSH2 0xF94 JUMP JUMPDEST PUSH2 0xE61 PUSH8 0x443249E105BF9003 PUSH1 0xC0 SHL PUSH2 0xF98 JUMP JUMPDEST PUSH2 0xE75 PUSH8 0x653CC1C0F83B170 PUSH1 0xC0 SHL PUSH2 0xF98 JUMP JUMPDEST PUSH1 0x2 PUSH1 0x3 DUP2 GT ISZERO PUSH2 0xE89 JUMPI PUSH2 0xE88 PUSH2 0x17F4 JUMP JUMPDEST JUMPDEST DUP2 PUSH1 0x3 DUP2 GT ISZERO PUSH2 0xE9C JUMPI PUSH2 0xE9B PUSH2 0x17F4 JUMP JUMPDEST JUMPDEST SUB PUSH2 0xEF8 JUMPI PUSH2 0xEB5 PUSH8 0x26710DA24C687FFD PUSH1 0xC0 SHL PUSH2 0xF98 JUMP JUMPDEST PUSH2 0xEC9 PUSH8 0xFD49E32CD412DBCF PUSH1 0xC0 SHL PUSH2 0xF98 JUMP JUMPDEST NUMBER PUSH1 0x7 SLOAD PUSH1 0x6 SLOAD PUSH1 0x5 SLOAD PUSH2 0xEDD SWAP2 SWAP1 PUSH2 0x19F9 JUMP JUMPDEST PUSH2 0xEE7 SWAP2 SWAP1 PUSH2 0x19F9 JUMP JUMPDEST PUSH2 0xEF1 SWAP2 SWAP1 PUSH2 0x1C29 JUMP JUMPDEST SWAP2 POP PUSH2 0xF93 JUMP JUMPDEST PUSH2 0xF0C PUSH8 0xF0CD9237CDD785D9 PUSH1 0xC0 SHL PUSH2 0xF98 JUMP JUMPDEST PUSH2 0xF20 PUSH8 0x3B26B92863B2B4B1 PUSH1 0xC0 SHL PUSH2 0xF98 JUMP JUMPDEST PUSH1 0x0 PUSH1 0x3 DUP2 GT ISZERO PUSH2 0xF34 JUMPI PUSH2 0xF33 PUSH2 0x17F4 JUMP JUMPDEST JUMPDEST DUP2 PUSH1 0x3 DUP2 GT ISZERO PUSH2 0xF47 JUMPI PUSH2 0xF46 PUSH2 0x17F4 JUMP JUMPDEST JUMPDEST SUB PUSH2 0xF7D JUMPI PUSH2 0xF60 PUSH8 0xC1926162468539BD PUSH1 0xC0 SHL PUSH2 0xF98 JUMP JUMPDEST PUSH2 0xF74 PUSH8 0xB4AB9290A0C9EEC9 PUSH1 0xC0 SHL PUSH2 0xF98 JUMP JUMPDEST PUSH1 0x0 SWAP2 POP PUSH2 0xF92 JUMP JUMPDEST PUSH2 0xF91 PUSH8 0xB2CF4E2EA783C6A0 PUSH1 0xC0 SHL PUSH2 0xF98 JUMP JUMPDEST JUMPDEST JUMPDEST JUMPDEST POP SWAP1 JUMP JUMPDEST POP JUMP JUMPDEST PUSH1 0x0 PUSH2 0xFB1 PUSH8 0xFE97917B977516E3 PUSH1 0xC0 SHL PUSH2 0xF98 JUMP JUMPDEST PUSH2 0xFC5 PUSH8 0xC3AE080FB4F75316 PUSH1 0xC0 SHL PUSH2 0xF98 JUMP JUMPDEST PUSH2 0xFD9 PUSH8 0x237FD169D87AC32B PUSH1 0xC0 SHL PUSH2 0xF98 JUMP JUMPDEST PUSH1 0x1 SWAP1 POP SWAP2 SWAP1 POP JUMP JUMPDEST PUSH1 0x0 PUSH2 0xFF8 PUSH8 0xD51FE8D64E8EAB56 PUSH1 0xC0 SHL PUSH2 0xF98 JUMP JUMPDEST PUSH2 0x100C PUSH8 0x98A9C0C755B66289 PUSH1 0xC0 SHL PUSH2 0xF98 JUMP JUMPDEST PUSH2 0x1020 PUSH8 0xEB04DFB5B8333338 PUSH1 0xC0 SHL PUSH2 0xF98 JUMP JUMPDEST PUSH1 0x1 PUSH1 0x0 DUP5 DUP2 MSTORE PUSH1 0x20 ADD SWAP1 DUP2 MSTORE PUSH1 0x20 ADD PUSH1 0x0 KECCAK256 PUSH1 0x0 DUP4 DUP2 MSTORE PUSH1 0x20 ADD SWAP1 DUP2 MSTORE PUSH1 0x20 ADD PUSH1 0x0 KECCAK256 SWAP1 POP SWAP3 SWAP2 POP POP JUMP JUMPDEST PUSH2 0x1060 PUSH8 0xB97898D38638D9A PUSH1 0xC0 SHL PUSH2 0xF98 JUMP JUMPDEST PUSH2 0x1074 PUSH8 0x7691213AE326C1F PUSH1 0xC0 SHL PUSH2 0xF98 JUMP JUMPDEST PUSH2 0x1088 PUSH8 0x5BB5B22184F53DF1 PUSH1 0xC0 SHL PUSH2 0xF98 JUMP JUMPDEST PUSH2 0x1090 PUSH2 0x1370 JUMP JUMPDEST PUSH2 0x10A4 PUSH8 0x2A0AB29ED9D840EC PUSH1 0xC0 SHL PUSH2 0xF98 JUMP JUMPDEST NUMBER PUSH1 0x5 DUP2 SWAP1 SSTORE POP PUSH2 0x10BF PUSH8 0xBBF3F701820CCAAD PUSH1 0xC0 SHL PUSH2 0xF98 JUMP JUMPDEST PUSH1 0x1 PUSH1 0x2 PUSH1 0x0 DUP3 DUP3 SLOAD PUSH2 0x10D2 SWAP2 SWAP1 PUSH2 0x19F9 JUMP JUMPDEST SWAP3 POP POP DUP2 SWAP1 SSTORE POP PUSH2 0x10ED PUSH8 0x272BBB1AE2016589 PUSH1 0xC0 SHL PUSH2 0xF98 JUMP JUMPDEST PUSH1 0x1 PUSH1 0x3 DUP2 SWAP1 SSTORE POP PUSH2 0x1109 PUSH8 0xBA806F6EC62629D7 PUSH1 0xC0 SHL PUSH2 0xF98 JUMP JUMPDEST PUSH2 0x111D PUSH8 0x20C40F7184DC4ADD PUSH1 0xC0 SHL PUSH2 0xF98 JUMP JUMPDEST PUSH1 0x0 PUSH1 0x1 PUSH1 0x0 PUSH1 0x2 SLOAD DUP2 MSTORE PUSH1 0x20 ADD SWAP1 DUP2 MSTORE PUSH1 0x20 ADD PUSH1 0x0 KECCAK256 PUSH1 0x0 PUSH1 0x3 SLOAD DUP2 MSTORE PUSH1 0x20 ADD SWAP1 DUP2 MSTORE PUSH1 0x20 ADD PUSH1 0x0 KECCAK256 SWAP1 POP PUSH2 0x115D PUSH8 0xA78B2782C24B81E8 PUSH1 0xC0 SHL PUSH2 0xF98 JUMP JUMPDEST DUP2 DUP2 PUSH1 0x0 ADD SWAP1 DUP2 PUSH2 0x116E SWAP2 SWAP1 PUSH2 0x1E09 JUMP JUMPDEST POP PUSH2 0x1183 PUSH8 0x54A0C268917C0763 PUSH1 0xC0 SHL PUSH2 0xF98 JUMP JUMPDEST DUP3 DUP2 PUSH1 0x1 ADD SWAP1 DUP2 PUSH2 0x1194 SWAP2 SWAP1 PUSH2 0x1E09 JUMP JUMPDEST POP PUSH2 0x11A8 PUSH7 0xD7163206921B8F PUSH1 0xC0 SHL PUSH2 0xF98 JUMP JUMPDEST PUSH1 0x0 DUP2 PUSH1 0x2 ADD DUP2 SWAP1 SSTORE POP PUSH2 0x11C6 PUSH8 0x816DCA57302233F6 PUSH1 0xC0 SHL PUSH2 0xF98 JUMP JUMPDEST PUSH2 0x11DA PUSH8 0x334D377F9C8C47F6 PUSH1 0xC0 SHL PUSH2 0xF98 JUMP JUMPDEST PUSH32 0xA308C173221675F0FCE92FF9D86E4BB3C96DC0D41F10155D4E334964AAA0ED88 CALLER PUSH1 0x2 SLOAD PUSH1 0x3 SLOAD DUP6 PUSH1 0x40 MLOAD PUSH2 0x1213 SWAP5 SWAP4 SWAP3 SWAP2 SWAP1 PUSH2 0x1EDB JUMP JUMPDEST PUSH1 0x40 MLOAD DUP1 SWAP2 SUB SWAP1 LOG1 POP POP POP JUMP JUMPDEST PUSH2 0x1234 PUSH8 0x6EEEB3901080C494 PUSH1 0xC0 SHL PUSH2 0xF98 JUMP JUMPDEST PUSH2 0x1248 PUSH8 0x713BF02A1B83AE97 PUSH1 0xC0 SHL PUSH2 0xF98 JUMP JUMPDEST PUSH1 0x1 PUSH1 0x3 PUSH1 0x0 DUP3 DUP3 SLOAD PUSH2 0x125B SWAP2 SWAP1 PUSH2 0x19F9 JUMP JUMPDEST SWAP3 POP POP DUP2 SWAP1 SSTORE POP PUSH2 0x1276 PUSH8 0x61928398D78E7E2A PUSH1 0xC0 SHL PUSH2 0xF98 JUMP JUMPDEST PUSH2 0x128A PUSH8 0x135EE844CC719540 PUSH1 0xC0 SHL PUSH2 0xF98 JUMP JUMPDEST PUSH1 0x0 PUSH1 0x1 PUSH1 0x0 PUSH1 0x2 SLOAD DUP2 MSTORE PUSH1 0x20 ADD SWAP1 DUP2 MSTORE PUSH1 0x20 ADD PUSH1 0x0 KECCAK256 PUSH1 0x0 PUSH1 0x3 SLOAD DUP2 MSTORE PUSH1 0x20 ADD SWAP1 DUP2 MSTORE PUSH1 0x20 ADD PUSH1 0x0 KECCAK256 SWAP1 POP PUSH2 0x12CA PUSH8 0x283B502E24FBA424 PUSH1 0xC0 SHL PUSH2 0xF98 JUMP JUMPDEST DUP2 DUP2 PUSH1 0x0 ADD SWAP1 DUP2 PUSH2 0x12DB SWAP2 SWAP1 PUSH2 0x1E09 JUMP JUMPDEST POP PUSH2 0x12F0 PUSH8 0x8BA837C765BC328F PUSH1 0xC0 SHL PUSH2 0xF98 JUMP JUMPDEST DUP3 DUP2 PUSH1 0x1 ADD SWAP1 DUP2 PUSH2 0x1301 SWAP2 SWAP1 PUSH2 0x1E09 JUMP JUMPDEST POP PUSH2 0x1316 PUSH8 0x7704712409D5704 PUSH1 0xC0 SHL PUSH2 0xF98 JUMP JUMPDEST PUSH2 0x132A PUSH8 0xCE089427912EDFEE PUSH1 0xC0 SHL PUSH2 0xF98 JUMP JUMPDEST PUSH32 0xA308C173221675F0FCE92FF9D86E4BB3C96DC0D41F10155D4E334964AAA0ED88 CALLER PUSH1 0x2 SLOAD PUSH1 0x3 SLOAD DUP6 PUSH1 0x40 MLOAD PUSH2 0x1363 SWAP5 SWAP4 SWAP3 SWAP2 SWAP1 PUSH2 0x1EDB JUMP JUMPDEST PUSH1 0x40 MLOAD DUP1 SWAP2 SUB SWAP1 LOG1 POP POP POP JUMP JUMPDEST PUSH2 0x1384 PUSH8 0x17EFAC88BE739ACC PUSH1 0xC0 SHL PUSH2 0xF98 JUMP JUMPDEST PUSH2 0x1398 PUSH8 0xEDB28683C40F3569 PUSH1 0xC0 SHL PUSH2 0xF98 JUMP JUMPDEST PUSH2 0x13AC PUSH8 0xA9EAA2DE640530DB PUSH1 0xC0 SHL PUSH2 0xF98 JUMP JUMPDEST PUSH1 0x0 PUSH1 0x1 PUSH1 0x0 PUSH1 0x2 SLOAD DUP2 MSTORE PUSH1 0x20 ADD SWAP1 DUP2 MSTORE PUSH1 0x20 ADD PUSH1 0x0 KECCAK256 PUSH1 0x0 PUSH1 0x4 SLOAD DUP2 MSTORE PUSH1 0x20 ADD SWAP1 DUP2 MSTORE PUSH1 0x20 ADD PUSH1 0x0 KECCAK256 SWAP1 POP PUSH2 0x13EC PUSH8 0xB3D84DCFD974C13E PUSH1 0xC0 SHL PUSH2 0xF98 JUMP JUMPDEST PUSH2 0x1400 PUSH8 0x55FF162909218BF6 PUSH1 0xC0 SHL PUSH2 0xF98 JUMP JUMPDEST PUSH1 0x0 DUP1 SLOAD SWAP1 PUSH2 0x100 EXP SWAP1 DIV PUSH20 0xFFFFFFFFFFFFFFFFFFFFFFFFFFFFFFFFFFFFFFFF AND PUSH20 0xFFFFFFFFFFFFFFFFFFFFFFFFFFFFFFFFFFFFFFFF AND PUSH4 0xD85D3D27 DUP3 PUSH1 0x1 ADD PUSH1 0x40 MLOAD DUP3 PUSH4 0xFFFFFFFF AND PUSH1 0xE0 SHL DUP2 MSTORE PUSH1 0x4 ADD PUSH2 0x145C SWAP2 SWAP1 PUSH2 0x1FAB JUMP JUMPDEST PUSH1 0x0 PUSH1 0x40 MLOAD DUP1 DUP4 SUB DUP2 PUSH1 0x0 DUP8 DUP1 EXTCODESIZE ISZERO DUP1 ISZERO PUSH2 0x1476 JUMPI PUSH1 0x0 DUP1 REVERT JUMPDEST POP GAS CALL ISZERO DUP1 ISZERO PUSH2 0x148A JUMPI RETURNDATASIZE PUSH1 0x0 DUP1 RETURNDATACOPY RETURNDATASIZE PUSH1 0x0 REVERT JUMPDEST POP POP POP POP POP JUMP JUMPDEST PUSH1 0x0 PUSH1 0x40 MLOAD SWAP1 POP SWAP1 JUMP JUMPDEST PUSH1 0x0 DUP1 REVERT JUMPDEST PUSH1 0x0 DUP1 REVERT JUMPDEST PUSH1 0x0 DUP2 SWAP1 POP SWAP2 SWAP1 POP JUMP JUMPDEST PUSH2 0x14B8 DUP2 PUSH2 0x14A5 JUMP JUMPDEST DUP2 EQ PUSH2 0x14C3 JUMPI PUSH1 0x0 DUP1 REVERT JUMPDEST POP JUMP JUMPDEST PUSH1 0x0 DUP2 CALLDATALOAD SWAP1 POP PUSH2 0x14D5 DUP2 PUSH2 0x14AF JUMP JUMPDEST SWAP3 SWAP2 POP POP JUMP JUMPDEST PUSH1 0x0 PUSH1 0x20 DUP3 DUP5 SUB SLT ISZERO PUSH2 0x14F1 JUMPI PUSH2 0x14F0 PUSH2 0x149B JUMP JUMPDEST JUMPDEST PUSH1 0x0 PUSH2 0x14FF DUP5 DUP3 DUP6 ADD PUSH2 0x14C6 JUMP JUMPDEST SWAP2 POP POP SWAP3 SWAP2 POP POP JUMP JUMPDEST PUSH1 0x0 DUP1 REVERT JUMPDEST PUSH1 0x0 DUP1 REVERT JUMPDEST PUSH1 0x0 PUSH1 0x1F NOT PUSH1 0x1F DUP4 ADD AND SWAP1 POP SWAP2 SWAP1 POP JUMP JUMPDEST PUSH32 0x4E487B7100000000000000000000000000000000000000000000000000000000 PUSH1 0x0 MSTORE PUSH1 0x41 PUSH1 0x4 MSTORE PUSH1 0x24 PUSH1 0x0 REVERT JUMPDEST PUSH2 0x155B DUP3 PUSH2 0x1512 JUMP JUMPDEST DUP2 ADD DUP2 DUP2 LT PUSH8 0xFFFFFFFFFFFFFFFF DUP3 GT OR ISZERO PUSH2 0x157A JUMPI PUSH2 0x1579 PUSH2 0x1523 JUMP JUMPDEST JUMPDEST DUP1 PUSH1 0x40 MSTORE POP POP POP JUMP JUMPDEST PUSH1 0x0 PUSH2 0x158D PUSH2 0x1491 JUMP JUMPDEST SWAP1 POP PUSH2 0x1599 DUP3 DUP3 PUSH2 0x1552 JUMP JUMPDEST SWAP2 SWAP1 POP JUMP JUMPDEST PUSH1 0x0 PUSH8 0xFFFFFFFFFFFFFFFF DUP3 GT ISZERO PUSH2 0x15B9 JUMPI PUSH2 0x15B8 PUSH2 0x1523 JUMP JUMPDEST JUMPDEST PUSH2 0x15C2 DUP3 PUSH2 0x1512 JUMP JUMPDEST SWAP1 POP PUSH1 0x20 DUP2 ADD SWAP1 POP SWAP2 SWAP1 POP JUMP JUMPDEST DUP3 DUP2 DUP4 CALLDATACOPY PUSH1 0x0 DUP4 DUP4 ADD MSTORE POP POP POP JUMP JUMPDEST PUSH1 0x0 PUSH2 0x15F1 PUSH2 0x15EC DUP5 PUSH2 0x159E JUMP JUMPDEST PUSH2 0x1583 JUMP JUMPDEST SWAP1 POP DUP3 DUP2 MSTORE PUSH1 0x20 DUP2 ADD DUP5 DUP5 DUP5 ADD GT ISZERO PUSH2 0x160D JUMPI PUSH2 0x160C PUSH2 0x150D JUMP JUMPDEST JUMPDEST PUSH2 0x1618 DUP5 DUP3 DUP6 PUSH2 0x15CF JUMP JUMPDEST POP SWAP4 SWAP3 POP POP POP JUMP JUMPDEST PUSH1 0x0 DUP3 PUSH1 0x1F DUP4 ADD SLT PUSH2 0x1635 JUMPI PUSH2 0x1634 PUSH2 0x1508 JUMP JUMPDEST JUMPDEST DUP2 CALLDATALOAD PUSH2 0x1645 DUP5 DUP3 PUSH1 0x20 DUP7 ADD PUSH2 0x15DE JUMP JUMPDEST SWAP2 POP POP SWAP3 SWAP2 POP POP JUMP JUMPDEST PUSH1 0x0 DUP1 PUSH1 0x40 DUP4 DUP6 SUB SLT ISZERO PUSH2 0x1665 JUMPI PUSH2 0x1664 PUSH2 0x149B JUMP JUMPDEST JUMPDEST PUSH1 0x0 DUP4 ADD CALLDATALOAD PUSH8 0xFFFFFFFFFFFFFFFF DUP2 GT ISZERO PUSH2 0x1683 JUMPI PUSH2 0x1682 PUSH2 0x14A0 JUMP JUMPDEST JUMPDEST PUSH2 0x168F DUP6 DUP3 DUP7 ADD PUSH2 0x1620 JUMP JUMPDEST SWAP3 POP POP PUSH1 0x20 DUP4 ADD CALLDATALOAD PUSH8 0xFFFFFFFFFFFFFFFF DUP2 GT ISZERO PUSH2 0x16B0 JUMPI PUSH2 0x16AF PUSH2 0x14A0 JUMP JUMPDEST JUMPDEST PUSH2 0x16BC DUP6 DUP3 DUP7 ADD PUSH2 0x1620 JUMP JUMPDEST SWAP2 POP POP SWAP3 POP SWAP3 SWAP1 POP JUMP JUMPDEST PUSH2 0x16CF DUP2 PUSH2 0x14A5 JUMP JUMPDEST DUP3 MSTORE POP POP JUMP JUMPDEST PUSH1 0x0 PUSH1 0x20 DUP3 ADD SWAP1 POP PUSH2 0x16EA PUSH1 0x0 DUP4 ADD DUP5 PUSH2 0x16C6 JUMP JUMPDEST SWAP3 SWAP2 POP POP JUMP JUMPDEST PUSH1 0x0 DUP1 PUSH1 0x40 DUP4 DUP6 SUB SLT ISZERO PUSH2 0x1707 JUMPI PUSH2 0x1706 PUSH2 0x149B JUMP JUMPDEST JUMPDEST PUSH1 0x0 PUSH2 0x1715 DUP6 DUP3 DUP7 ADD PUSH2 0x14C6 JUMP JUMPDEST SWAP3 POP POP PUSH1 0x20 PUSH2 0x1726 DUP6 DUP3 DUP7 ADD PUSH2 0x14C6 JUMP JUMPDEST SWAP2 POP POP SWAP3 POP SWAP3 SWAP1 POP JUMP JUMPDEST PUSH1 0x0 DUP2 MLOAD SWAP1 POP SWAP2 SWAP1 POP JUMP JUMPDEST PUSH1 0x0 DUP3 DUP3 MSTORE PUSH1 0x20 DUP3 ADD SWAP1 POP SWAP3 SWAP2 POP POP JUMP JUMPDEST PUSH1 0x0 JUMPDEST DUP4 DUP2 LT ISZERO PUSH2 0x176A JUMPI DUP1 DUP3 ADD MLOAD DUP2 DUP5 ADD MSTORE PUSH1 0x20 DUP2 ADD SWAP1 POP PUSH2 0x174F JUMP JUMPDEST PUSH1 0x0 DUP5 DUP5 ADD MSTORE POP POP POP POP JUMP JUMPDEST PUSH1 0x0 PUSH2 0x1781 DUP3 PUSH2 0x1730 JUMP JUMPDEST PUSH2 0x178B DUP2 DUP6 PUSH2 0x173B JUMP JUMPDEST SWAP4 POP PUSH2 0x179B DUP2 DUP6 PUSH1 0x20 DUP7 ADD PUSH2 0x174C JUMP JUMPDEST PUSH2 0x17A4 DUP2 PUSH2 0x1512 JUMP JUMPDEST DUP5 ADD SWAP2 POP POP SWAP3 SWAP2 POP POP JUMP JUMPDEST PUSH1 0x0 PUSH1 0x60 DUP3 ADD SWAP1 POP DUP2 DUP2 SUB PUSH1 0x0 DUP4 ADD MSTORE PUSH2 0x17C9 DUP2 DUP7 PUSH2 0x1776 JUMP JUMPDEST SWAP1 POP DUP2 DUP2 SUB PUSH1 0x20 DUP4 ADD MSTORE PUSH2 0x17DD DUP2 DUP6 PUSH2 0x1776 JUMP JUMPDEST SWAP1 POP PUSH2 0x17EC PUSH1 0x40 DUP4 ADD DUP5 PUSH2 0x16C6 JUMP JUMPDEST SWAP5 SWAP4 POP POP POP POP JUMP JUMPDEST PUSH32 0x4E487B7100000000000000000000000000000000000000000000000000000000 PUSH1 0x0 MSTORE PUSH1 0x21 PUSH1 0x4 MSTORE PUSH1 0x24 PUSH1 0x0 REVERT JUMPDEST PUSH1 0x4 DUP2 LT PUSH2 0x1834 JUMPI PUSH2 0x1833 PUSH2 0x17F4 JUMP JUMPDEST JUMPDEST POP JUMP JUMPDEST PUSH1 0x0 DUP2 SWAP1 POP PUSH2 0x1845 DUP3 PUSH2 0x1823 JUMP JUMPDEST SWAP2 SWAP1 POP JUMP JUMPDEST PUSH1 0x0 PUSH2 0x1855 DUP3 PUSH2 0x1837 JUMP JUMPDEST SWAP1 POP SWAP2 SWAP1 POP JUMP JUMPDEST PUSH2 0x1865 DUP2 PUSH2 0x184A JUMP JUMPDEST DUP3 MSTORE POP POP JUMP JUMPDEST PUSH1 0x0 PUSH1 0x20 DUP3 ADD SWAP1 POP PUSH2 0x1880 PUSH1 0x0 DUP4 ADD DUP5 PUSH2 0x185C JUMP JUMPDEST SWAP3 SWAP2 POP POP JUMP JUMPDEST PUSH32 0x4261642070726F706F73616C2069640000000000000000000000000000000000 PUSH1 0x0 DUP3 ADD MSTORE POP JUMP JUMPDEST PUSH1 0x0 PUSH2 0x18BC PUSH1 0xF DUP4 PUSH2 0x173B JUMP JUMPDEST SWAP2 POP PUSH2 0x18C7 DUP3 PUSH2 0x1886 JUMP JUMPDEST PUSH1 0x20 DUP3 ADD SWAP1 POP SWAP2 SWAP1 POP JUMP JUMPDEST PUSH1 0x0 PUSH1 0x20 DUP3 ADD SWAP1 POP DUP2 DUP2 SUB PUSH1 0x0 DUP4 ADD MSTORE PUSH2 0x18EB DUP2 PUSH2 0x18AF JUMP JUMPDEST SWAP1 POP SWAP2 SWAP1 POP JUMP JUMPDEST PUSH32 0x49742773206E6F742074686520766F74696E672074696D650000000000000000 PUSH1 0x0 DUP3 ADD MSTORE POP JUMP JUMPDEST PUSH1 0x0 PUSH2 0x1928 PUSH1 0x18 DUP4 PUSH2 0x173B JUMP JUMPDEST SWAP2 POP PUSH2 0x1933 DUP3 PUSH2 0x18F2 JUMP JUMPDEST PUSH1 0x20 DUP3 ADD SWAP1 POP SWAP2 SWAP1 POP JUMP JUMPDEST PUSH1 0x0 PUSH1 0x20 DUP3 ADD SWAP1 POP DUP2 DUP2 SUB PUSH1 0x0 DUP4 ADD MSTORE PUSH2 0x1957 DUP2 PUSH2 0x191B JUMP JUMPDEST SWAP1 POP SWAP2 SWAP1 POP JUMP JUMPDEST PUSH32 0x596F7520616C726561647920766F746564206F6E636500000000000000000000 PUSH1 0x0 DUP3 ADD MSTORE POP JUMP JUMPDEST PUSH1 0x0 PUSH2 0x1994 PUSH1 0x16 DUP4 PUSH2 0x173B JUMP JUMPDEST SWAP2 POP PUSH2 0x199F DUP3 PUSH2 0x195E JUMP JUMPDEST PUSH1 0x20 DUP3 ADD SWAP1 POP SWAP2 SWAP1 POP JUMP JUMPDEST PUSH1 0x0 PUSH1 0x20 DUP3 ADD SWAP1 POP DUP2 DUP2 SUB PUSH1 0x0 DUP4 ADD MSTORE PUSH2 0x19C3 DUP2 PUSH2 0x1987 JUMP JUMPDEST SWAP1 POP SWAP2 SWAP1 POP JUMP JUMPDEST PUSH32 0x4E487B7100000000000000000000000000000000000000000000000000000000 PUSH1 0x0 MSTORE PUSH1 0x11 PUSH1 0x4 MSTORE PUSH1 0x24 PUSH1 0x0 REVERT JUMPDEST PUSH1 0x0 PUSH2 0x1A04 DUP3 PUSH2 0x14A5 JUMP JUMPDEST SWAP2 POP PUSH2 0x1A0F DUP4 PUSH2 0x14A5 JUMP JUMPDEST SWAP3 POP DUP3 DUP3 ADD SWAP1 POP DUP1 DUP3 GT ISZERO PUSH2 0x1A27 JUMPI PUSH2 0x1A26 PUSH2 0x19CA JUMP JUMPDEST JUMPDEST SWAP3 SWAP2 POP POP JUMP JUMPDEST PUSH1 0x0 PUSH20 0xFFFFFFFFFFFFFFFFFFFFFFFFFFFFFFFFFFFFFFFF DUP3 AND SWAP1 POP SWAP2 SWAP1 POP JUMP JUMPDEST PUSH1 0x0 PUSH2 0x1A58 DUP3 PUSH2 0x1A2D JUMP JUMPDEST SWAP1 POP SWAP2 SWAP1 POP JUMP JUMPDEST PUSH2 0x1A68 DUP2 PUSH2 0x1A4D JUMP JUMPDEST DUP3 MSTORE POP POP JUMP JUMPDEST PUSH1 0x0 PUSH1 0x60 DUP3 ADD SWAP1 POP PUSH2 0x1A83 PUSH1 0x0 DUP4 ADD DUP7 PUSH2 0x1A5F JUMP JUMPDEST PUSH2 0x1A90 PUSH1 0x20 DUP4 ADD DUP6 PUSH2 0x16C6 JUMP JUMPDEST PUSH2 0x1A9D PUSH1 0x40 DUP4 ADD DUP5 PUSH2 0x16C6 JUMP JUMPDEST SWAP5 SWAP4 POP POP POP POP JUMP JUMPDEST PUSH32 0x596F752063616E27742061646420612070726F706F73616C2C20697427732074 PUSH1 0x0 DUP3 ADD MSTORE PUSH32 0x696D6520746F20766F7465210000000000000000000000000000000000000000 PUSH1 0x20 DUP3 ADD MSTORE POP JUMP JUMPDEST PUSH1 0x0 PUSH2 0x1B01 PUSH1 0x2C DUP4 PUSH2 0x173B JUMP JUMPDEST SWAP2 POP PUSH2 0x1B0C DUP3 PUSH2 0x1AA5 JUMP JUMPDEST PUSH1 0x40 DUP3 ADD SWAP1 POP SWAP2 SWAP1 POP JUMP JUMPDEST PUSH1 0x0 PUSH1 0x20 DUP3 ADD SWAP1 POP DUP2 DUP2 SUB PUSH1 0x0 DUP4 ADD MSTORE PUSH2 0x1B30 DUP2 PUSH2 0x1AF4 JUMP JUMPDEST SWAP1 POP SWAP2 SWAP1 POP JUMP JUMPDEST PUSH32 0x536F6D7468696E672077656E742077726F6E6720696E20746865206C69666520 PUSH1 0x0 DUP3 ADD MSTORE PUSH32 0x6379636C65000000000000000000000000000000000000000000000000000000 PUSH1 0x20 DUP3 ADD MSTORE POP JUMP JUMPDEST PUSH1 0x0 PUSH2 0x1B93 PUSH1 0x25 DUP4 PUSH2 0x173B JUMP JUMPDEST SWAP2 POP PUSH2 0x1B9E DUP3 PUSH2 0x1B37 JUMP JUMPDEST PUSH1 0x40 DUP3 ADD SWAP1 POP SWAP2 SWAP1 POP JUMP JUMPDEST PUSH1 0x0 PUSH1 0x20 DUP3 ADD SWAP1 POP DUP2 DUP2 SUB PUSH1 0x0 DUP4 ADD MSTORE PUSH2 0x1BC2 DUP2 PUSH2 0x1B86 JUMP JUMPDEST SWAP1 POP SWAP2 SWAP1 POP JUMP JUMPDEST PUSH32 0x4E487B7100000000000000000000000000000000000000000000000000000000 PUSH1 0x0 MSTORE PUSH1 0x22 PUSH1 0x4 MSTORE PUSH1 0x24 PUSH1 0x0 REVERT JUMPDEST PUSH1 0x0 PUSH1 0x2 DUP3 DIV SWAP1 POP PUSH1 0x1 DUP3 AND DUP1 PUSH2 0x1C10 JUMPI PUSH1 0x7F DUP3 AND SWAP2 POP JUMPDEST PUSH1 0x20 DUP3 LT DUP2 SUB PUSH2 0x1C23 JUMPI PUSH2 0x1C22 PUSH2 0x1BC9 JUMP JUMPDEST JUMPDEST POP SWAP2 SWAP1 POP JUMP JUMPDEST PUSH1 0x0 PUSH2 0x1C34 DUP3 PUSH2 0x14A5 JUMP JUMPDEST SWAP2 POP PUSH2 0x1C3F DUP4 PUSH2 0x14A5 JUMP JUMPDEST SWAP3 POP DUP3 DUP3 SUB SWAP1 POP DUP2 DUP2 GT ISZERO PUSH2 0x1C57 JUMPI PUSH2 0x1C56 PUSH2 0x19CA JUMP JUMPDEST JUMPDEST SWAP3 SWAP2 POP POP JUMP JUMPDEST PUSH1 0x0 DUP2 SWAP1 POP DUP2 PUSH1 0x0 MSTORE PUSH1 0x20 PUSH1 0x0 KECCAK256 SWAP1 POP SWAP2 SWAP1 POP JUMP JUMPDEST PUSH1 0x0 PUSH1 0x20 PUSH1 0x1F DUP4 ADD DIV SWAP1 POP SWAP2 SWAP1 POP JUMP JUMPDEST PUSH1 0x0 DUP3 DUP3 SHL SWAP1 POP SWAP3 SWAP2 POP POP JUMP JUMPDEST PUSH1 0x0 PUSH1 0x8 DUP4 MUL PUSH2 0x1CBF PUSH32 0xFFFFFFFFFFFFFFFFFFFFFFFFFFFFFFFFFFFFFFFFFFFFFFFFFFFFFFFFFFFFFFFF DUP3 PUSH2 0x1C82 JUMP JUMPDEST PUSH2 0x1CC9 DUP7 DUP4 PUSH2 0x1C82 JUMP JUMPDEST SWAP6 POP DUP1 NOT DUP5 AND SWAP4 POP DUP1 DUP7 AND DUP5 OR SWAP3 POP POP POP SWAP4 SWAP3 POP POP POP JUMP JUMPDEST PUSH1 0x0 DUP2 SWAP1 POP SWAP2 SWAP1 POP JUMP JUMPDEST PUSH1 0x0 PUSH2 0x1D06 PUSH2 0x1D01 PUSH2 0x1CFC DUP5 PUSH2 0x14A5 JUMP JUMPDEST PUSH2 0x1CE1 JUMP JUMPDEST PUSH2 0x14A5 JUMP JUMPDEST SWAP1 POP SWAP2 SWAP1 POP JUMP JUMPDEST PUSH1 0x0 DUP2 SWAP1 POP SWAP2 SWAP1 POP JUMP JUMPDEST PUSH2 0x1D20 DUP4 PUSH2 0x1CEB JUMP JUMPDEST PUSH2 0x1D34 PUSH2 0x1D2C DUP3 PUSH2 0x1D0D JUMP JUMPDEST DUP5 DUP5 SLOAD PUSH2 0x1C8F JUMP JUMPDEST DUP3 SSTORE POP POP POP POP JUMP JUMPDEST PUSH1 0x0 SWAP1 JUMP JUMPDEST PUSH2 0x1D49 PUSH2 0x1D3C JUMP JUMPDEST PUSH2 0x1D54 DUP2 DUP5 DUP5 PUSH2 0x1D17 JUMP JUMPDEST POP POP POP JUMP JUMPDEST JUMPDEST DUP2 DUP2 LT ISZERO PUSH2 0x1D78 JUMPI PUSH2 0x1D6D PUSH1 0x0 DUP3 PUSH2 0x1D41 JUMP JUMPDEST PUSH1 0x1 DUP2 ADD SWAP1 POP PUSH2 0x1D5A JUMP JUMPDEST POP POP JUMP JUMPDEST PUSH1 0x1F DUP3 GT ISZERO PUSH2 0x1DBD JUMPI PUSH2 0x1D8E DUP2 PUSH2 0x1C5D JUMP JUMPDEST PUSH2 0x1D97 DUP5 PUSH2 0x1C72 JUMP JUMPDEST DUP2 ADD PUSH1 0x20 DUP6 LT ISZERO PUSH2 0x1DA6 JUMPI DUP2 SWAP1 POP JUMPDEST PUSH2 0x1DBA PUSH2 0x1DB2 DUP6 PUSH2 0x1C72 JUMP JUMPDEST DUP4 ADD DUP3 PUSH2 0x1D59 JUMP JUMPDEST POP POP JUMPDEST POP POP POP JUMP JUMPDEST PUSH1 0x0 DUP3 DUP3 SHR SWAP1 POP SWAP3 SWAP2 POP POP JUMP JUMPDEST PUSH1 0x0 PUSH2 0x1DE0 PUSH1 0x0 NOT DUP5 PUSH1 0x8 MUL PUSH2 0x1DC2 JUMP JUMPDEST NOT DUP1 DUP4 AND SWAP2 POP POP SWAP3 SWAP2 POP POP JUMP JUMPDEST PUSH1 0x0 PUSH2 0x1DF9 DUP4 DUP4 PUSH2 0x1DCF JUMP JUMPDEST SWAP2 POP DUP3 PUSH1 0x2 MUL DUP3 OR SWAP1 POP SWAP3 SWAP2 POP POP JUMP JUMPDEST PUSH2 0x1E12 DUP3 PUSH2 0x1730 JUMP JUMPDEST PUSH8 0xFFFFFFFFFFFFFFFF DUP2 GT ISZERO PUSH2 0x1E2B JUMPI PUSH2 0x1E2A PUSH2 0x1523 JUMP JUMPDEST JUMPDEST PUSH2 0x1E35 DUP3 SLOAD PUSH2 0x1BF8 JUMP JUMPDEST PUSH2 0x1E40 DUP3 DUP3 DUP6 PUSH2 0x1D7C JUMP JUMPDEST PUSH1 0x0 PUSH1 0x20 SWAP1 POP PUSH1 0x1F DUP4 GT PUSH1 0x1 DUP2 EQ PUSH2 0x1E73 JUMPI PUSH1 0x0 DUP5 ISZERO PUSH2 0x1E61 JUMPI DUP3 DUP8 ADD MLOAD SWAP1 POP JUMPDEST PUSH2 0x1E6B DUP6 DUP3 PUSH2 0x1DED JUMP JUMPDEST DUP7 SSTORE POP PUSH2 0x1ED3 JUMP JUMPDEST PUSH1 0x1F NOT DUP5 AND PUSH2 0x1E81 DUP7 PUSH2 0x1C5D JUMP JUMPDEST PUSH1 0x0 JUMPDEST DUP3 DUP2 LT ISZERO PUSH2 0x1EA9 JUMPI DUP5 DUP10 ADD MLOAD DUP3 SSTORE PUSH1 0x1 DUP3 ADD SWAP2 POP PUSH1 0x20 DUP6 ADD SWAP5 POP PUSH1 0x20 DUP2 ADD SWAP1 POP PUSH2 0x1E84 JUMP JUMPDEST DUP7 DUP4 LT ISZERO PUSH2 0x1EC6 JUMPI DUP5 DUP10 ADD MLOAD PUSH2 0x1EC2 PUSH1 0x1F DUP10 AND DUP3 PUSH2 0x1DCF JUMP JUMPDEST DUP4 SSTORE POP JUMPDEST PUSH1 0x1 PUSH1 0x2 DUP9 MUL ADD DUP9 SSTORE POP POP POP JUMPDEST POP POP POP POP POP POP JUMP JUMPDEST PUSH1 0x0 PUSH1 0x80 DUP3 ADD SWAP1 POP PUSH2 0x1EF0 PUSH1 0x0 DUP4 ADD DUP8 PUSH2 0x1A5F JUMP JUMPDEST PUSH2 0x1EFD PUSH1 0x20 DUP4 ADD DUP7 PUSH2 0x16C6 JUMP JUMPDEST PUSH2 0x1F0A PUSH1 0x40 DUP4 ADD DUP6 PUSH2 0x16C6 JUMP JUMPDEST DUP2 DUP2 SUB PUSH1 0x60 DUP4 ADD MSTORE PUSH2 0x1F1C DUP2 DUP5 PUSH2 0x1776 JUMP JUMPDEST SWAP1 POP SWAP6 SWAP5 POP POP POP POP POP JUMP JUMPDEST PUSH1 0x0 DUP2 SLOAD PUSH2 0x1F34 DUP2 PUSH2 0x1BF8 JUMP JUMPDEST PUSH2 0x1F3E DUP2 DUP7 PUSH2 0x173B JUMP JUMPDEST SWAP5 POP PUSH1 0x1 DUP3 AND PUSH1 0x0 DUP2 EQ PUSH2 0x1F59 JUMPI PUSH1 0x1 DUP2 EQ PUSH2 0x1F6F JUMPI PUSH2 0x1FA2 JUMP JUMPDEST PUSH1 0xFF NOT DUP4 AND DUP7 MSTORE DUP2 ISZERO ISZERO PUSH1 0x20 MUL DUP7 ADD SWAP4 POP PUSH2 0x1FA2 JUMP JUMPDEST PUSH2 0x1F78 DUP6 PUSH2 0x1C5D JUMP JUMPDEST PUSH1 0x0 JUMPDEST DUP4 DUP2 LT ISZERO PUSH2 0x1F9A JUMPI DUP2 SLOAD DUP2 DUP10 ADD MSTORE PUSH1 0x1 DUP3 ADD SWAP2 POP PUSH1 0x20 DUP2 ADD SWAP1 POP PUSH2 0x1F7B JUMP JUMPDEST DUP1 DUP9 ADD SWAP6 POP POP POP JUMPDEST POP POP POP SWAP3 SWAP2 POP POP JUMP JUMPDEST PUSH1 0x0 PUSH1 0x20 DUP3 ADD SWAP1 POP DUP2 DUP2 SUB PUSH1 0x0 DUP4 ADD MSTORE PUSH2 0x1FC5 DUP2 DUP5 PUSH2 0x1F27 JUMP JUMPDEST SWAP1 POP SWAP3 SWAP2 POP POP JUMP INVALID LOG2 PUSH5 0x6970667358 0x22 SLT KECCAK256 SWAP6 0xF9 0xDA 0x2C 0xDF PUSH26 0xBE523EA239A574713D9F5110563A3F6E3E866A9D404429E99CB0 PUSH5 0x736F6C6343 STOP ADDMOD SLT STOP CALLER "},"methodIdentifiers":{"addProposal(string,string)":"23d1c95e","getBlockLeft()":"fd057c56","getWorkflowStatus()":"f75d64a6","s_creationPeriod()":"f31c5891","s_currentWinningProposalId()":"da12103d","s_lastRefBlock()":"d2970c57","s_proposalIds()":"f95cc860","s_proposals(uint256,uint256)":"b9c503ca","s_tokenIds()":"627f0c28","s_votingPeriod()":"725ae3dc","setChallengePeriod(uint256)":"5d475fdd","setVotingPeriod(uint256)":"ea0217cf","vote(uint256)":"0121b93f"}}}}}